S0150000636F325F6932635F6261636B75702E733337A9
S3150800000000100020ED040008216800082168000897
S31508000010216800082168000821680008216800088E
S31508000020216800082168000821680008216800087E
S31508000030216800082168000821680008216800086E
S31508000040216800082168000821680008216800085E
S31508000050216800082168000821680008216800084E
S31508000060216800082168000821680008D1030008F3
S3150800007083670008216800082168000821680008CD
S31508000080216800082168000821680008216800081E
S3150800009021680008FD10000821680008216800088A
S315080000A021680008110C0008F10B000821680008F7
S315080000B021680008216800082168000821680008EE
S315080000C021680008216800082168000821680008DE
S315080000D021680008216800082168000821680008CE
S315080000E021680008216800082168000821680008BE
S315080000F021680008216800082168000821680008AE
S31508000100216800082168000821680008216800089D
S31508000110216800082168000821680008216800088D
S31508000120216800082168000821680008216800087D
S31508000130216800082168000821680008216800086D
S31508000140216800082168000821680008E37D000886
S31508000150216800082168000821680008216800084D
S31508000160216800082168000821680008216800083D
S31508000170013800D0FCE770470348044B834202D09D
S31508000180034B03B118477047501800205018002039
S3150800019000000000064B0749C91A891048BF0131FB
S315080001A0491003D0044B0BB101481847704700BFEC
S315080001B050180020501800200000000010B5064C0A
S315080001C0237843B9FFF7D8FF044B13B10448AFF3BC
S315080001D000800123237010BD0816002000000000CF
S315080001E06C8A000808B5054B1BB105490548AFF3ED
S315080001F00080BDE80840FFF7CDBF00BF0000000043
S31508000200001000206C8A0008A3F5803A704700BFEA
S31508000210174B002B08BF134B9D46FFF7F5FF002130
S315080002208B460F461348144A121A07F068F80E4B05
S31508000230002B00D098470D4B002B00D09847002084
S31508000240002104000D000D48002802D00C48AFF329
S31508000250008005F07FFD2000290000F013F805F066
S3150800026067FD00BF00000800000000000000000055
S3150800027000100020001000203C160020000000009E
S315080002800000000007B506F00DFE174805F086FDCC
S3150800029005F090FB154805F081FD042005F084FA69
S315080002A005F0A2FA28B905F0A7FA10B905F0ACFAD4
S315080002B0F6E705F099FAA8B10D4805F06FFD0D4867
S315080002C005F06CFD0C4C0DF1060006F00AFE20B197
S315080002D02046BDF8061005F061FD4FF4FA6005F0FA
S315080002E0E5F9F0E70548E8E7387E0008457E0008A6
S315080002F0597E0008877E00089B7E0008727E0008EB
S3150800030008B5044806F036FDBDE80840024800F086
S315080003108FBC00BF9C8500083C160020064B1B6856
S315080003201A7A022A04D812B11B68044A1360704765
S31508000330032AF9D0704700BF501600201810002075
S3150800034030B58FB01C4D06AC0FCD0FC495E80F0025
S3150800035084E80F000E2200210DF10A0006F0CFFFF7
S315080003604FF47022154B6946CDE900230B238DF80F
S3150800037008300C238DF80930114B124803932023BB
S315080003800493012306AA8DF815300F4B04F0B0FC30
S31508000390044618B1A4210D4806F050FA9DF8163007
S315080003A04FF4E130002B0CBF0321002106F029FA97
S315080003B020460FB030BD00BFE07E00083C00015B60
S315080003C009160020801000201C100020A97E0008B5
S315080003D0014804F0ADBD00BF8010002008B50448F0
S315080003E006F02DFABDE80840024806F028BA00BF14
S315080003F0187F0008007F0008014806F09BBA00BF76
S31508000400307F0008024B0349186800F0B1BE00BFF0
S31508000410841600206416002018B1034B18600020CB
S3150800042070472520704700BF1C11002010B5054CE9
S315080004300549206801F0CAF92068BDE81040FFF7B1
S31508000440EBBF00BFB417002088160020014B1868C0
S31508000450704700BF1C11002008B5034806F08AFC47
S31508000460BDE8084006F052B99C850008014806F028
S3150800047081BC00BF9C85000813B5082006F043FA26
S31508000480FFF7E4FF01238DF8003090F836300F4C63
S31508000490022B206018D1006803F08AF9236820F03F
S315080004A07F4093F83530023B012B94BF032300238A
S315080004B040EA83700190684606F067F9082002B0A2
S315080004C0BDE8104006F02ABA0020E7E780110020B0
S315080004D00348044A0449121A921006F0A2B900BF4A
S315080004E070010008700100083C16002008B500F0ED
S315080004F02FF8FFF7EDFF124B12498B4212D300205B
S31508000500114B12498B4218D3FFF782FE186850F830
S315080005102240586840F82240013298688242F5D352
S315080005200C33EAE70022F8E71C6844F82200013297
S315080005305C68A242F8D30833E4E70022F8E700BF74
S31508000540748A0008808A0008808A0008808A000861
S3150800055070B54FF48041124B124A134D9A60D3F886
S31508000560882005F5005442F47002C3F888200F4A23
S3150800057091664FF0FF3222660D4A62660222C3F880
S31508000580D020BFF34F8FBFF36F8F4FF44036002054
S3150800059004F046FB0020E66004F0DCFA2E6170BD2C
S315080005A000ED00E0000000080080004400900050C4
S315080005B0F7FF3700014B1860704700BFBC170020D3
S315080005C0054B1860054B1B6F03F00703032B01D17E
S315080005D006F028BF704700BFC417002000800050EF
S315080005E030B587B005680446AB881E48ADF80C30B0
S315080005F006F0C0FB0022012103A800F00BF90DF15B
S315080006000B0103A800F0D0F99DF80B3083F0010325
S315080006102B70AB79022B19D14FF0FF330022CDE9AD
S3150800062004330094104B04A903A800F085FA049B30
S31508000630009401330C4B0CD1042205A903A800F041
S31508000640E5F918B16F21094806F0F8F8002007B057
S3150800065030BD012205A903A800F0D8F90028F5D075
S315080006607E21F0E79C8500084B680008487F000853
S3150800067007B500232948019306F07CFB4FF4407325
S31508000680012204216846ADF8003000F0C3F80122C3
S31508000690234B0520C3F8442401A907F0F7FA0028DC
S315080006A039D1204BD3F8F02042F00102C3F8F020EC
S315080006B0D3F8FC2042F08072C3F8FC201A4AA3F54E
S315080006C05D431A60019B194A03F5D52303F2FC43DF
S315080006D0B3FBF2F3164A013B13610223C2F8F0306A
S315080006E04FF48073C2F804334FF06043114AC3F8DD
S315080006F0B02F114AC3F8802ED3F8002E42F4807228
S31508000700C3F8002EFF2283F82020D3F8002E22F407
S315080007108072C3F8002E03B05DF804FB9C850008C0
S3150800072000D0035000ED00E0FF030040F8590D002B
S31508000730000004E055CEACC50900010030B54FF005
S315080007406043D3F8802ED20715D501240B4D84407B
S31508000750D5F8FC2042F08072C5F8FC20D3F8002EAC
S315080007602243C3F8002E53F82020002AF0D003F8BD
S315080007702010002030BD1120FCE700BF00ED00E08E
S315080007802DE9F0410C2504464FF00108124E0CB332
S3150800079014F001000BD0002024F0010405FB0062D0
S315080007A05768002FF3D09168C0B2B847EFE72246E2
S315080007B0013020284FEA520201D0D307F8D508FAAB
S315080007C000F20F2824EA0204E8D9103805FB006273
S315080007D0B432E5E7BDE8F0818411002008B50C487D
S315080007E006F0C8FA192004F0CFF928B1192004F048
S315080007F017FA192004F0AEF91A2004F0C5F928B141
S315080008001A2004F00DFA1A2004F0A4F9002008BDF5
S315080008109C8500082DE9F0410E469046044638B9F5
S3150800082091211A4806F00AF822252846BDE8F081E3
S315080008300F290CD8037883B1012B03D0022B0CD0D7
S31508000840032B04D13F236278D340DB0708D49521D4
S315080008500E4805F0F3FF2125E7E740F2FF33F2E7FC
S315080008600B4BD3F810532DB19921084805F0E6FF34
S315080008700225DAE707F004FA0746424620463146DB
S3150800088003F0BAFD384607F0F6F9CEE7A57F00086B
S3150800089000C0035038B5044628B91348E22105F0CC
S315080008A0CDFF222038BD037883B1012B03D0022B5C
S315080008B00CD0032B04D13F236278D340DB0708D43E
S315080008C00948E62105F0BAFF2120EBE740F2FF339D
S315080008D0F2E707F0D5F90546204606F0CDFE28468C
S315080008E007F0C9F90020DDE7A57F000838B50446FA
S315080008F028B91348FA2105F0A1FF222038BD03784C
S3150800090083B1012B03D0022B0CD0032B04D13F2338
S315080009106278D340DB0708D40948FE2105F08EFF2C
S315080009202120EBE740F2FF33F2E707F0A9F9054685
S31508000930204603F085FC284607F09DF90020DDE7F0
S31508000940A57F000870B50D46044600B131B91548B3
S3150800095040F22B1105F072FF222070BD03788BB18F
S31508000960012B03D0022B0DD0032B04D13F23627831
S31508000970D340DB0709D40B4840F22F1105F05EFF80
S315080009802120EAE740F2FF33F1E707F079F9064656
S31508000990204603F0ABFC2870304607F06CF90020BF
S315080009A0DBE700BFA57F000870B50D46044600B119
S315080009B031B915484FF4A27105F040FF222070BDE9
S315080009C003788BB1012B03D0022B0DD0032B04D156
S315080009D03F236278D340DB0709D40B484FF4A47150
S315080009E005F02CFF2120EAE740F2FF33F1E707F094
S315080009F047F90646204603F04DFC2870304607F0B6
S31508000A003AF90020DBE700BFA57F00082DE9F04191
S31508000A100D4616469846044600B139B92F484FF494
S31508000A20DF7105F00BFF2220BDE8F081027872B174
S31508000A30012A19D0022A0AD0032A15D0FF2A0CD077
S31508000A404FF4E171254805F0F9FE2120ECE740F264
S31508000A50FF336278D340DA07F2D5022E07D9042E7F
S31508000A6005D04FF4E371EDE73F236278F2E707F02C
S31508000A7007F923780746FF2B05D032462046296812
S31508000A8003F022FD28602B68013309D12378FF2B58
S31508000A9006D1134B6078D3F8241406F04FF9286072
S31508000AA029684B1C14D00C230E4A03FB0122069B13
S31508000AB0C2F8048093602378FF2B04D001230A4AE6
S31508000AC08B40C2F82434384607F0D5F80020ABE747
S31508000AD0384607F0D0F82D20A6E700BFA57F000806
S31508000AE000C003508411002000D0035010B50F2811
S31508000AF0044606D90D4840F2EF1105F09FFE212065
S31508000B0010BD07F0BDF80123094AA340C2F82034F6
S31508000B10C2F824340C22074B02FB04330024C3E931
S31508000B20014407F0A8F82046EAE700BFA57F0008B9
S31508000B3000E00350841100202DE9F0410D4690464F
S31508000B401F46044600B139B9264840F22A2105F065
S31508000B5075FE2220BDE8F081017871B1012938D0EF
S31508000B6002290AD0032934D0FF290CD01D4840F2A7
S31508000B702F2105F063FE2120ECE740F2FF3362786F
S31508000B80D340DA07F2D507F07BF823780646FF2B21
S31508000B9005D042462046296803F086FD28602A6863
S31508000BA0531C19D00C23104903FB0211069BC1F8EC
S31508000BB0B870C1F8BC302378FF2B05D0012310325A
S31508000BC093400A4AC2F82434304607F054F8002005
S31508000BD0C0E73F236278D3E7304607F04CF82D206C
S31508000BE0B8E700BFA57F00088411002000D0035095
S31508000BF008B503F0A7FB054B00F0553020F0502050
S31508000C00C3F82004BDE80840FFF7BABD00E003506A
S31508000C1008B503F097FB054B00F0AA3020F0A0209A
S31508000C20C3F82004BDE80840FFF7AABD00E003505A
S31508000C3070B586B0044618B9AC212E4805F0FEFDFD
S31508000C402368B3F1B64F07D02B4A93424BD12B48B2
S31508000C5006F090F8012503E0294806F08BF80025F0
S31508000C60A3880122ADF80030E3880A216846ADF86A
S31508000C700430FFF7CFFD01220A2101A8FFF7CAFDBC
S31508000C800A266846FFF732FE642004F061FD6846CE
S31508000C90FFF700FE642004F05BFD013EF1D103235B
S31508000CA0184A02EB0511C1F8E834607923794F3503
S31508000CB043EA0043C1F8EC34E179A3792D0143EA0C
S31508000CC00143535140F20113ADF80830E368206838
S31508000CD00493A36802A90393237C8DF8143002F0C9
S31508000CE005FF06B070BDD121024806B0BDE87040C8
S31508000CF005F0A4BDF77F000800800650948500081B
S31508000D009885000800C0035038B5054603F032F848
S31508000D10044C012801D1013C00D138BD284602F017
S31508000D2017FFF6E7E193040013B504460A4806F0F0
S31508000D3021F8A2780421B2FA82F2237852098DF8B2
S31508000D40043063780DEB01008DF80530FFF762FD7E
S31508000D50002002B010BD00BF9C8500082DE9F04FA9
S31508000D6085B09A46554B06461B780F461546DDF85C
S31508000D703C909DF844B0DDF85080002B00F0978039
S31508000D80072A00F296800E9B002B00F09280B9F19C
S31508000D90000F00F08E80129BB3F5006F00F3898078
S31508000DA0012803D1109B002B00F08380444B03EBF2
S31508000DB005131B7B002B7ED0424C1022002168466F
S31508000DC006F09DFA04EB45141022A7BB39462046C7
S31508000DD006F095FA43F210036380BBF1000F03D1C6
S31508000DE0E37843F00303E370364A0E9B02EB451C97
S31508000DF0CCE90193129B6901581E9DF84C30C0F34B
S31508000E000A0003F003039B0643EA001E53582E48C4
S31508000E10012E00EA03004EEA0003CDF800A0535065
S31508000E2017D0B8F1000F2ED19CF8023068F30413DE
S31508000E308CF8023027E00021204606F060FA4FF4CD
S31508000E4044736380BBF1000FCED1E37843F03003DF
S31508000E50C9E713230CF1100ECCF80C309CE80F00F0
S31508000E608EE80F006FF00301DCF81C20109B61F37D
S31508000E709F02012FCCF81C20CCF8143003D1CCF8F3
S31508000E801890CCF8043000270D4A290102EB051307
S31508000E9042F80180159A28465A60694622469F609C
S31508000EA05E7303F043F8384605B0BDE8F08F07488F
S31508000EB0FAE70748F8E70748F6E700BF29160020CB
S31508000EC0EC130020EC1200200F80FFF3028000F0E4
S31508000ED0018000F0078000F038B5124B05461B78F4
S31508000EE0DBB1E0B106F0CCFE0F4A00231146147BB5
S31508000EF054B92B6001251A0101EB03131D738C509D
S31508000F0006F0B9FE204638BD0133082B02F110025F
S31508000F10EDD106F0B0FE0548F5E70548F3E70548C4
S31508000F20F1E700BF29160020EC130020048000F02A
S31508000F30028000F0018000F038B506F0A1FE00231B
S31508000F4005460B4A147B6CB90133082B02F11002D3
S31508000F50F8D102F06DFF074B28461C7006F08BFE91
S31508000F60204603E0284606F086FE034838BD00BF43
S31508000F70EC13002029160020058000F010B50D4B53
S31508000F8004461B7893B1072812D806F079FE0A4B57
S31508000F9003EB04131A7B2AB100241C7306F06BFEBC
S31508000FA0204610BD06F067FE0448FAE70448F8E74D
S31508000FB00448F6E729160020EC130020068000F006
S31508000FC0028000F0018000F013B5154B1868002365
S31508000FD001908DF8043006F053FE124B1C7824B1AC
S31508000FE006F049FE104802B010BD01221A7006F03C
S31508000FF042FE0E4B01A81C731C7783F82C4083F81D
S315080010003C4083F84C4083F85C4083F86C4083F896
S315080010107C4008238DF8073002F040FF2046E2E7BF
S315080010204D80000829160020038000F0EC130020EC
S31508001030F8B50D4D2D7885B1072810DC0B4D060146
S3150800104005EB0014277B67B1AB510025069BA5600D
S31508001050636002F06BFF2846F8BD0548FCE70548C3
S31508001060FAE70548F8E700BF29160020EC13002028
S31508001070028000F0018000F0078000F008B50A4AF7
S3150800108012785AB107280BD8084A02EB00131B7BC3
S3150800109043B1002102F0E2FE002008BD0448FCE747
S315080010A00448FAE70448F8E729160020EC1300205C
S315080010B0028000F0018000F0078000F008B50A4AB7
S315080010C012785AB107280BD8084A02EB00131B7B83
S315080010D043B1012102F0C2FE002008BD0448FCE726
S315080010E00448FAE70448F8E729160020EC1300201C
S315080010F0028000F0018000F0078000F02DE9F04141
S31508001100174B1F6D5B6D1F4000D5FEE701260025B6
S31508001110144CDFF85880374218D02368C8F8506056
S31508001120A3B1A168284601316268A1609847637B2C
S31508001130012B0BD150B90C4B03EB45131A7B60F30B
S3150800114041021A731A7F60F341021A770135082D96
S315080011504FEA460604F11004DDD1BDE8F08100BF70
S3150800116000000450EC130020EC120020002004506C
S31508001170F0B58FB0B24A0B68054693420C4606AFE7
S3150800118003D0B04A934240F0C380BC46AE4E0597A2
S315080011900FCEACE80F0096E80F0010368CE80F006B
S315080011A00FCE0DF1040CACE80F00002D00F0748191
S315080011B0002684220021284606F0A1F82268A04BC2
S315080011C0AE659A4206D09F4B9A4200F093809F489C
S315080011D00FB0F0BD4FF470219D4F9E480123A446E1
S315080011E085F85C302F652F1DC5E90B012A60BCE820
S315080011F00F000FC79CE80F0087E80F00637E012BDE
S3150800120008BF8DF81D30A37E33B1012B78D0022B91
S3150800121002D0032BDBD10623227E8DF81230012A59
S31508001220E3686FD18C4A93428CBF04230523059A41
S31508001230537700238DF81130884B8948039305F0BE
S3150800124099FD2B6D986805F095FD2369DA1F092A23
S31508001250BDD8063B8DF81030237E2BB9E37EB3FA52
S3150800126083F35B098DF81C300121284605F0C7FB7E
S315080012700028ADD1237A217941EA0341730103F1AC
S31508001280A04202F57032C2F8AC14607A617941EA7C
S315080012900041C2F8A414A07AA17941EA0041C2F833
S315080012A0A814E37E93BBE17AE37943EA0143C2F8E3
S315080012B098341D232068C2F8943401A902F072F903
S315080012C006F0DEFC674B1A78002A40F0B58001224A
S315080012D01A7006F0D0FC04F0AFF9FFF775FE00218E
S315080012E005F12400FFF7F8FD0146002800F0CC8040
S315080012F05D486DE74FF4801101265C4F5C486DE749
S31508001300042389E700228DF8342096E71C23D1E7C9
S315080013103E46DFF870C1BCE80F000FC69CE8070020
S3150800132086E80700002D00F0B780842200212846B1
S3150800133005F0E5FF002322684E49AB658A427FF433
S3150800134046AF4D49A44629654FF480214B4885F898
S315080013505C302E1DC5E90B012A60BCE80F000FC6DC
S315080013609CE80F0086E80F00637E012B08BF8DF806
S315080013702630A37E43B1012B56D0022B57D0032B20
S315080013807FF425AF4FF44073ADF82830237E3448F8
S31508001390012B03BF00238DF825304FF4E133E368B2
S315080013A0089305F0E7FC2B6D986805F0E3FC2369C4
S315080013B01A1F0C2A3FF60BAF033B394620688DF8F7
S315080013C0243002F0E5FEA36923F47F0323F47F4368
S315080013D023B92A68936843F480339360237A207983
S315080013E0617940EA0340637AA27941EA0341A37A24
S315080013F0E67E42EA0342224BC3F83807C3F83017A1
S31508001400C3F83427B6B9E17AE27942EA0142C3F869
S3150800141024271D2201212846C3F8202705F0EFFAC4
S3150800142000287FF4D5AE4BE74FF40073ACE74FF4D2
S315080014308073A9E71C22EDE706F01DFC4DE700BF07
S315080014400000015B00000A5054800008022000F0EA
S31508001450CC85000801000F003F4B4C0040420F00AE
S315080014609C8500082A160020092000F0C08500087F
S315080014700100100000C00550A885000802000400FD
S3150800148000C003508880000805F12800FFF724FDF6
S3150800149000283FF49DAE2BE7004899E6012000F0AE
S315080014A038B141B1013AB2F5006F044838BF00209F
S315080014B07047034870470148704700BF037000F043
S315080014C0027000F030B51049104B0A782AB9C3E902
S315080014D00022C3E9022201220A700C4900220C46A6
S315080014E054F8045B854208D00132042AF8D1002258
S315080014F051F8044B1CB943F82200002030BD0132D4
S31508001500042AF5D10248F9E72B1600206C140020AE
S31508001510027000F013B500231D4A52F8044B94F8E4
S31508001520211081420ED00133042BF6D102B010BD32
S315080015300028FBD19DF80730002BF7D0A068FFF7ED
S315080015409DFDF3E794F83530022BEFD1204605F0E0
S3150800155036FB637E2076022BE8D194F8323003F00E
S31508001560FF02002BE2D1A0680DF107018DF80720D4
S3150800157006F018F8237E1BB194F83330002BD7D029
S315080015800023A06884F83330FFF798FDCEE700BF44
S315080015906C14002010B50446FFF716FD002104F16F
S315080015A00800FFF799FC014608B1044810BD04F18C
S315080015B00C00FFF791FC0028F8D0F6E70E7000F053
S315080015C010B590F83630044663B9042203685A61A8
S315080015D09A699207FCD523790C4AB9335B01102125
S315080015E0995010BD022BFCD10068836CDB074CBFF9
S315080015F00521062101F012FD237941F294425B018F
S3150800160003F1A04303F57033E9E700BF00C00350B8
S315080016102DE9F04104461746FFF742FF884606467D
S31508001620E8B9152003F0C8FA0546E26A93889BB222
S3150800163013B194F83230ABB194F83630BBB923689D
S315080016409D6915F002052CD0012384F834304744EF
S31508001650B845206849D183699B06FCD56DB33046E9
S31508001660BDE8F081002DE1D0FFF748FDDDE7022B4C
S3150800167012D123689D6C15F0020512D0012384F857
S31508001680343047444745206836D142F22002836CFD
S3150800169032EA0303FBD1E1E740F6CA111E4805F01A
S315080016A0CDF82046FFF78CFF012394F8365084F8CE
S315080016B03430002DCBD0022D1CD094F8363003B32D
S315080016C0022BCCD12068816C11F0010118BF0921C9
S315080016D001F0A4FC42F29442102123795B0103F144
S315080016E0A04303F570339950B9E718F8011B05F0C4
S315080016F011FBADE70025C4E718F8011B05F0F6FA5B
S31508001700C0E710212379054A03F239135B01D1504A
S31508001710082223685A61A2E7A480000800C0035083
S3150800172010B5044680B190F832302BB905F047FA67
S3150800173010B9A068FFF7A2FC002094F832300133F4
S31508001740DBB284F8323010BD0048FCE7027000F0C6
S3150800175010B50446A0B190F832309BB190F83230FB
S31508001760012B05D105F02BFA10B9A068FFF7A6FCE6
S31508001770002094F83230013BDBB284F8323010BDD9
S315080017800148FCE70148FAE7027000F0057000F02E
S3150800179030B585B00025437F04468DF8083090F8AB
S315080017A0213004228DF80930039303A9064B0095CE
S315080017B002A8FFF72BF94FF4007320462383A5767A
S315080017C005F016FA05B030BD151500082DE9F041EB
S315080017D08EB004466A4F06AE0D460FCF0FC697E881
S315080017E00F0086E80F0018220021684605F087FDDD
S315080017F0002C00F0C38025B9624E30460EB0BDE815
S31508001800F08160220021204605F079FD02232F6829
S3150800181084F8363027602B7C20462371FFF752FE6A
S3150800182006460028E9D12B7F84F83530564B9F426F
S3150800183000F09680554B9F42DED14FF480135449F1
S31508001840544AC4E904230023616284F83130D5E997
S31508001850091284F83030A1624F480B804B808B8088
S3150800186084F83030E26213805380938084F83130F4
S3150800187084F8333005F07EFA636ADFF82C819868BD
S3150800188005F078FA10212B7C08EB4312C2F8941461
S315080018902E7BA87B253346EA0041C2F8AC14697B47
S315080018A0EA7B08EB431341EA02475F60E676E07796
S315080018B0217784F820206B7F01216377AB7F204650
S315080018C084F82130EB7FA37795F8203084F822300E
S315080018D005F00AF9064600288FD1AB680226089358
S315080018E06B8A8DF82560ADF82830AB8ACDF834D0F0
S315080018F0ADF82630AB7D8DF82430AB690B93012308
S31508001900ADF8063006F0BCF92A7F0746032A2CD123
S3150800191041F294412B7C08EB43135E5095F8200066
S31508001920E97F41EA004103F5A5500160A87F697F78
S3150800193041EA004141F29C4019508DF800200623E7
S315080019408DF818302B79286806A9A3B101F0CEFDC9
S315080019502046FFF71FFE0646384606F08CF94CE788
S315080019604FF470230D490E4A6BE7022AE7D1204649
S31508001970FFF70EFFE3E701F08BFDE9E7094E3CE7C9
S3150800198014810008037000F00000015B00000A5093
S31508001990C0850008010010009C850008CC85000859
S315080019A001000F00027000F000C00350044BD3F88A
S315080019B08420D206FBD4D3F88400C0F38110704784
S315080019C00040005038B5104B0546D3F800310C4698
S315080019D003F00303022B0BD0032B0DD0012B0FD1E1
S315080019E005F03AFD032305B1286004B1236038BD2C
S315080019F005F084FD0923F6E705F034FD0823F2E730
S31508001A0001230020EFE700BF0080005038B5104BD7
S31508001A100546D3F840310C4603F00303022B0BD0DE
S31508001A20032B0DD0012B0FD106F016F90A2305B1A9
S31508001A30286004B1236038BD05F060FD0923F6E788
S31508001A4006F00DF90C23F2E701230020EFE700BFAB
S31508001A500080005038B5104B0546D3F860310C4667
S31508001A6003F00303022B0BD0032B0DD0012B0FD150
S31508001A7006F0F2F80A2305B1286004B1236038BDE0
S31508001A8005F03CFD0923F6E706F0E9F80C23F2E732
S31508001A9001230020EFE700BF0080005038B5104B47
S31508001AA00546D3F840320C4603F00303022B0BD04D
S31508001AB0032B0DD0012B0FD106F0CEF80A2305B162
S31508001AC0286004B1236038BD05F018FD0923F6E740
S31508001AD006F0C5F80C23F2E701230020EFE700BF64
S31508001AE00080005038B5124B0546D3F880300C46B6
S31508001AF003F00303022B0BD0032B0DD0012B0FD1C0
S31508001B0005F070FC0E2305B1286004B1236038BDCA
S31508001B1005F0ACFC0723F6E705F05EFC0623F2E7C2
S31508001B20044841F2142104F089FE00231846EAE726
S31508001B30008000503481000838B51A4B0546D3F8A2
S31508001B4020010C4600F00700062821D8DFE800F03F
S31508001B5028040C1410181C0005F03EFC052305B1DA
S31508001B60286004B1236038BD05F076FC0323F6E748
S31508001B7005F07CFC0723F2E705F06AFC0223EEE792
S31508001B8005F02AFC0623EAE705F066FC0423E6E7E7
S31508001B90054841F2912104F051FE00231846DEE77C
S31508001BA00123DCE7008000503481000838B5194B62
S31508001BB00546D3F828310C4603F00703013B052BED
S31508001BC020D8DFE803F003131B0F0B1705F004FCFE
S31508001BD0052305B1286004B1236038BD05F0FCFB78
S31508001BE00623F6E705F042FC0723F2E705F034FC86
S31508001BF00323EEE705F030FC0423EAE705F028FCAA
S31508001C000223E6E7044841F2990104F017FE00238F
S31508001C101846DEE7008000503481000837B50023F7
S31508001C200193194B0546D3F820320C4603F00703F7
S31508001C30042B1FD8DFE803F025030F141900002131
S31508001C4001A8FFF7B3FF12230DB1019A2A6004B168
S31508001C50236003B030BD05F009FC07230190F3E7C4
S31508001C6005F0FAFF0A230190EEE705F047FC092381
S31508001C700190E9E741F25601044804F0DFFD00232C
S31508001C80E2E70123E0E700BF008000503481000846
S31508001C90F7B50027144B0197D3F88041064604F0A0
S31508001CA00304022C0D4614D0032C0DD0012C14D19C
S31508001CB0394601A8FFF740FF10240EB1019B336097
S31508001CC005B12C6003B0F0BD05F0D0FB07240190E8
S31508001CD0F3E705F0BDFB0190EFE741F2E631034873
S31508001CE004F0ACFD3C46E8E700800050348100086B
S31508001CF038B5164B0546D3F800020C4600F0070027
S31508001D00042819D8DFE800F020030B0F130005F0AC
S31508001D10A3FF0A2305B1286004B1236038BD05F086
S31508001D20EDFB0923F6E705F09AFF0C23F2E705F029
S31508001D3079FB0F23800AEDE7054841F2A44104F038
S31508001D407DFD00231846E5E70123E3E70080005000
S31508001D503481000838B5164B0546D3F808020C46F8
S31508001D6000F00700042819D8DFE800F020030B0F5D
S31508001D70130005F071FF0A2305B1286004B123603A
S31508001D8038BD05F0BBFB0923F6E705F068FF0C2311
S31508001D90F2E705F047FB0F23800AEDE7054841F215
S31508001DA0DC4104F04BFD00231846E5E70123E3E791
S31508001DB0008000503481000837B500230193184B82
S31508001DC00546D3F860320C4603F00703013B032BA4
S31508001DD01FD8DFE803F0020E1914002101A8FFF747
S31508001DE0ABFE10230DB1019A2A6004B1236003B03B
S31508001DF030BD002101A8FFF709FE1123F2E705F01F
S31508001E0035FB07230190EDE705F022FB022301903D
S31508001E10E8E741F2FD01034804F010FD0023E1E77D
S31508001E20008000503481000837B500230193184B11
S31508001E300546D3F894320C4603F00703013B032BFF
S31508001E401FD8DFE803F0020E1914002101A8FFF7D6
S31508001E5073FE10230DB1019A2A6004B1236003B002
S31508001E6030BD002101A8FFF7D1FD1123F2E705F0E7
S31508001E70FDFA07230190EDE705F0EAFA022301903F
S31508001E80E8E741F23011034804F0D8FC0023E1E703
S31508001E90008000503481000873B500240F4B01946C
S31508001EA0D3F87032064603F00303012B0D4607D01C
S31508001EB0022B11D041F25B11094804F0BFFC04E083
S31508001EC0214601A8FFF7A2FD11240EB1019B33603C
S31508001ED005B12C6002B070BD1524F6E700800050ED
S31508001EE03481000808B5334B98424FD027D8324B77
S31508001EF0984245D017D8314B98423ED00AD838B1C7
S31508001F002F4B984239D041F2BB312E4804F096FC4B
S31508001F10002034E02C4B98422FD02C4B9842F2D11B
S31508001F202B4B586E2BE02B4B98422CD003F53713CE
S31508001F3003F5D8639842E6D1254B986F1FE0264BE8
S31508001F4098422FD00CD8254B984223D0244B984240
S31508001F5024D0244B9842D6D11D4BD3F884000EE0EA
S31508001F60214B984222D003F5740303F51053984287
S31508001F70C9D1174BD3F8980001E0154B986D08BDE9
S31508001F80134B186FFBE7124B586FF8E7104BD3F853
S31508001F908000F4E70E4BD3F88800F0E70C4BD3F833
S31508001FA08C00ECE70A4BD3F89000E8E7084BD3F827
S31508001FB09400E4E780BA8C01405DC60080841E0068
S31508001FC040420F003481000800093D00C0CF6A0076
S31508001FD00080E00F0024F400007E560380D54302FB
S31508001FE0006CDC020048E8010090D00310B5B0F59B
S31508001FF0207F2ED009D8B0F5007F24D003D868B149
S31508002000B0F5C07F0AD000241BE0B0F5607FFAD196
S31508002010124BD3F88040C4F3011412E00F4B1C6F27
S31508002020230B13F00E0FC4F303340AD0072C08D081
S315080020300F2C06D0032C04D04FF42271084804F064
S31508002040FDFB601C10BD054BD3F89040C4F3046437
S31508002050F7E7024B1C6FC4F38024F2E700800050B8
S315080020603481000838B54FF48032104B04469A661E
S3150800207000200D46FFF7BAFF41F671320C4B60435C
S31508002080DC69DA635A6804F4803422F440125DB9D4
S315080020900849884294BF00200120000502435A607F
S315080020A00CB10022DA6338BD0349F2E7009000500C
S315080020B000000350005A6202002D310138B5430969
S315080020C004460D460ED140F235310D4804F0B6FBF4
S315080020D0002304F01F0485B103F580530122A240B2
S315080020E01A6038BD012B04D0022B04D040F24331CC
S315080020F0EBE7044BEDE7044BEBE703F50053EDE79D
S3150800210034810008648000506880005030B585B07E
S315080021100021B0F5807F0446CDE9001100F0D38098
S315080021203DD85E2833D85E2833D8DFE800F0483239
S315080021303232323232323232323232323232323271
S31508002140323232323232323232323232323248ADD0
S3150800215048ADBDBDBDBDBDADC7516EDD51ADADAD63
S315080021603232323232323232ADADAD81E7AD323251
S315080021703232323232323232323232BD484848E2B4
S315080021805151EC9066C23232323232984800802879
S315080021906AD040F2A441604804F050FB67E0B0F50D
S315080021A0D06F00F0A18035D8B0F5607F77D01AD807
S315080021B0B0F5007F5ED005D8B0F5C07FE9D105F04F
S315080021C031F953E0B0F5207F5ED0B0F5407FE0D11D
S315080021D005F028F904464FF42070FFF707FFB4FB13
S315080021E0F0F4640859E0B0F5B06F67D00AD8B0F5D6
S315080021F0806F59D0B0F5A06FCBD100216846FFF7A4
S315080022000DFD34E0B0F5C06FC3D100216846FFF775
S31508002210FDFB2CE0B0F5106F6BD00ED8B0F5086F4B
S3150800222076D0B6D8B0F5E06F68D0B0F5F06FB0D11B
S3150800223000216846FFF70EFC19E0B0F5406F38D06C
S315080022400AD8B0F5206F5ED0B0F5286FA1D100216D
S315080022506846FFF721FE0AE0B0F5486F99D10021DC
S315080022606846FFF7E1FD02E005F0BCF8009000982B
S3150800227005B030BD05F0B6F805462046FFF7B6FEB0
S31508002280B5FBF0F50095F2E705F0CCF804464FF4F7
S315080022902070FFF7ABFEB4FBF0F40094E7E701A863
S315080022A0FFF720FC019DE8E700216846FFF744FC9C
S315080022B0DDE700216846FFF779FCD8E70021684684
S315080022C0FFF7E6FCD3E74FF0E02302911B695B07B3
S315080022D005D505F0A7F80290029B0093C7E703A966
S315080022E002A8FFF793FBF7E700216846FFF700FD12
S315080022F0BDE700216846FFF72DFDB8E700216846CF
S31508002300FFF7CCFBB3E700216846FFF755FDAEE7BC
S315080023106846FFF757FBAAE73481000808B580200E
S31508002320FFF7F4FE034B98429EBF4FF48032024BF0
S315080023301A6708BD005A620200A000501FB503467E
S315080023400020B3F5807F019000F0C58063D85D2B2F
S3150800235054D84C2B06D82D2B46D8232B2AD840F2F6
S315080023608951A7E04D3B102BF9D801A252F823F06A
S31508002370CD2400085F2300085F2300085F230008B8
S31508002380772400085F2300085F2300082725000834
S31508002390952400083B2400081D2500085F23000833
S315080023A05F2300085F2300085F2300085F230008F7
S315080023B031250008243B092BD1D801A252F823F075
S315080023C0CD240008CD240008CD240008CD2400081B
S315080023D0CD2400085F230008BD2400085F230008F9
S315080023E057240008032500083D2B00F085803E2B66
S315080023F0B5D1002001A9FFF751FB63E0802BAED1D0
S315080024004E4B1B6F03F00703013B032B50D8DFE845
S3150800241003F04D46494BB3F5F06F6DD020D8B3F5B0
S31508002420B06F4BD00ED8B3F5607F73D097D3B3F5A2
S31508002430806F4BD0B3F5A06F91D1002001A9FFF7AB
S31508002440EDFB3FE0B3F5D06F5BD0B3F5E06FD0D0CE
S31508002450B3F5C06F83D1002001A9FFF7D7FA31E0A1
S31508002460B3F5206F5FD00BD8B3F5086F4ED0B3F530
S31508002470106F7FF474AF002001A9FFF76BFC21E011
S31508002480B3F5406F4AD0B3F5486F51D0B3F5286F0E
S315080024907FF465AF002001A9FFF7FEFC12E00523D3
S315080024A001930FE00323FBE70823F9E70223F7E785
S315080024B040F2D641224804F0C1F903E0002001A900
S315080024C0FFF7E6FB019805B05DF804FB002001A9BB
S315080024D0FFF732FBF6E74FF0E02302901B695B0734
S315080024E005D504F09FFF0D230393039BD8E703A9A3
S315080024F002A8FFF78BFAF8E7002001A9FFF7AAFA66
S31508002500E0E7002001A9FFF7F3FBDBE701A9FFF7E6
S3150800251059FAD7E701A9FFF7E5FAD3E7002001A999
S31508002520FFF744FBCEE7002001A9FFF745FCC9E702
S31508002530002001A9FFF778FCC4E700BF008000501F
S31508002540348100084FF48032074B0849586E03F56A
S3150800255080535A664B6A23F001034B62C3035CBF80
S31508002560034B5A66704700BF0080005000C00750F2
S3150800257000A0005038B5036804460F2B04D940F66E
S315080025808A317C4804F05AF963680F2B04D940F65F
S315080025908D31784804F052F9A3680F2B04D94FF40B
S315080025A03961744804F04AF9237B0F2B04D940F6A5
S315080025B09331704804F042F9637B0F2B04D940F637
S315080025C096316C4804F03AF9A37B3F2B04D940F6C0
S315080025D09931684804F032F9E37B3F2B04D940F679
S315080025E09C31644804F02AF92369032B04D940F680
S315080025F09F31604804F022F96369032B04D940F639
S31508002600A2315C4804F01AF9E369032B04D940F6B1
S31508002610A531584804F012F98020FFF78FFE0328E9
S3150800262000F083804FF48012534B4FF0A0615A6636
S3150800263045F60E02514BC3F88020514A91624FF479
S31508002640803102F5805291629A6DD203FCD4996D5D
S3150800265011F08041FBD1D4E90002120542EA00627A
S31508002660E07B0243207B42EA0042607B42EA00327A
S31508002670A07B42EA80121A619869D4E904521206CC
S3150800268042EA856200F000400243A07EE57E0243EE
S31508002690207E42EA0042607E42EA00229A611A6A75
S315080026A0E06922F00F0242EA8502364D00283DD144
S315080026B01A6294F82420996A94F82000D2002940D6
S315080026C042EA40120A4394F8211042EA011242F4FF
S315080026D080329A622C49294A936D31EA0303FBD169
S315080026E04FF08071264881621369A56823F4700348
S315080026F043EA055313614FF00043836194F822308F
S315080027000BB9224B996294F823303BB94FF48032C7
S315080027101E4B9A62194A936D5B00FCD494F82530D7
S315080027201BB1164B1A4AC3F8802038BD024342F043
S31508002730080202281A6208D119614FF408529961F1
S3150800274014484FF47F4104F08FFA0C4994F822306C
S315080027508A6A94F820001B062A4043EA401313436A
S3150800276094F8242043EAC20394F8232043EA024358
S315080027708B62D3E734810008009000500040005A6D
S315080027800050005AC7FFFEFE030001000060005A11
S31508002790F1A7FFFF3440005A014B93F90000704738
S315080027A04318002010B543680446072B04D940F6A1
S315080027B0E6512A4804F042F8A368032B04D940F6E8
S315080027C0E851264804F03AF82378032B04D940F652
S315080027D0EA51224804F032F894F90130002B04DA61
S315080027E040F6EC511D4804F029F84FF400011C4A44
S315080027F0637851664FF4D151022002F5B83251621E
S3150800280018494F2B48604FF0010028BF4F2301F5A8
S31508002810805148601169C903FCD4217843EA012331
S315080028205361D4E901131B0143EA0123617B0B437E
S31508002830217B43EA41039360E37BA17B1B0143EAC7
S315080028404113617C0B43217C43EA41035360A37C1B
S3150800285013B16FF4D153536210BD00BF3481000821
S315080028600090005000100250014B1880704700BFBE
S315080028703E180020014B1880704700BF3C18002006
S3150800288008B54FF48002184B5A660223174A53605C
S31508002890936813F48033FBD1012822D104F0DCFDC0
S315080028A0134B984215D003F5122303F5F8639842A3
S315080028B013D0104B00EB8002400AB3FBF0F3520A28
S315080028C00A49CA620B6301234B620022074B5A600E
S315080028D008BD45F67A13084AF2E745F61A03074A89
S315080028E0EEE75362F1E700BF009000500040025047
S315080028F000F0490264666666D8B80500BBCF0500D5
S3150800290038B5B0F5207F77D00ED8B0F5007F61D006
S3150800291003D890B3B0F5C07F2FD04FF44671BDE809
S3150800292038403D4803F08ABFB0F5607FF5D13B4A91
S315080029304C1ED2F8FC5015F080751EBFD2F8FC303C
S3150800294023F08073C2F8FC30032C04D940F2F72137
S31508002950314803F073FF324AD2F8803023F030034F
S3150800296043EA0413C2F8803035B12C4AD2F8FC3059
S3150800297043F08073C2F8FC3038BD4C1E012C0AD9CE
S31508002980102903D8274BCB40DB0704D440F2CB21D0
S31508002990214803F053FF04F076F904F082F94FF466
S315080029A08031214B1E4A1967136F23F4704343EA9B
S315080029B00433136704F036FD0446FEF7F7FFC0F14B
S315080029C00201204604F067F900F048F8BDE83840EF
S315080029D0FFF7A4BC4C1E1F2C04D94FF443710E48B4
S315080029E003F02CFF0E4AD2F8903023F0F85343EA4E
S315080029F00463C2F89030BFE74C1E012C04D940F29C
S31508002A001231054803F01AFF054A136F23F4806351
S31508002A1043EA84231367AFE73481000800ED00E03A
S31508002A2000800050100101000090005008B50121F7
S31508002A30022000F099F94FF42070FFF7D7FA054BFA
S31508002A40187004F020F904F02CF94FF48032024B88
S31508002A501A6708BD2C1600200090005008B54FF4E0
S31508002A60C070FFF753FBBDE808400449884294BF8D
S31508002A70012102214FF42070FFF742BF80F0FA02CD
S31508002A8038B5044604F0CEFC0546FEF78FFFC0F1C4
S31508002A900201284604F0FFF80121002000F0B8F9E9
S31508002AA02CB1FFF7DBFFBDE83840FFF737BC034B17
S31508002AB04FF420701978FFF723FFF4E72C1600204F
S31508002AC02DE9F0410546FFF70DFA431E0333044688
S31508002AD004D940F6E2113B4803F0B0FE4FF4C02299
S31508002AE0394B5A6603F598335A68012A04D137498F
S31508002AF04A605A689207FCD48020FFF71FFC052815
S31508002B0007D104F0C0F804F0CCF84FF480322E4B0D
S31508002B101A672F4B24F040749D4239D02D4B9D42A5
S31508002B2039D004F059FC8542064603D901212846C6
S31508002B3000F06EF9284FFB6813F0060FFBD1D7F8A3
S31508002B400880BC60BB68634013F4F81F26D128468A
S31508002B50FDF730FD8020FFF7F1FB052814D104F0BE
S31508002B6061FCA842044604D940F63B21154803F007
S31508002B7065FEFEF71BFFC0F10201204604F08BF844
S31508002B80FFF76CFFFFF7CAFBAE4213D2BDE8F08130
S31508002B9044F00074C5E744F08074C2E740F62A2181
S31508002BA0084803F04BFE8020C7F80880FFF7C6FBED
S31508002BB0052805D0BDE8F0410121002000F028B91C
S31508002BC03546CCE7348100080090005000E00150FB
S31508002BD040420F0080841E000000015070B54E4B25
S31508002BE00546984273D041D8A3F5B703A3F55863B1
S31508002BF0984265D033D8494B494E984251D017D898
S31508002C00002877D041F2DE11464803F017FE40F659
S31508002C108671444803F012FE4FF40022404B5A6670
S31508002C203E4B9D4276D000243F4A954236D05DE021
S31508002C303D4B984227D03D4B9842E3D13C4BD3F8C5
S31508002C40A040621E033224F040744CD940F68671C7
S31508002C50344803F0F3FD4FF400237366E4E7354B7D
S31508002C609842CFD1324BD3F8BC402CE0324B984235
S31508002C7031D0324B984232D0314B9842C2D12C4B8C
S31508002C80D3F8C8401FE02A4BD3F8A040621E03328F
S31508002C9024F04074DAD84FF40023736644F0807445
S31508002CA024E0234BD3F8A040621E033224F040747C
S31508002CB02AD84FF400237366234643F0007415E0C0
S31508002CC01B4BD3F8B840621E154E0332BBE7184BB0
S31508002CD0D3F8C040F7E7164BD3F8CC40F3E7144BCC
S31508002CE0D3F8D040EFE74FF4002373664FF0B442B1
S31508002CF0946070BD40F686710A4803F09FFD4FF454
S31508002D0000232C467366F1E740F68671054803F002
S31508002D1095FDCEE70023D0E7C0EA210140420F0027
S31508002D20009000503481000880841E0000093D0090
S31508002D300080E00F0024F4000048E801005A62020F
S31508002D4080BA8C01024A536B0342FCD1704700BF1C
S31508002D5000400950034A0179D36E23F030030B4330
S31508002D60D366704700400050F8B50446244BD3F8A4
S31508002D708420D006FBD4D3F88430C3F381139C4255
S31508002D803CD004F02FFB012C05460BD11D4B984275
S31508002D9004D94FF4F7611C4803F050FD0121284679
S31508002DA003F079FF04F063FF4FF00072174B0746F4
S31508002DB05A66204603F07AFF4FF48063104E621E6F
S31508002DC093403367736E9A0103D4D6F884309B0612
S31508002DD00AD5384604F046FF022C0FD12846BDE82E
S31508002DE0F840002103F057BFD6F884309906E9D594
S31508002DF040F2C671044803F021FDE3E7F8BD00BFC1
S31508002E0000400050005A62027F81000800600050AE
S31508002E1010B50C4608B904F0E5FA074B21461B78AD
S31508002E203BB1064B984204D80120BDE81040FFF795
S31508002E309BBF0220F9E700BF2D160020005A620248
S31508002E4038B54FF00042244B244C5A664AF6CD3327
S31508002E50656C014605F00105236428BB0120FFF7D0
S31508002E6071FF6368DB0715D51D4B586008461D4B77
S31508002E70226BD2070CD4984208D1072415B1174BF8
S31508002E80194A1A6403F013FF204638BD0130EFE7EC
S31508002E909842F2D00024F1E70132236B13F00803BD
S31508002EA005D08A42F8D1E8E700220E49F5E78A42BA
S31508002EB0E3D020210A4A91620121A2F5805251608D
S31508002EC00649084A886A800603D49342D5D0013356
S31508002ED0F8E79342DDE700BF009000500040095034
S31508002EE00060095040420F003254FFFF38B54FF0DA
S31508002EF00042164B01465A664AF6CD33144C154A1B
S31508002F00656C236443780B205B0043F00103D363AD
S31508002F10FFF718FF63688A7823F4F87343EA021305
S31508002F206360CA784B7943EA0223A3600A798B79EE
S31508002F3043EA022323610878FFF782FFEB0744BFC1
S31508002F40054B236403F0B3FE012038BD0090005002
S31508002F5000400950004000503254FFFF70B50F285A
S31508002F60044605D940F67B61124803F067FC0F2436
S31508002F704FF00042104B11495D6E03F580535A66B7
S31508002F804AF6CD334E6C80200B64FFF7DBFE0B6AE6
S31508002F9023F00F0323430B62F30744BF084B0B646C
S31508002FA0002DA2BF4FF00042064B5A6603F07FFE83
S31508002FB070BD00BF7F8100080080005000400950A6
S31508002FC03254FFFF00A0005010B503F075FE04232D
S31508002FD000F5805100F500520B6113610B61136116
S31508002FE00B6113610B611361202341F20201036136
S31508002FF00023C360836041614FF4A0218361836528
S3150800300041620549C36103628362C3624363036520
S31508003010D164036310BD00BFFF3F0D0338B5174BDE
S31508003020044698420D4607D0154B984204D040F204
S315080030306911144803F002FC25B92046BDE838405A
S3150800304003F03ABE012204F580535A6040F6FF7138
S31508003050204605F00F0203F02BFEA263782103F049
S3150800306027FE05F001036A0748BF43F00203A26C76
S3150800307002F003029A42FAD138BD00BF0000015B94
S3150800308000000A50CA810008F8B505460C461646DF
S3150800309022B940F227216B4803F0D0FB6A4B9D42C8
S315080030A002D19CB956240DE0684B9D4247D040F2A8
S315080030B02A21644803F0C2FB44B940F279316148D9
S315080030C003F0BCFB2046FFF721F80446AB68D80797
S315080030D045D5B44204D24FF40D715A4803F0AEFBFD
S315080030E0B4FBF6F46F68013CFF2C07F0010704D91E
S315080030F04FF40F71534803F0A1FB24064FB3282160
S31508003100284603F0D5FDAB6C99071CD1AB6CDA07E2
S315080031101BD4AE6C16F0020619D140F24921494873
S3150800312003F08CFB284603F0C7FD2B69314623F0D4
S315080031307F4323432B61BDE8F840FFF76FBF002CA0
S31508003140C4D15724BEE70526ECE70926EAE7062692
S31508003150E8E72B6923F07F4323432B61F8BD6B68AF
S31508003160012B04D04FF41771364803F067FBAB6D9B
S31508003170DB07AB6848BF760003F0E003402B42D07C
S3150800318009D893B1202B1AD040F29E21BDE8F84009
S315080031902C4803F053BB602B42D0802BF4D106EBAE
S315080031A04603A34247D801230DE0B6EB141F04D902
S315080031B04FF42171234803F041FB102303E0B6EBDB
S315080031C0D40F1AD8082373436401B4FBF3F4204FD1
S315080031D0203CB7EBC40F4FEAC40604D240F2A9213B
S315080031E0184803F02BFB28463E40012103F060FDFA
S315080031F02E63BDE8F84003F05BBD40F28921114813
S3150800320003F01CFBDEE70623B4FBF3F3B34201D35A
S315080032100623D8E740F28E210A4803F00FFBF7E7AA
S31508003220B6EB940F01D80423CDE740F29321054865
S3150800323003F004FBF7E74FF42671024803F0FEFAA1
S31508003240B1E700BFCA8100080000015B00000A5010
S31508003250F8FF7F002DE9F0419846436804460E467C
S3150800326017461BB140F6FF7103F022FD2046FFF713
S31508003270ABFEF189737B62690B43318A22F44C52A7
S315080032800B4322F00F0213436361A168337E327B3E
S3150800329021F0804121F0E2011A430A4371690A4389
S315080032A0A260B2681AB9A26842F00042A260F06948
S315080032B0002874D0857A027A6D04A16845EA825599
S315080032C06C4A0A401543828802F4C0421543427884
S315080032D045EA8205427B45EAC205827B45EA021534
S315080032E0827845EA8225A560D0E90421E5680A4383
S315080032F0614929400A43817942EA8122C17942EA31
S315080033004122E26002785D49012A14D1E26842F05E
S315080033100402E2608C4200F09180594A94420CBF44
S3150800332001224FF0FF32520102F1A04242F29441CB
S3150800333002F5703214E0032A7AD1E26842F00402F8
S31508003340E2608C4278D04E4A94420CBF01224FF07C
S31508003350FF3241F29441520102F1A04202F5703265
S3150800336002255550427A04F580518A621AB1E268FC
S3150800337042F40062E260C27A5AB1E26842F400425C
S31508003380E2603E4A94425BD1027B3E4902F00F025C
S315080033904A67626AC17B22F003020A4362623FB14E
S315080033A097F8202004F58050002A53D001220262A3
S315080033B0B8F1000F27D004F5805113B14FF400433C
S315080033C08B652E4BB8F822009C4298F821304ED0D7
S315080033D02B4A94420DD10122112B34BF0127022713
S315080033E0294DB0F5006FAF5494BF01270227274D2A
S315080033F0AF54A26D034322F4F95222F01E0213437E
S31508003400A36501238B6505212046FFF707FEB268F1
S315080034101AB120467168FFF737FE20463178FFF764
S31508003420FDFDA36CDB4313F4405FFAD1BDE8F081E0
S31508003430023A012A85D96DE700228AE7002272E757
S315080034400F4A944201BF027B0E4902F00F02C1F8EF
S3150800345080209EE7E16997F8222097F8215021F00D
S3150800346009012A430A4342F00102C261A0E7002289
S31508003470B2E700BFE39BBDFFFFF9F0870000015BE1
S3150800348000000A5000900350301600202E16002027
S3150800349070B5134B054698420C4606D0114B984218
S315080034A003D07021104803F0C9F91CB972210E48DF
S315080034B003F0C4F9237B802B03D176210A4803F055
S315080034C0BDF9637B032B03D97921074803F0B6F9C5
S315080034D0002321462846BDE870401A46FFF7BABEC3
S315080034E00000015B00000A50CA81000870B52B4B2A
S315080034F0054698420C4643D119B98C21284803F051
S315080035009DF95620FEF71AFF0C2807D0A0F10903EB
S31508003510012B03D9A0F11103012B3AD8637B032BA6
S3150800352003D9AD211E4803F089F9237B802B03D0EC
S31508003530AF211B4803F082F96369B3F1804F03D0CA
S31508003540B121174803F07AF9238A23F400539BB272
S31508003550B3F5805F03D0B321114803F06FF9A36870
S31508003560013BB3F5165F03D3B5210D4803F066F9A1
S31508003570002321462846BDE870401A46FFF76ABE72
S315080035808A21074803F05AF91CB98C21044803F02C
S3150800359055F99E21024803F051F9BFE70000015B87
S315080035A0CA810008F8B57B4B044698420E4606D0F9
S315080035B0794B984203D0E221784803F03FF91EB9C7
S315080035C0E421764803F03AF9727BB3687AB1744A13
S315080035D0934203D9E621714803F030F93369C3B140
S315080035E0DB7BB3B1E9216D4803F028F911E06D4A98
S315080035F0934203D9EC21694803F020F9336943B1B2
S315080036001A7F32B1B168684A5B7F914278D9042B38
S3150800361078D86368356923B140F6FF71204603F010
S3150800362047FB2046FFF7D0FC2269737BB17B22F06B
S3150800363087020B43134343F080032361002D63D0B5
S315080036402369297F23F0F80343EAC1132978EA7B23
S315080036500B43297943EA4113697A43EA011343EA9A
S3150800366082132361E068D5E9053720F0F0403B4333
S3150800367020F470200343287B697B43EA802343EACE
S31508003680C133E360A368F07B23F00303034343F0ED
S315080036900103A3606B88A06803F4C0430343A360D7
S315080036A0A368687943EA8023A360AB79EF79606AF7
S315080036B01B013F0203F0700307F4E06720F477204C
S315080036C020F4EE603B430343287A000300F4E0400D
S315080036D00343687F000400F4702003436362636950
S315080036E0307B23F00F03034363616B89A36181BBBE
S315080036F0C2B1284B9C4236D0274B9C4244D011E09D
S31508003700042B86D8F3216EE7A368F27B23F0030324
S31508003710134343F00103A3606369327B23F00F036D
S3150800372013436361D6E901122046FFF7ADFC052174
S315080037302046FFF773FC2821204603F0B9FA3378B0
S31508003740A36303F0B5FAA36CDB4313F4405FFAD125
S31508003750F8BD104B9C420CD1AB7B144903F00F0308
S315080037604B67002ADED02B7C104A03F00F03136741
S31508003770D8E7094B9C42D5D1AB7B0C4903F00F0324
S31508003780C1F88030002ACDD02B7C084A03F00F03FD
S31508003790D367C7E70000015B00000A50CA8100082A
S315080037A0002D3101809698003F4B4C000090035045
S315080037B02DE9F843364B064698421CD0354B9842BD
S315080037C01BD04FF43071344803F038F8324840F2D1
S315080037D0793103F033F80020FEF798FCB468074601
S315080037E014F001040BD03469240E0134B0FBF4F450
S315080037F02046BDE8F8835620EEE75720ECE7D6F8D2
S315080038003090DFF89880B568C14505F0E00504D921
S3150800381040F2EB41204803F011F8402D09EA080967
S3150800382010D007D855B3202D2CD0B36DDB0748BF71
S315080038306408DDE7602D27D0802DF6D14FF4807817
S3150800384000251DE04FF080080025032309F580793F
S3150800385003FB09F900234A463846194602F0D8F808
S31508003860554300FB08F408FB0355A2FB0801002397
S315080038704A46294402F0CCF80444D6E74FF010082B
S315080038800123E3E7A846DBE74FF04008D8E700BF87
S315080038900000015B00000A50CA810008F8FF7F009B
S315080038A038B5032804460D4605D8094B33F81030B9
S315080038B0CB40DB0704D440F28241064802F0BEFF43
S315080038C0302301225C43044BAA401A5138BD00BF7D
S315080038D0B28200081882000840D0035038B5032881
S315080038E004460D4605D8094B33F81030CB40DB07A4
S315080038F004D440F25341064802F0A0FF30230122C7
S315080039005C43044BAA401A5138BD00BFB282000876
S315080039101882000840E003502DE9F04103280446C8
S315080039200D461746984605D81D4B33F81030CB4040
S31508003930DB0704D44FF4B0711A4802F07FFF37B1A1
S3150800394029462046B8F1000F20D0FFF7A9FF0F211E
S31508003950072D04EB440688BFA5F108034FEA0616AF
S31508003960114895BFAB009B0004360C3607FA03F2E4
S315080039709940304403F0BFF97FB929462046B8F18B
S31508003980000F06D0BDE8F041FFF78ABFFFF7A6FF94
S31508003990DDE7BDE8F041FFF7A1BFBDE8F08100BF54
S315080039A0B28200086582000830C00350F8B50646A2
S315080039B00F461546002A6AD003F00304836823F4E9
S315080039C04073836004F053F9B26882EA042303F46F
S315080039D040735340B36004F045F937B9B6F1B64FB2
S315080039E00DD12E20FEF792FB0746B3689A0717D526
S315080039F0012C1BD0022C27D064B9264B17E0264B86
S31508003A009E4201D12F20EDE740F22F11234802F004
S31508003A1015FFB3684FF4B271204802F00FFF08E0B3
S31508003A20012C13D0022CE7D11D4B00E01D4B9F4201
S31508003A30F0D91D4B1B5D6B430AD140F27511BDE8E9
S31508003A40F840164802F0FABE184BF0E7184BEEE7B6
S31508003A50A3EBC504013C3C44B4FBF3F4013C0CD590
S31508003A6040F27B110D4802F0E9FE4FF4BE710B4897
S31508003A7002F0E4FEB368B461F8BDB4F5007FF4D291
S31508003A80B3689B07F7D5002C08BF0124F3E740F27B
S31508003A901511D4E780841E0000800650BA820008FB
S31508003AA0002D3101404B4C0005830008809FD5004E
S31508003AB04054890038B5B0F1B64F04460D4607D0D4
S31508003AC0084B984204D040F29511074802F0B6FE1A
S31508003AD0043425B104F580540123236038BD04F568
S31508003AE00054F9E700800650BA82000838B5B0F1EC
S31508003AF0B64F04460D4607D0124B984204D04FF4F1
S31508003B00D571114802F09AFE0023104A236404F581
S31508003B100053DA636A7804F108037AB903F5805327
S31508003B2002221A602046D5E901122B7BFFF73EFFD9
S31508003B3020462978BDE83840FFF7BCBF03F5005397
S31508003B40EEE700BF00800650BA820008FFFF1F009C
S31508003B5070B5B0F1B64F0AD0824B98421DD0824854
S31508003B6040F2012102F06AFE6FF0030070BD7F4B40
S31508003B709968C26B12F4C06F15D091050FD5FD2256
S31508003B805A7009221A700022026493F90110012959
S31508003B9000D15A7093F90100E8E7754BE8E7560536
S31508003BA0EFD5FE22ECE71C78082C00F2D680DFE879
S31508003BB014F009001F004500530070007E009C00A9
S31508003BC0A700CB004C880A88E5060AD5120A02F037
S31508003BD0060242F0F002012119704263C160012019
S31508003BE0C4E702F0FE02A10748BF42F00102F2E76D
S31508003BF0160608D5802100F50052D1634FF60872E3
S31508003C001A80022318E05506E9D5402400F500522B
S31508003C10D4634A88D40604D502221A700B78436303
S31508003C20DDE796076AD507221A701B7901EBC303ED
S31508003C301B89012BD3D10823C360D0E71506D9D435
S31508003C405406CCD5402400F50052D4634A8892071E
S31508003C5054D503221A708CE74C880A88E60643BFB7
S31508003C60120A02F0060242F0F00202F0FE026507AE
S31508003C7009D51C7942F0010201EBC4010989012921
S31508003C8004BF0821C160042119700123C36042637F
S31508003C90A5E71406AED45206A1D5402400F5005275
S31508003CA0D4634A88560729D507221A7097E71A79DE
S31508003CB05D8801EBC2042689AE420FD80024013282
S31508003CC0D2B21A715C804C886507C2D4E40702D464
S31508003CD0012A7FF64EAF08221A7092E76268691CBD
S31508003CE05980525D42630622DFE7160682D45506DE
S31508003CF07FF575AF402400F50052D4630522A9E785
S31508003D0094067FF56CAF20261A7900F5005401EB6E
S31508003D10C2010A89456AE6635C88A24281BF49688E
S31508003D20661C5E800D5559888A42D4D90424012A16
S31508003D30C46004D0013A914201D10822C2601A78BF
S31508003D40092A3FF420AF4AE7D2057FF548AF4FF47A
S31508003D50807100F50052D16313E74FF609321A80D5
S31508003D6011E700BF00800650BA8200087C140020C4
S31508003D708814002038B5B0F1B64F04460D4607D171
S31508003D8021B940F26A31254802F058FD244B13E068
S31508003D90244B98420DD040F26931204802F04EFD7E
S31508003DA025B940F26A311D4802F048FD6FF003005C
S31508003DB038BD00292AD01C4B2269D00744BF2022CF
S31508003DC0E2606A88910702D529890029EED0520750
S31508003DD002D52A8A002AE9D04FF480721A60002296
S31508003DE09D601A71C023E3606369DB0514D4202241
S31508003DF004F50053DA630D4A2046DA63236C43F46C
S31508003E00FC632364BDE83840FFF7A2BE40F26A317E
S31508003E10024802F013FDCEE7636AE5E7BA820008B6
S31508003E207C1400200080065088140020FFFF1F0025
S31508003E3010B5152000F070FE0024FF22064B21461F
S31508003E405C6520209A625C60FEF738F92146BDE879
S31508003E5010402120FEF732B90000045038B5072873
S31508003E6004460D4603DD7721084802F0E7FC1F2CBF
S31508003E7003D99121064802F0E1FC064A064B002DBB
S31508003E8008BF13460122A2401A6038BD09830008FC
S31508003E9055830008401004504020045010B50446CD
S31508003EA018B991211F4802F0C9FC23781B0613F0A4
S31508003EB0604F03D092211B4802F0C0FCE3780F2B19
S31508003EC003D99521174802F0B9FC01212020FEF7F5
S31508003ED0F5F801212120FEF7F1F80122124B1520F1
S31508003EE05A60227812069A606178A27842EA0142FC
S31508003EF09A61FF229A6200229A631A644FF000427E
S31508003F005A654FF0FF3203F500531A6500F088FE34
S31508003F101520E17800F092FEBDE81040152000F06B
S31508003F2019BE00BF09830008000004502DE9F041BE
S31508003F300126C3B2072805460C46174606FA03F6B5
S31508003F4003DDDE21364802F079FC1CB9DF2134484E
S31508003F5002F074FC236823F47C1323F00F031BB1CF
S31508003F60E2212F4802F06AFCA37A1B0413F47C0FA3
S31508003F7003D0E7212A4802F061FCE37A1B0513F017
S31508003F807E6F03D0E921264802F058FC237B5B05A7
S31508003F9013F0FE5F03D0EB21214802F04FFC214BC2
S31508003FA0DFF888801E65AB00226803F1A04303F59D
S31508003FB088235A60302202FB0585637B27F00307B6
S31508003FC02B66E37AA27A1B0543EA0243227B43EA7D
S31508003FD04253EB652F6703F053FE134B5E65237A56
S31508003FE023B1D8F840303343C8F84030637A23B158
S31508003FF0D8F838303343C8F838302279A37943EAF9
S315080040000243084A93616179E37943EA0143064921
S315080040108B61064B56639E64BDE8F04103F02BBEE8
S3150800402009830008002004500010045000000450C2
S3150800403010B50124C3B2072804FA03F404DD40F2DC
S315080040407311074802F0FAFB03F01AFE054B5A6D86
S3150800405022EA04025A659C62BDE8104003F00BBED2
S31508004060098300080000045010B50124C3B20728CC
S3150800407004FA03F404DD40F291110A4802F0DEFB6B
S3150800408003F0FEFD084BDA6A224208D15B6B9C43BB
S315080040900CBF0124002403F0EEFD204610BD0024C9
S315080040A0F9E700BF098300080000045070B5012530
S315080040B0C3B20728044605FA03F504DD4FF4DC719C
S315080040C0094802F0BBFB03F0DBFD3022074B5E6BB1
S315080040D002FB04335C6E03F0CEFD35420ABFC4F31F
S315080040E00A100020013070BD098300080000045042
S315080040F070B506460C46154622B940F28E210C4884
S3150800410002F09CFB24B94FF42070FDF7FFFF04462C
S315080041106D00013CB4FBF5F4064B250213EA0423B3
S3150800412004D040F2B321024802F088FBF56170BD65
S31508004130A1830008070080FF10B5124B0446984279
S3150800414004D040F24241104802F078FB012104F500
S315080041508053596040F6AA6341F205026361002361
S315080041600A48A360E365E26004F500522361E3614F
S31508004170E36490640348A365844204BF23656365CA
S31508004180516010BD00C00550A1830008FFFF010063
S3150800419038B5294B044698420D4604D040F2693199
S315080041A0264802F04BFB2046FFF7C6FF012204F51E
S315080041B080535A602B8AA26843F001031343AA7BF3
S315080041C043EA8223A360A3682A7D43EA4273A36075
S315080041D0AB7C5BB1184B9C4202BFEA7CA3F510335B
S315080041E0C3F8C821E36D43F08003E3652B7B2046C3
S315080041F0D5E9011243F48053E360FFF779FF6B7B3F
S315080042000BB1102363616B7D1BB1A36843F4803344
S31508004210A360AB7D1BB1A36843F40043A360EB7DA9
S315080042202A7E1B07120503F0E04302F4E00213435B
S31508004230A3652B78636138BD00C00550A1830008CB
S3150800424010B5044620B94FF40371104802F0F6FA87
S315080042502378C3B1012B03D0022B14D0032B04D12E
S315080042603F236278D340DB0704D440F20D21074888
S3150800427002F0E4FA0122637821789A403023594300
S31508004280034B5A5010BD40F2FF33EAE7EE830008AD
S3150800429040E0035010B5044620B940F229211248DF
S315080042A002F0CCFA2378E3B1012B03D0022B18D005
S315080042B0032B04D13F236278D340DB0704D440F2B2
S315080042C02A21094802F0BAFA30222378534303F127
S315080042D0A04303F57033586C6378D84000F00100AA
S315080042E010BD40F2FF33E6E7EE83000810B504463A
S315080042F020B940F23A21124802F0A0FA2378E3B135
S31508004300012B03D0022B18D0032B04D13F2362784C
S31508004310D340DB0704D440F23B21094802F08EFA69
S3150800432030222378534303F1A04303F57033186C06
S315080043306378D84000F0010010BD40F2FF33E6E78D
S31508004340EE830008034BD3F82424D3F82004104046
S31508004350704700BF00C0035010B5044620B940F2AC
S31508004360EA211C4802F06AFA23782BB960780538E6
S3150800437018BF4FF0FF3010BD012B08D16378012B11
S315080043801CD0032B14BF4FF0FF300420F3E7022B99
S3150800439009D16378A3B1052B14D0072B14BF4FF0AE
S315080043A0FF300820E7E7032B0ED16378022B0ED0E7
S315080043B0052B14BF4FF0FF300A20DCE70320DAE7AD
S315080043C00620D8E70720D6E74FF0FF30D3E70920C5
S315080043D0D1E700BFEE830008064BDA6E02F0300222
S315080043E0202A06D0DA6E22F0300208B142F0100216
S315080043F0DA667047004000502DE9F041037804461C
S315080044000D46164613B3012B03D0022B1ED0032BE1
S3150800441004D13F236278D340DB0703D459212748C8
S3150800442002F00CFA264BD3F810331BB15A21234855
S3150800443002F004FA0F2D0CD8DFE805F037323232D5
S3150800444032323232323232323232323240F2FF33A2
S31508004450E0E7AE21194802F0F1F94FF000082046CE
S3150800446006B303F009F90F2167782378072F03EBC2
S31508004470430388BF083F4FEA0313124895BFBF009E
S31508004480BF0004330C3308FA07F2B940184402F0A7
S3150800449046FC85B9204656B1BDE8F04103F0ECB8B4
S315080044A0A846DCE7FFF7CCFEDDE7A846DBE7BDE874
S315080044B0F041FFF7C5BEBDE8F08100BF448400089F
S315080044C000C0035030C003502DE9F0470378064674
S315080044D00C461546002B50D0012B03D0022B4CD08E
S315080044E0032B04D13F237278D340DA0704D44FF460
S315080044F099714A4802F0A2F9022D06D9042D04D072
S3150800450040F23311454802F099F9454FD7F8103370
S3150800451023B14FF49A71414802F090F9002C2FDB31
S3150800452073786340032B04D94FF49C713B4802F01F
S3150800453085F90127072C05F005094FF0030832789D
S3150800454005F0060507FA04F726DC4FEA840A08FA96
S315080045500AF84146334802FA0AF202F0E0FB72789A
S31508004560414602F00302304802FA0AF202F0D7FB8B
S31508004570B9F1000F37D12D4B36E040F2FF33B2E7E1
S31508004580631C06D1D7F82414707802F0D7FB041EF2
S31508004590CFDA2046BDE8F087A4F1080A4FEA8A0A6E
S315080045A008FA0AF84146224802FA0AF202F0B7FB6C
S315080045B07278414602F003021E4802FA0AF202F035
S315080045C0AEFBB9F1000F14D01F2C0CDD6C211A4874
S315080045D002F034F9194BC3F8107495B96C211648D2
S315080045E002F02CF903E0154BC3F810746DB90F4BA4
S315080045F00CE01F2CBFDD6C210F4802F01FF90B4B96
S31508004600E9E76C210C4802F019F90C4BC3F814744D
S315080046100123064AA340C2F82034BAE744840008B6
S3150800462000C0035000C4035008C4035000E0035000
S3150800463004C403500CC403509984000800D00350E6
S3150800464070B5154E054630420C4604D040F283112B
S31508004650124802F0F3F8344204D04FF4C2710F48FE
S3150800466002F0ECF80E4B2C40D3F83024012022EA55
S315080046700502C3F83024D3F830241443C3F8304471
S31508004680D3F82C242A43C3F82C24FFF7A5FE054BA0
S31508004690C3F8205470BD00BFFFFF00F04484000833
S315080046A000C0035000E00350F8B5037805460F46EE
S315080046B0164613B3012B03D0022B1ED0032B04D1AD
S315080046C03F236A78D340D80704D440F29511174897
S315080046D002F0B4F8164BD3F8103323B14FF4CB716C
S315080046E0124802F0ABF82846FFF736FE791C044656
S315080046F006D1421C08D12046F8BD40F2FF33E0E758
S31508004700431CF8D0B8420ED12846032186F0010290
S31508004710FFF772FE012004F1100306FA03F1984030
S31508004720FFF78EFFE7E74FF0FF34E4E7448400081D
S3150800473000C00350054B9A689107FCD45A68920743
S31508004740F9D4DA69002AF6D1704700BF00800A500A
S3150800475008B502F0E5FF0222014B1A6108BD00BF49
S3150800476000800A5008B5FFF7E5FF0122024B03F562
S3150800477080514A601A6108BD00800A5008B5044B8A
S315080047805968012903D1FFF7E3FF024B596008BDB9
S3150800479000800A5000A00A5010B5064CFFF7CAFF61
S315080047A06368012B03D1FFF7E9FFFFF7C3FF03781F
S315080047B0E36010BD00800A50A8B94A680B78B2B900
S315080047C04A7843EA42038A6812B1127843EA8213A6
S315080047D08A7843EA8203CA6812B1127843EA422306
S315080047E0054A936470477E21044802F027B8127878
S315080047F043EAC203E4E700BF00800A50EE840008DB
S3150800480070B50D46E8B1036813F4E07F03F03F0680
S31508004810C3F3821210D0012A13D10B4C9B0603D581
S3150800482091210A4802F00AF845B104F5805401239B
S315080048300020B340236070BD054CEFE704F5005433
S31508004840F5E70E20F7E700BF68800050558300089B
S315080048506480005070B58AB0894802F08BFA064623
S31508004860002840F0E0806C46864D0FCD0FC42B68BB
S315080048702360FF238DF80130834BD3F84C21500376
S3150800488000F1F180D3F850318DF801609DF80130C0
S315080048906C46FF2B08BF252368467C4D8DF80130F2
S315080048A0FDF780FF3220FDF7DFFF0FCD0FC40FCDD8
S315080048B00FC495E8030084E80300734BD3F84C2132
S315080048C0110340F1B380A3F5FE431C88B4F5807F3D
S315080048D028BF64248DF81940FDF75EFF044484F36D
S315080048E008046B488DF81840FBF76AFE6846FDF722
S315080048F041FE3220FDF7BEFF6648FEF7E1F866483E
S31508004900FEF76CF9654C01213620FDF7D7FB002030
S31508004910FDF7B6FFFEF78AF8236F002023F007039A
S3150800492043F003032367FEF7ABF8236F23F47443BE
S3150800493023675B4BD3F8FC20D2017BD4D4F88030B4
S3150800494023F0030343F00103C4F88030D4F8803021
S31508004950C4F88030514CD4F8203123F0070343F0D3
S315080049600203C4F82031D4F8283123F0070343F0B2
S315080049700203C4F82831D4F8803123F0030343F046
S315080049800103C4F88031D4F8403123F0030343F01F
S315080049900203C4F84031D4F8603123F0030343F02E
S315080049A00203C4F86031D4F8403223F0030343F01D
S315080049B00203C4F84032D4F8003223F0070343F068
S315080049C00203C4F80032D4F8083223F0070343F090
S315080049D00203C4F80832D4F8703223F0030343F014
S315080049E00103C4F87032D4F8203223F0070343F0E9
S315080049F00103C4F82032FDF7A5FD4FF0E022136944
S31508004A0043F004031361D4F8603223F0070343F03C
S31508004A100103C4F86032D4F8943223F0070343F054
S31508004A200103C4F8943230460AB070BDD3F8504139
S31508004A30E4B24FE7D3F8FC2022F08072C3F8FC20DA
S31508004A40D4F8802022F0030242F00102C4F8802044
S31508004A50D4F88020C4F88020D3F8FC2042F0807275
S31508004A60C3F8FC2076E74FF07E6393F89C2093F911
S31508004A709C30002BFFF60AAF8DF8012006E700BF31
S31508004A8090850008488500080080E00F5C850008CE
S31508004A90C017530200B4C404C0EA210100800050C4
S31508004AA000ED00E007B5094B18689A889B790090D5
S31508004AB06846ADF804208DF80630FEF717FA0C2084
S31508004AC0FEF74CFA002003B05DF804FB8485000865
S31508004AD013B50024064A6846536F43F0010353672B
S31508004AE000948DF80440FEF735F9204602B010BD53
S31508004AF0004000500028ABBF00F16040054B00F5B0
S31508004B00614000F00F00ACBF90F80003185C000984
S31508004B10704700BF14ED00E010B54C2804460DD8C8
S31508004B2001220A49630904F01F04A240203341F810
S31508004B302320BFF34F8FBFF36F8F10BD40F21D11B7
S31508004B40034801F07BFE002CF7DBE9E700E100E013
S31508004B50D885000810B54C28044608D801236109F1
S31508004B60074A04F01F04A34042F8213010BD4FF451
S31508004B709471044801F062FE002CF7DBEEE700BFF3
S31508004B8000E100E0D885000810B54B28044604D992
S31508004B9040F23311064801F051FE064B621153F8F4
S31508004BA0220004F01F04E040C04300F0010010BDDD
S31508004BB0D885000800E100E010B500F10C03572B7A
S31508004BC0044604D940F24311134801F037FEEFF3C7
S31508004BD01083DB0702D50122104610BD2046FFF7D9
S31508004BE0D3FF02460028F6D12046FFF783FF014689
S31508004BF0EFF3118313B1B0EB131FECD2074B5868D0
S31508004C00C0F308000028E7D01038FFF773FF884282
S31508004C108CBF00220122DFE7D885000800ED00E0FE
S31508004C20002808DB01224309034900F01F008240DF
S31508004C30603341F82320704700E100E038B500F101
S31508004C4010035C2B04460D4604D94FF4EB710D484E
S31508004C5001F0F4FD0F2D04D940F2D711094801F0EF
S31508004C60EDFD002CACBF04F16044074B4FEA051577
S31508004C70EDB2ABBF04F5614404F00F0484F80053A9
S31508004C801D5538BDD885000814ED00E010B502F0B2
S31508004C90F7FF0A4B1A786AB901226FF004041A70F2
S31508004CA002F0E9FF204605210134FFF7C7FF4C2C27
S31508004CB0F8D110BDBDE8104002F0DDBF3216002065
S31508004CC010B5044602F0D3FF024B1C6002F0CAFF7F
S31508004CD0002010BD9414002010B502F0C8FF034B45
S31508004CE01C6802F0BFFF204610BD00BF94140020C8
S31508004CF02DE9F04393B01D46136880461F68D37BA1
S31508004D00894614460AAE23B3DFF81CC2BCE80F0076
S31508004D100FC69CE80F0086E80F0004AE1822002193
S31508004D20304602F0ECFAA3680C93237B012B13D0D0
S31508004D30022B14D01BB1D921754801F07FFD002341
S31508004D40ADF83630637B032B1ED8DFE803F00B245F
S31508004D50211ADFF8D8C1D9E74FF40073F0E74FF40A
S31508004D604073EDE70023ADF8383001238DF816308F
S31508004D70A37B1196042B11D8DFE803F0141515153B
S31508004D8014004FF44053EEE7EB21614801F056FD5D
S31508004D904FF48053E7E74FF40053E4E7FE215C48FD
S31508004DA001F04CFD00238DF81030E37B4A46C3F131
S31508004DB00203DBB2CDE90233564B294601930023A1
S31508004DC040460093544B00F0ABFB0646002840F0E3
S31508004DD09880236951486B65237E85F85B30E37DAF
S31508004DE085F85A30A37D85F85930637D85F85830A3
S31508004DF0A37E85F85D30637E85F85C30237F85F871
S31508004E005F30E37E85F85E3023682B6501F0B2FFDC
S31508004E1001230422A17D607DFEF77EFD0123217E0C
S31508004E200222E07DFEF778FD85F86060206901F0D2
S31508004E30A1FFE37B38460AA9002B66D0FEF728FBBC
S31508004E4095F8603043F0040385F860301421227D1C
S31508004E50334B03EB4210C0F8941494F816C0617DE6
S31508004E60253241EA0C41C0F8AC14207EE17D03EB03
S31508004E70421341EA00415960A37B03F0FD03012B6D
S31508004E800BD195F86030022243F0010385F86030B3
S31508004E90A17E0023607EFEF73FFDA37B023B012B2C
S31508004EA00BD895F86030042243F0020385F8603089
S31508004EB0217F0023E07EFEF72FFD95F86030DB07A3
S31508004EC017D5A17E627E237D42EA014241F29C41CA
S31508004ED05B0103F1A04303F570335A5041F2944243
S31508004EE002219950217FE27E03F5A55342EA014249
S31508004EF01A600C4A07F5005305213846DA64FEF7AE
S31508004F008DF8304613B0BDE8F083FEF7EFFA9DE75B
S31508004F104D860008DB6D0008536E00089C85000866
S31508004F2000C00350FF3F0D03B0860008D086000876
S31508004F304FF41271014801F081BC00BF4D8600088C
S31508004F4010B50020144601F01FFF022804D018B13E
S31508004F50C321024801F072FC204610BDF086000805
S31508004F603021037A02464B4303F1A04303F580231D
S31508004F70D86E07491B6F884208D113F0020006D085
S31508004F805069536B1B1A58425841704700207047A6
S31508004F903316002037B504460DF10701007A02F0F2
S31508004FA027FB20B14FF46471114801F047FC9DF8C6
S31508004FB00730A3B1656BD4E90B2313449D4201D88E
S31508004FC0AA4204D940F29B31094801F037FCD4E9DA
S31508004FD00B0303449D4218BF284603B030BD302258
S31508004FE0237A534303F1A04303F58023DD6EE2E7FA
S31508004FF05A87000870B504460568FFF76DFE8442B7
S3150800500002D10020FFF75CFE95F94E00FFF708FE77
S3150800501095F94E00FFF780FD287A02F0A3FA20B131
S3150800502040F26F21104801F009FC287AFBF7A6FF29
S3150800503020B140F273210C4801F000FCFBF77CFF1D
S3150800504038B10A4B984204D040F27721064801F05D
S31508005050F5FB00232846C4E90033C4E90433A360FA
S315080050602B6CBDE8704018475A870008058000F089
S315080050702DE9F04188B01022044600210DEB02000C
S3150800508002F03DF94FF44473ADF81230474B207ADD
S31508005090CDE90533FBF7F2FF20B140F2DD41444884
S315080050A001F0CCFB2046FFF75BFF0346207A53B19D
S315080050B0FCF704F820B140F2E2413D4801F0BEFB9E
S315080050C008B0BDE8F0810DF10B0102F091FA20B1AC
S315080050D04FF49D61364801F0B1FB9DF80B30002B6B
S315080050E05DD12046FFF756FF03A90646207A02F04F
S315080050F0A1FA20B14FF49E612D4801F09FFB039B56
S31508005100002B04DC40F2F241294801F097FB039B8F
S3150800511004F10C07013B1022002138469DB2D4F851
S31508005120048002F0ECF83022237AC5F30A055343CB
S315080051302D0145F04075C4E9035803F1A0436661A3
S3150800514003F580231A6F217E520862F34101217606
S31508005150196F227E27F0030761F3000222761B6F80
S31508005160A2699B0863F39F0247F00207A2610797AB
S315080051702368104904AA0B6000940F4B207AFBF7AA
S3150800518057FF20B140F21351094801F057FB207A26
S31508005190FBF794FF002893D040F217518DE79DF84E
S315080051A01C306FF341038DF81C30E1E733160020FD
S315080051B05A87000898140020A16E000838B50446DE
S315080051C0007AFBF75BFF20B140F27931084801F01D
S315080051D035FB2046FFF7C4FE0546207AFBF76EFF2F
S315080051E020B140F27E31024801F028FB284638BD3E
S315080051F05A8700082DE9F04F8DB0984600230446DB
S3150800520092460891C8F80030D8F80050BAEB05065F
S3150800521000F0D780089B5D1900F0D3802046FFF781
S31508005220CDFF002840F0CD802046FFF7B3FE676B20
S31508005230B8420FD9C71B94F84530BE4228BF3E4630
S31508005240002B40F0CA8032462846616B01F0E9FF20
S31508005250B14643E0D4E90B310B449F4204D340F2F4
S31508005260B6317D4801F0EAFAD4E90B731F44636B43
S31508005270FF1AE0D140F25941774801F0DFFADAE740
S31508005280616B0B7803F0FD00112840F0A380A06C39
S31508005290814205D1A3F111014B424B4184F84C30B0
S315080052A009F1FF39636BA16C01328B4203F10103EB
S315080052B008BFA36463639642E2D1D4E90B23A16CC9
S315080052C01344994208BFA264A16C8A4201D88B4252
S315080052D004D840F28141604801F0B0FA207AFBF721
S315080052E0CDFE20B140F2CE315B4801F0A7FA207A14
S315080052F00DF12F0102F07CF920B140F2D231564867
S3150800530001F09CFA2046FFF745FE636B83469842F8
S315080053109DF82F306CD923B140F2DA314E4801F0AE
S315080053208DFAE26A636BB5B2934259D1099304F1D7
S315080053301C076368102238460021079301F0DFFF37
S315080053403022079B013D2362099BC5F30A05636268
S31508005350237A2D01534327F0030703F1A04345F0B1
S31508005360407547F0020703F58023E5611F67636B05
S31508005370D4E90B1233440A44934208BF0B469342BE
S31508005380636304D340F22A41334801F057FA636B4A
S315080053909B4502D12046FFF76BFE207AFBF78EFE6F
S315080053A020B14FF488612C4801F048FAD8F800304B
S315080053B0B9F1000F05D04B445345C8F80030FFF447
S315080053C023AFD8F80030002B14BF00201B200DB0E7
S315080053D0BDE8F08F05F8013B64E7B14600226AE7AD
S315080053E0A38BC3F30A12154465F30E13A383BEE712
S315080053F0207A93B93023584300F1A04000F5802065
S31508005400426E436EC2F30A1223F4FF43324423F07A
S31508005410700343EA02134366A9E70023CDE9033381
S31508005420CDE90163012300935A466368216801F0B8
S31508005430CAFA20B140F21741074801F0FFF93022B5
S31508005440237A534303F1A04303F580235A6E22F4CB
S3150800545080125A668BE700BF5A8700082DE9F84381
S3150800546004460D4690F84480DFF8B0908E18AE4298
S315080054702AD094F8453093B102F002FC074620463C
S31508005480FFF79CFE18B3A26C636B9A4204D040F2F5
S315080054908E21484601F0D2F9384602F0ECFB94F822
S315080054A04C30002BE3D0B8F1000F06D02B780A2B2E
S315080054B003D10D212046A36B98472046A36B15F808
S315080054C0011B98470028D2D00020BDE8F883204663
S315080054D0FFF760FDE16A0138884238BF206BD4F8CF
S315080054E048C03CBF00F1FF30401803469C450BD02E
S315080054F013F80129112A01D0132A07D1A2F11103A1
