:020000040800F2
:1060000008120020D9740008C9F90008CDF9000869
:10601000F1FB0408D1F90008D9F90008BDD0040843
:10602000BDD00408BDD00408BDD00408313B07082A
:10603000DDF9000894890708C13A070803760708C4
:10604000D9780008BDD00408BDD00408BDD004082C
:10605000BDD00408BDD00408BDD00408BDD00408DC
:10606000BDD00408BDD00408BDD004087173000879
:1060700005D00408BDD00408BDD00408BDD0040874
:10608000BDD00408BDD00408BDD00408BDD00408AC
:10609000BDD004082D830008BDD00408BDD004087D
:1060A000BDD00408957E0008757E0008BDD00408A8
:1060B000BDD00408A9620408556D0408450A070804
:1060C000410A0708E56404085B0A0708490A07084B
:1060D000256D04084D0A0708956D0408016E040833
:1060E000BDD00408BDD00408BDD00408BDD004084C
:1060F000C7F30408BDD00408BDD00408BDD004080F
:10610000BDD00408BDD00408BDD00408BDD004082B
:10611000BDD00408BDD00408BDD00408BDD004081B
:10612000BDD00408BDD00408BDD00408BDD004080B
:10613000BDD00408BDD00408BDD00408BDD00408FB
:10614000BDD00408E5BF0008BDD004086B75070882
:10615000BD460408BDD00408270A07082D0A070811
:10616000BDD00408BDD00408BDD00408BDD00408CB
:10617000F0B5114A114C124E00F00105E3695F07BA
:1061800013D40DB9334213D103EA00078F4207D16C
:106190000B4A1A40002A0CBF00206FF00100F0BD2E
:1061A000013AEBD16FF00200F9E74FF0FF30F6E76C
:1061B0006FF00100F3E700BF8096980000000350E5
:1061C000020001000B4B70B5D96911F480310DD17B
:1061D00001244FF48072084E084DF46020462C6470
:1061E0001A61FFF7C5FF3464EC6070BD6FF0010009
:1061F000FBE700BF000003500010035000200350D5
:106200004FF4803238B50E4B0E4C9A66E56941F674
:10621000713315400122E3630B4B0021DA60022346
:10622000606121202361FFF7A3FF10B92120FFF750
:106230009FFF0122054BDA600DB10023E36338BDF7
:106240000090005000000350001003500020035045
:1062500070B5134C6061E3695B071ED40E4656F8B7
:10626000043B8D18A361AE420BD1042300212120F1
:106270002361FFF77DFF58B9BDE870402120FFF78B
:1062800077BF08210846FFF773FF10B1042323618D
:1062900070BD56F8043BA361E5E74FF0FF30F7E728
:1062A000000003502DE9F84315464FF48032184B97
:1062B00089469A6603F51C33DF690646174041F6A6
:1062C0007132DA63012203F58053DFF84C80DA6023
:1062D00055B9284601220F4BDA601FB10022A3F501
:1062E0000053DA63BDE8F88306F5005404EA0804B5
:1062F000A41BAC4228BF2C46494622463046FFF735
:10630000A7FF0028E6D12644A1442D1BE0E700BFEB
:10631000009000500020035000E0FFFF000000004C
:10632000000000000000000000000000000000006D
:10633000013800D0FCE770472DE9F84F40220021DA
:1063400029486DF08DFA3022002128486DF088FA36
:1063500000209FED237B264B264E274ADFF888B08E
:10636000DFF8ACA0DFF8AC90DFF8AC80DFF8ACE091
:106370001E4FA3F1180C2425002145430BEB4014BC
:1063800043E9054A0CEB050443E9039843F8181C5C
:1063900043F804EC21772162182404FB007442F8CE
:1063A000144C164C42F8181C42F8104C144CA6EC35
:1063B000027B42F80C4C134C43F8241B42F8084C67
:1063C000114C42F8044C114C2C442177216242F8C4
:1063D000241B08B1BDE8F88F0120CCE7AFF30080A3
:1063E0000000000000000000C894002098940020E5
:1063F000689400205812002020940020090D010804
:106400003FFD04085DFD040893FD04080894002086
:10641000310D010861FD040827FD040865FD04082D
:106420002DE9F043022089B06EF030FE00B9FEE79E
:106430006D4E336803B9FEE710206EF027FE336817
:106440006A4C9B880DF10B018DF80B3001232068FD
:106450001A4669F010FD9DF80B203168023A0023BE
:10646000096892B2206869F006FD3368604993F8C4
:1064700029208DF814200022CDE906121B681D7812
:1064800015F020051FD0206869F095FA002874D017
:10649000206869F090FA40F0CFFE02460B464EA10C
:1064A000D1E9000141F06CF880460798894640F038
:1064B000C3FE02460B464046494640F081FD41F08E
:1064C00047F901250790206869F083FA9DF80B30A1
:1064D000002855D0981DC00040F0BEFE40A3D3E96F
:1064E000002340F023FF80462068894669F071FA56
:1064F00040F0A2FE02460B464046494641F040F8B5
:1065000080460798894640F097FE02460B46404673
:10651000494640F055FD41F01BF9079020206EF0F0
:10652000B5FD48B100210122206836F0C7FD0021E9
:1065300048F220006EF096FD336805AF5A6962BBE1
:1065400010206EF0A3FD00B3079B326803F5FA73C9
:10655000117E0793274B997027490978D970917953
:1065600000972A46206869F055F878B34FF48050B8
:106570006EF080FE4BF08FFE28E00798C030A0E759
:106580000798063300EB4310C7E731683B462A46BD
:106590008979206869F028F8E7E7196917480A44FB
:1065A0000021ADF81010962181809979CDE900077E
:1065B000A2F59B72039220682A4603AB69F035F876
:1065C0000028D3D1012140206EF04CFD09B0BDE878
:1065D000F08300BFAFF300800000000060E366417D
:1065E0000000000080842E41F89500205495002082
:1065F00020A10700DCC5002096C80020D0C50020DF
:10660000F7B501206EF042FD0446002840F0B58049
:106610005D4D5E4B5E4EC5E9003005F11003AB6089
:1066200041F60B233060B3800BF05EFD594B1B6AC3
:10663000DB0700D4FEE72146284636F087FC0446F7
:1066400000B9FEE738F04CF800B1FEE720465249A9
:1066500037F07CFB00B1FEE70221204669F08CF99F
:1066600000B1FEE720464D4937F022FE00B1FEE7BB
:106670000121204669F0C1FD00B1FEE7012120465D
:1066800069F0D1FD074600B1FEE701463C224448CF
:106690006DF0E6F880233A46204605F1140169F0D2
:1066A00000FC802800D0FEE73E4D012068F097FFF7
:1066B00033A3D3E900232C602046CDE900234FF01B
:1066C000FF324FF0FF3369F017FA014600B1FEE7E1
:1066D0002F480AF0DBFF012108466EF0C3FC0121C0
:1066E000286869F069F8044600B1FEE72E4B2F4A8E
:1066F000988018602E4B1A60FF2298802D4B83F8EB
:1067000028202D4A98801A602C4A6FF06300DA60C6
:1067100012F0C2FC33790B2B11D873790A2B0ED9E6
:10672000274B1E6005F0E2FB20460BF0CFFC082251
:106730002868114669F0FAF9044608B1FEE7FEE759
:106740000BF0BCFC1F4B10211F481C704BF012FFBC
:1067500000B9FEE71D491C484BF01EFF00B9FEE7DB
:1067600010218C201A4A49F0E2F900B1FEE71948DD
:1067700003B0BDE8F04052F080B803B0F0BD00BFF8
:106780000AE020FFE2030000649500203953070867
:106790005C9500200080E00F0700110018AA070890
:1067A0001495002054950020D81200207EB90020B6
:1067B000A812002078120020FEB8002068120020E5
:1067C0005895002000BA00200C960020AB750708F1
:1067D000FC9500200CAA07082DE9F3411E461C4B2E
:1067E000044683424FF000038B4115460AD216A39C
:1067F000D3E9002340F0CCFF164914460246284650
:1068000054F07AFC144B4EF66021B4FBF3F203FB18
:106810001244B4FBF1F34FF47A7801FB1344B4FB58
:10682000F8F728460D49009754F066FC46B1284613
:1068300008FB17420A4902B0BDE8F04154F05CBCC5
:1068400002B0BDE8F08100BF005C2605000000003A
:10685000FF5B2605B8EC070880EE3600BEEC0708A3
:10686000CDEC070800000000002370B5424C05463F
:106870008AB0E36318B10088236031F07DFA31F00B
:1068800025FC3E4869F034F83D4E3E4B30463360BF
:106890003D4B73602BF012FB0021304636F056FB67
:1068A00033A3D3E90023A062C4E9062365F080FD89
:1068B000D4E9062319431043C4E90601CDE90001D8
:1068C0004FF0FF334FF0FF32A06A69F015F9022252
:1068D0004FF0FF31A06A69F029F9012030F0D0FFB4
:1068E0004FF4007300222949A06A69F0DAFAB0F582
:1068F000007F39D100239422079309933C23CDE9EB
:1069000003320593962306935023A06A03A90893A4
:1069100036F0B0FF35B3287C31F0EAFB0546F0B91C
:10692000A06A69F0C8FC31F071FC30F08BFF20B137
:106930004FF4807000212DF059FD30F093FF20B10D
:106940004FF4006000212DF051FD65F0FCFD0120A9
:1069500068F045FE0E4A0F49A06A65F01DFD284605
:106960000AB070BDFF20D7E70725F8E7AFF3008036
:106970000DD5015520000000687F0020690345EC1B
:1069800008AD0020B976030818AD002008AB002040
:1069900041C3060881C306080348044B834202D062
:1069A000034B03B1184770471CC900201CC90020C5
:1069B00000000000064B0749C91A891048BF013181
:1069C000491003D0044B0BB101481847704700BF72
:1069D0001CC900201CC900200000000010B5064C96
:1069E000237843B9FFF7D8FF044B13B10448AFF342
:1069F00000800123237010BDA8B600200000000015
:106A00002C3A080808B5054B1BB105490548AFF3FA
:106A10000080BDE80840FFF7CDBF00BF00000000C8
:106A2000288500202C3A0808A3F5803A704700BF5B
:106A3000174B002B08BF134B9D46FFF7F5FF0021B6
:106A40008B460F461348144A121A6CF009FF0E4B7E
:106A5000002B00D098470D4B002B00D0984700200A
:106A6000002104000D000D48002802D00C48AFF3AF
:106A7000008045F01DFC2000290000F0C5FB45F01A
:106A800079FB00BF000008000000000000000000CB
:106A90000812002008120020C0C2002000000000E0
:106AA000000000000122024B04201A700BF008BD08
:106AB000ADB6002010B5032000F076FC80B10B4C81
:106AC0000B49206848F0D0FC46F0A9FA46F0A8FA35
:106AD000084B094A1B7812780849206848F0C4FC22
:106AE000BDE8104004200BF0EBBC00BFF486002092
:106AF000C8810708ABB60020A9B60020CD810708E1
:106B00000CB42DE9F041074688B0104D02AC0FCD12
:106B10000FC495E8030084E8030008AB0EAE56F8F6
:106B2000048B03EB870757F8181C094845F0E4FB72
:106B300031464046019645F009FD064845F0A0FE65
:106B400008B0BDE8F04102B0704700BFA884070854
:106B50000D82070870F10708014B1868704700BFE5
:106B60004085002037B5134D2B785BB941F2883151
:106B7000CDE90033104A11486EF0C6F8044618B942
:106B800001232B7003B030BD012000F00DFC002864
:106B9000F8D00B4D0B49286848F066FC46F03FFAE8
:106BA00046F03EFA22460849286803B0BDE8304066
:106BB00048F05ABCAEB60020A56A00084485002003
:106BC000F4860020178207081C82070810B5044CC1
:106BD000237823B103486DF077FF0023237010BDA5
:106BE000AEB600204485002010B5032000F0DCFB89
:106BF00060B10C4C0C49206848F036FC46F00FFAA6
:106C000046F00EFA0949206848F02EFC49F099FF39
:106C1000074B186028B96A21064B074A074845F018
:106C200047FE10BDF4860020C88107084A82070885
:106C30004085002085820708728407088F82070834
:106C400010B5032000F0B0FB60B1094C0949206881
:106C500048F00AFC46F0E3F946F0E2F906492068FC
:106C600048F002FCBDE81040044B186812F076B9F9
:106C7000F4860020C8810708988207084085002014
:106C800037B5032000F090FB60B11F4C1F4920680E
:106C900048F0EAFB46F0C3F946F0C2F91C49206807
:106CA00048F0E2FB002341F28831CDE90033194A74
:106CB00019486EF029F8054618B3134C1749206897
:106CC00048F0D2FB1649206848F0CEFB46F0A7F901
:106CD00046F0A6F9134B144A009314498123206807
:106CE00048F0C2FB12492B46124A206848F0BCFB10
:106CF000284600F09FFB1049206848F0B5FB00BE15
:106D0000FDE703B030BD00BFF4860020C88107084E
:106D1000C0820708B56A000864850020E0C0070843
:106D2000D8820708698407088F820708DD82070870
:106D3000EC820708E98207080183070830B5864C12
:106D400085B020684AF061FD2068844C0BF070FB30
:106D50002378002B3DD1032000F026FB60B1804D4D
:106D60008049286848F080FB46F059F946F058F908
:106D70007D49286848F078FB2AF0FEFFA0B903207F
:106D800000F012FB002873D0754C7649206848F05B
:106D90006BFB46F044F946F043F97449206805B0AE
:106DA000BDE8304048F060BB01230320237000F0B1
:106DB000FBFA60B16A4C6B49206848F055FB46F01D
:106DC0002EF946F02DF96A49206848F04DFB2AF06B
:106DD000DFFE684C2378002B5CD1032000F0E4FA3E
:106DE00060B15F4D5F49286848F03EFB46F017F9F7
:106DF00046F016F96049286848F036FB2AF0F2FEA2
:106E00002AF06CFF002833D0012525702AF070FF8E
:106E1000A8B1032000F0C8FA60B1514C5149206874
:106E200048F022FB46F0FBF846F0FAF85349206898
:106E300048F01AFB05B0BDE83040FFF793BE504B59
:106E40001A78BAB902201D7000F0AEFA60B1444D54
:106E50004C49286848F008FB46F0E1F846F0E0F8B5
:106E60004949286848F000FB2AF092FE002323706D
:106E700005B030BD022000F097FA0028DAD0384C77
:106E80004049206848F0F0FA46F0C9F846F0C8F8E2
:106E90003E49CCE73E4B1A78002AE9D03D4A1278A9
:106EA000002AE5D03C4A1278FF2AE1D000220320D4
:106EB0001A7000F079FA60B1294C2A49206848F02C
:106EC000D3FA46F0ACF846F0ABF83449206848F005
:106ED000CBFA4FF6FF730DF10600ADF8063062F005
:106EE000AEFA30B30821BDF806302D4A0DEB010093
:106EF00045F066FE02A86CF00AFC02AA01461520C5
:106F000032F03EFA0446032000F04EFA0028AFD0DB
:106F1000134D1449286848F0A7FA46F080F846F067
:106F20007FF82346BDF806201E49286848F09CFAE1
:106F30009EE7022000F038FA002899D0084C114949
:106F4000206848F091FA46F06AF846F069F8164968
:106F5000206848F089FA8BE740850020A9B6002018
:106F6000F4860020C8810708128307082A830708CF
:106F700041830708ABB600205E83070873830708C8
:106F8000AAB60020A4830708A9830708D6830708A8
:106F9000ADB60020ACB600208CC800200C840708D9
:106FA000EEDC0708228407084C84070870B50168E6
:106FB000794B21F47F4121F007019942044686B0C4
:106FC00000F0C08023D8A3F1827399427ED00AD802
:106FD000A3F5A023994242D003F58023994200F003
:106FE0008B806E486DE06E4B9942FAD18288817930
:106FF0006C4850F08FFC6C4B0221187835F020FA69
:107000006A4A6B49002818BF11466A4859E06A4B22
:1070100099427FD017D803F17E4303F57B03994251
:107020006AD003F580339942DBD1C37A0193B0F87B
:1070300009300093B0F80730B0F8052001795F48B7
:1070400050F068FC56E05E4B9942CAD1B0F805207A
:1070500001795C4806B0BDE8704050F05BBC5A480E
:1070600050F058FC504835F05DF9504D504C4E4EA4
:10707000002814BF29462146544850F04BFC0023F9
:10708000A02200931146307835F064F9002814BF2F
:10709000294621464E4850F03DFC0221307835F01B
:1070A000BBF9002814BF294621464A4850F032FC5B
:1070B0000221307835F0C4F9002814BF2946214652
:1070C000454806B0BDE8704050F024BC017B434801
:1070D00050F020FC237A617A606843EA01210BF0CA
:1070E0006BFCA37BE27A217B3D4850F013FC227BB2
:1070F0003C4B1A7006B070BD3B4850F00BFC637AF5
:10710000A17AD4F8050043EA01210BF055FCE17A9D
:107110003648D6E7B0F80530152BEBD10389344A51
:1071200013F0010309D001231370FFF71BFD314851
:1071300006B0BDE8704050F0EDBB1370FFF746FDA0
:107140002D48F5E7B0F80530152BD3D14FF6FF7376
:107150000DF10E00ADF80E3062F071F904ADB0B172
:1071600006212846BDF80E30244A45F029FD284660
:107170006CF0CDFA0022CDE90052034615212079AA
:1071800032F0D4F829461E4850F0C4FBB2E7284636
:107190001C496CF075F8EAE7A0000A01208707088F
:1071A000A0000601BC8507088DC80020C38407081D
:1071B000C0840708EB850708A0000A0308860708B3
:1071C000A0000906EF860708C8840708E3840708BB
:1071D000058507082585070848850708638507088A
:1071E0008C8507088CC80020618607087C86070804
:1071F000ACB600208F860708AE860708EEDC0708CD
:10720000D2860708CE86070810B548F01DFDFFF7A7
:1072100037FD032000F0C8F860B1114C1149206817
:1072200048F022F945F0FBFE45F0FAFE0E492068D1
:1072300048F01AF9032000F0B7F860B1084C09498A
:10724000206848F011F945F0EAFE45F0E9FE0749EB
:10725000206848F009F948F004FD002010BD00BF87
:10726000F4860020C8810708348707084987070883
:1072700008B5044848F09BF8BDE80840024800F013
:1072800019BE00BF10A607082CC50020064B1B68BE
:107290001A7A022A04D812B11B68044A1360704794
:1072A000032AF9D0704700BF40C500208485002024
:1072B00030B51A4D8FB006AC0FCD0FC495E80F0056
:1072C00084E80F000E2200210DF10A006CF0C8FACC
:1072D0004FF47022124B6946CDE900230B238DF841
:1072E00008300C238DF809300E4B06AA0393802337
:1072F000049301230C488DF815300C4B08F052F81C
:1073000004469DF816304FF4E130002B0CBF0321EA
:10731000002145F0C4FE20460FB030BD3C8907086F
:107320003C00015BAFB60020C486002088850020A9
:1073300029B9074B186803684BB108F003BB022951
:1073400005D8034B186803680BB148F04ABB704777
:1073500054C5002008B50449044809F019F8BDE8EF
:107360000840FFF7A5BF00BF5CC50020EC860020E9
:10737000014848F09CB800BFC486002000220121CB
:10738000014849F06AB900BF64C5002008B5044847
:1073900045F00DFFBDE80840024845F008BF00BFBA
:1073A000748907085C8907080B4B02461B7883B178
:1073B0000A4B1B78834234BF00200120084B1B7806
:1073C00033B1084B1B78134113F0010F08BF0020A5
:1073D00070470120F2E700BF90C800208FC800204E
:1073E0002FB700208EC80020012208B5074B1A7065
:1073F0000022074B1A700422064B1A701F22064BFC
:107400001A7007F039FF054B186008BD90C80020BE
:107410002FB700208FC800208EC80020F4860020DF
:10742000024B0349186848F01FB800BFF4860020DB
:107430008C89070870B50C4C0C490646206848F04A
:1074400013F807F019FF0546206807F0EBFE3046F9
:10745000FFF7E6FF284607F0E5FE20680449BDE88F
:10746000704048F001B800BFF48600208E890708FC
:107470009089070808B5034847F099FFBDE8084020
:1074800045F058BD10A60708014847F090BF00BF5F
:1074900010A6070807B5082045F0EDFE02238DF879
:1074A0000030054B6846019345F0BDFD082003B050
:1074B0005DF804EB45F0EABE006A18100348044A80
:1074C0000449121A921045F0FABD00BF706100081D
:1074D0003063000860C3002008B500F02FF8FFF704
:1074E000EDFF124B12498B4212D30020114B12496F
:1074F0008B4218D3FFF79CFA186850F8224058685E
:1075000040F82240013298688242F5D30C33EAE712
:107510000022F8E71C6844F8220001325C68A242AD
:10752000F8D30833E4E70022F8E700BF343A08084C
:10753000403A0808403A0808403A08084FF48041A9
:10754000124B134A70B59A60D3F88820114D42F45B
:107550007002C3F88820104A05F5005491664FF078
:10756000FF3222660D4A62660222C3F8D020BFF3C2
:107570004F8FBFF36F8F4FF44036002007F044FE6B
:107580000020E66007F024FE2E6170BD00ED00E0F3
:10759000006000080080004400900050F7FF3700B2
:1075A000014B1860704700BF70C50020054B186084
:1075B000054B1B6F03F00703032B01D16CF0F0BAEE
:1075C000704700BF78C50020008000504FF0006376
:1075D0009B6A03F17842B2F5C04F03D21968064A9C
:1075E000914203D000230370836070470122027030
:1075F0009A689B694260F7E707B0CD5E0020054BB3
:1076000082B01B689AB262F30F001B0C63F31F4039
:1076100002B0704700000020024B034A1A6047F096
:10762000D4BE00BF0000002002020FF073B54F4B24
:1076300004461A781AB102221A7002B070BDCDE960
:1076400000220028F9D001261E706FF019FD484D68
:10765000484B18603BF034FA2B785BB902F062F9C2
:1076600040B945480823454A4549006801F0F4FF00
:1076700000B92E70434B5A6E62619B6E424AA36101
:107680004FF480439366414B5968E16140499960EA
:10769000196E2160596E6160D3F87011A160196C88
:1076A000E160596C21613B49086C1864496C59646C
:1076B000012151661B6E9C0441D5374AD368D80717
:1076C000FCD4364B1A68531C3ED04FF480139340C1
:1076D000334A13664FF400730426314C2666236642
:1076E00045F016FD01300DD045F012FD40F20113BA
:1076F000984207D04FF4005323664FF4804323662B
:10770000C4F870610823264C684623664FF4805302
:1077100023664FF0006323664FF4002301A96366DC
:1077200045F0DAFC009B2366019B63662B78002BF7
:1077300083D0124B1A6822665B6863667DE7194A3C
:10774000D368D907FCD4BCE7174B1B78002BC1D1F9
:107750004FF400720C4B5A6603F5A6235B68002BAE
:10776000B8D14FF480120E4B1A66B3E731B7002040
:1077700032B7002018870020A0C500201C870020F9
:10778000007108000080005000900050008000440C
:1077900055CEAC0000C00054000004407CC5002061
:1077A000009000440000045030B7002070B5224D16
:1077B00004462E78012E02D001232B7070BD0028C4
:1077C000FCD045F0A5FC01300BD045F0A1FC40F207
:1077D0000113984205D0194B194A5E66D368DE073B
:1077E000FCD42268174B1A6662685A66A268C3F80E
:1077F0007021E2681A6422695A64E269D00744BFC2
:1078000000229A60104B1A68013207D10F4A127891
:1078100022B90F494968C90748BF1A6062690D4B10
:107820005A66A2699A663BF053F90B4B18686FF0E1
:1078300022FC0023C1E700BF31B7002000900040C8
:1078400000000440008000447CC5002030B70020C8
:1078500000C005500080005018870020F8B54FF098
:107860000066B36A03F17842B2F5C04F26D21A68B7
:10787000144B9A4222D1144D2C7814F0FD0402D0FE
:1078800000242046F8BD4FF480371048FFF7CEFEA5
:10789000204607F0B9FC0E4B2046DF6007F098FC4D
:1078A0000C4B1F61B36ADB69984704460748FFF732
:1078B0007DFF002CE5D101232B70E1E74FF48174AB
:1078C000DFE700BF07B0CD5E30B70020F8860020AC
:1078D00000A000440090004413B5204B1B7803B96E
:1078E000FEE700231E4CCDE900336A4608231D49FC
:1078F000206801F0B1FEF8B91B4AD2F84031D2F845
:1079000040211F2B4FF0010311D9203A9340019AD7
:107910001A43019208236A461249206801F058FE72
:10792000124B134A1A6047F050FD02B010BD93404D
:10793000009A1A430092EDE72D28F1D10A4AD2F8B5
:107940004031D2F840211F2B4FF0010385BF203A70
:1079500093409340019398BF0093DBE731B7002039
:10796000A0C5002000710800008000440000002035
:107970000B020FF0BFF34F8F0549064BCA6802F4A4
:10798000E0621343CB60BFF34F8F00BFFDE700BF42
:1079900000ED00E00400FA0540B1054A1378012B20
:1079A00004D8037001330020137070470120704722
:1079B00033B7002030B5056887B0AB880446184857
:1079C000ADF80C3047F0F3FC0022012103A800F0D1
:1079D000FDF80DF10B0103A845F064FC9DF80B3098
:1079E00083F001032B70AB79022B15D14FF0FF33DD
:1079F0000022CDE9043304A90A4B009403A800F047
:107A0000E7F9049B009401330CBF04220122054BCB
:107A100005A903A800F05CF9002007B030BD00BF45
:107A200010A60708BBD10408002307B52948019315
:107A300047F0BDFC4FF44073012204216846ADF8C5
:107A4000003000F0C3F80122234B0520C3F8442482
:107A500001A96FF095FC002839D1204BD3F8F02014
:107A600042F00102C3F8F020D3F8FC2042F080720B
:107A7000C3F8FC201A4AA3F55D431A60019B194A1A
:107A800003F5D52303F2FC43B3FBF2F3164A013BA3
:107A900013610223C2F8F0304FF48073C2F804334C
:107AA0004FF06043114AC3F8B02F114AC3F8802E3B
:107AB000D3F8002E42F48072C3F8002EFF2283F820
:107AC0002020D3F8002E22F48072C3F8002E03B0D9
:107AD0005DF804FB10A6070800D0035000ED00E09D
:107AE000FF030040F8590D00000004E055CEACC57E
:107AF000090001004FF06043D3F8802E30B5D20763
:107B000015D501240B4D8440D5F8FC2042F080723D
:107B1000C5F8FC20D3F8002E2243C3F8002E53F8FA
:107B20002020002AF0D003F82010002030BD1120C2
:107B3000FCE700BF00ED00E02DE9F04104460C2514
:107B40004FF00108124E0CB314F001000BD00020CE
:107B500024F0010405FB00625768002FF3D0916800
:107B6000C0B2B847EFE72246013020284FEA520260
:107B700001D0D307F8D508FA00F20F2824EA02044E
:107B8000E8D9103805FB0062B432E5E7BDE8F081C2
:107B90002487002008B50C4847F009FC192007F09D
:107BA00025FB28B1192007F02FFB192007F010FB47
:107BB0001A2007F01BFB28B11A2007F025FB1A201A
:107BC00007F006FB002008BD10A607082DE9F041CC
:107BD0000E469046054618B30F2923D80378E3B123
:107BE000012B03D0022B18D0032B1BD13F236A7823
:107BF000D340DB0716D50D4BD3F81043A4B96FF073
:107C00003FFA074642462846314603F00FFF384602
:107C10006FF031FA2046BDE8F08140F2FF33E6E72D
:107C20002224F7E72124F5E70224F3E700C00350FC
:107C300010B50446E8B10378C3B1012B03D0022B81
:107C400014D0032B17D13F236278D340DB0712D522
:107C50006FF016FA0122637821789A403023594355
:107C6000064B5A506FF007FA002010BD40F2FF3368
:107C7000EAE72220F9E72120F7E700BF40D00350D0
:107C800010B50446E8B10378C3B1012B03D0022B31
:107C900014D0032B17D13F236278D340DB0712D5D2
:107CA0006FF0EEF90122637821789A40302359432E
:107CB000064B5A506FF0DFF9002010BD40F2FF3341
:107CC000EAE72220F9E72120F7E700BF40E0035070
:107CD0002DE9F0410D46164698460446002851D03D
:107CE00000294FD002784AB1012A42D0022A05D099
:107CF000032A3ED0FF2A07D0212041E040F2FF3383
:107D00006278D340DA07F7D5022E01D9042EF3D1D9
:107D10006FF0B6F923780746FF2B05D03246204690
:107D2000296803F0C9FE28602B68013309D1237844
:107D3000FF2B06D1144B6078D3F8241446F0B4F826
:107D4000286029684B1C17D00C23104A03FB012222
:107D5000069BC2F8048093602378FF2B04D0012394
:107D60000B4A8B40C2F8243438466FF084F9002067
:107D700006E03F236278C4E738466FF07CF92D2097
:107D8000BDE8F0812220FBE700C0035024870020DB
:107D900000D003500F2810B5044613D86FF070F9C7
:107DA0000123094AA340C2F82034C2F824340C222B
:107DB000064B02FB04330024C3E901446FF05BF976
:107DC000204610BD2120FCE700E00350248700205E
:107DD0002DE9F0410D4690461F460446002842D04A
:107DE000002940D0017849B1012933D0022905D0BA
:107DF00003292FD0FF2907D0212032E040F2FF33A2
:107E00006278D340DA07F7D56FF03AF9237806465F
:107E1000FF2B05D042462046296803F0D3FE286098
:107E20002A68531C19D00C23104903FB0211069B2E
:107E3000C1F8B870C1F8BC302378FF2B05D00123FE
:107E4000103293400A4AC2F8243430466FF013F9D6
:107E5000002006E03F236278D3E730466FF00BF94D
:107E60002D20BDE8F0812220FBE700BF2487002001
:107E700000D0035008B503F0BFFD054B00F05530AE
:107E800020F05020C3F82004BDE80840FFF754BE9E
:107E900000E0035008B503F0AFFD054B00F0AA3039
:107EA00020F0A020C3F82004BDE80840FFF744BE3E
:107EB00000E0035070B503680446B3F1B64F86B0D6
:107EC00049D0264A934244D10125254847F06FFA0C
:107ED000A3880122ADF80030E3880A216846ADF896
:107EE0000430FFF773FE01220A2101A8FFF76EFE9E
:107EF0000A266846FFF7C4FE642008F0BBFC68460B
:107F0000FFF796FE642008F0B5FC013EF1D1032393
:107F1000144A02EB0511C1F8E834607923794F3532
:107F200043EA0043C1F8EC34E179A3792D0143EA37
:107F30000143535140F20113ADF80830E368206863
:107F40000493A36802A90393237C8DF8143003F0F3
:107F50004BFA06B070BD00250348B7E70080065015
:107F600008A6070800C003500CA6070838B5054648
:107F700003F068FB044C012801D1013C00D138BD5D
:107F8000284603F053FAF6E7E19304002DE9F04F99
:107F90009A46564B85B01B7806460F461546DDF8C7
:107FA0003C909DF844B0DDF85080002B00F09780A5
:107FB000072A00F296800E9B002B00F09280B9F108
:107FC000000F00F08E80129BB3F5006F00F38980E4
:107FD000012803D1109B002B00F08380444B03EB5E
:107FE00005131B7B002B7ED0424C102200216846DB
:107FF0006BF036FC04EB45141022A7BB3946204633
:108000006BF02EFC43F210036380BBF1000F03D131
:10801000E37843F00303E370364A0E9B02EB451C02
:10802000CCE90193129B6901581E9DF84C30C0F3B6
:108030000A0003F003039B0643EA001E53582E4830
:10804000012E00EA03004EEA0003CDF800A05350D1
:1080500017D0B8F1000F2ED19CF8023068F304134A
:108060008CF8023027E0002120466BF0F9FB4FF43A
:1080700044736380BBF1000FCED1E37843F030034B
:10808000C9E713230CF1100ECCF80C309CE80F005C
:108090008EE80F006FF00301DCF81C20109B61F3E9
:1080A0009F02012FCCF81C20CCF8143003D1CCF85F
:1080B0001890CCF8043000270D4A290102EB051373
:1080C00042F80180159A28465A60694622469F6008
:1080D0005E7303F04DFB384605B0BDE8F08F0748EE
:1080E000FAE70748F8E70748F6E700BF34B700208B
:1080F0008C8900208C8800200F80FFF3028000F024
:10810000018000F0078000F038B5124B05461B785F
:10811000DBB1E0B16EF0B4FF0F4A00231146147BCF
:1081200054B92B6001251A0101EB03131D738C5008
:108130006EF0A1FF204638BD0133082B02F110027A
:10814000EDD16EF098FF0548F5E70548F3E70548DF
:10815000F1E700BF34B700208C890020048000F0D4
:10816000028000F0018000F038B56EF089FF002336
:1081700005460B4A147B6CB90133082B02F110023F
:10818000F8D103F0A1FA074B28461C706EF073FF7C
:10819000204603E028466EF06EFF034838BD00BF5E
:1081A0008C89002034B70020058000F00D4B10B5FD
:1081B0001B78044693B1072812D86EF061FF0A4B72
:1081C00003EB04131A7B2AB100241C736EF053FFD7
:1081D000204610BD6EF04FFF0448FAE70448F8E768
:1081E0000448F6E734B700208C890020068000F0B0
:1081F000028000F0018000F0154B13B518680023D1
:1082000001908DF804306EF03BFF124B1C7824B1C6
:108210006EF031FF104802B010BD01221A706EF0EE
:108220002AFF0E4B01A81C731C7783F82C4083F89F
:108230003C4083F84C4083F85C4083F86C4083F802
:108240007C4008238DF8073003F062FA2046E2E70D
:10825000E489070834B70020038000F08C890020EF
:10826000F8B50D4D2D7885B1072810DC0B4D0601B2
:1082700005EB0014277B67B1AB510025069BA56079
:10828000636003F075FA2846F8BD0548FCE7054829
:10829000FAE70548F8E700BF34B700208C890020D2
:1082A000028000F0018000F0078000F00A4A08B563
:1082B00012785AB107280BD8084A02EB00131B7B2F
:1082C00043B1002103F016FA002008BD0448FCE782
:1082D0000448FAE70448F8E734B700208C89002006
:1082E000028000F0018000F0078000F00A4A08B523
:1082F00012785AB107280BD8084A02EB00131B7BEF
:1083000043B1012103F0F6F9002008BD0448FCE761
:108310000448FAE70448F8E734B700208C890020C5
:10832000028000F0018000F0078000F0184B2DE97A
:10833000F0411F6D5B6D1F4000D5FEE70126002553
:10834000144CDFF85880374218D02368C8F85060C2
:10835000A3B1A168284601316268A1609847637B98
:10836000012B0BD150B90C4B03EB45131A7B60F377
:1083700041021A731A7F60F341021A770135082D02
:108380004FEA460604F11004DDD1BDE8F08100BFDC
:10839000000004508C8900208C88002000200450AC
:1083A0002DE9F04F144606460D469B46C36B87B039
:1083B00001225B6902A960689847F36B01225B693F
:1083C00003A92846984702A845F0A7FB074648B1ED
:1083D0000023A37563754FF0FF33A360002007B03F
:1083E000BDE8F08F03A845F0A5FB0123A375237E0C
:1083F00004EBC303DD611F846368AB420ED12060D0
:1084000003A845F0B9FB4FF0FF332075A360237D2F
:10841000043B022B26D80023A375DFE723681A1A32
:1084200053425341A37503A845F0A6FB237D834225
:1084300018BFA77503A845F081FB074602A845F0C1
:108440007DFB874218BF002303A818BFA37545F022
:108450007DFB074602A845F079FB87421CBF00233D
:10846000A375D4E703A845F069FB80B1F36B022242
:1084700028465B6904A9984704A845F06EFB0346AB
:10848000207D032839D8DFE800F03838040903A834
:10849000F3E7CC22237E04EBC3031A8401F0BAFA7B
:1084A000109B187003A8277E45F03CFB04EBC70720
:1084B00087F82200237E03A804EBC303B3F82090BF
:1084C00093F8227045F03AFB804603A845F03EFB46
:1084D0008246B8F1000F15D0F36B022228465B6983
:1084E00004A9984704A845F0FDFA6075637D6BB94F
:1084F0000023A3754FF0000838E0227E04EBC2028F
:108500001384CBE703A845F0D8FAEEE794F8168079
:10851000B8F1000FEED0B9F1000F09D1DFB101239E
:10852000627EE375002A44D19F4218D1677614E039
:10853000736C05EB0A02594285EA020008421CBF2F
:108540000021A175591E0A409B1A9945D0D8A37DD8
:10855000002BE3D1CEE7E37D43B94FF000084B4653
:1085600052462946304645F016F8A060A27D12B169
:1085700023694B4423611449237E097899421ED90B
:1085800001332376BBF1000F1BD0D2B1E37DC3B121
:10859000B8F1000F15D1032F13D0A1684B1C10D0D8
:1085A000109B2246009330460123FFF7F9FEA07589
:1085B00007E0012FDAD0032F08BFA376CDE7002311
:1085C000A375A07D0BE700BF088A07082DE9F04FCF
:1085D0000E46984600238BB004464FF0FF311046FC
:1085E00017468DF8133001F0FFF9B6F5801F3BD325
:1085F000B21C53D1E56A6B1C57D12046616A44F026
:1086000010FF0546B31C18BF0123DFF8109101933A
:10861000636A626C0293236805A902FB053AE36B67
:1086200005225B695046984705A845F011FB45F0C7
:1086300034FB504645F03CFB4FF0000B82460146B0
:108640004B1C05D0636C81EA0A025B42134232D0B4
:108650002946204644F0E5FE029BAB424DD0BBF1DB
:10866000000F4DD10546D3E7314605AA04F10800B5
:1086700045F0A1F90146481C10D0384601F0B4F984
:108680000122394620460DF1130344F0D6FF28B1EC
:108690009DF8133088F80030002003E0237C002B85
:1086A000A8D12D200BB0BDE8F08F2368ED1A636CC4
:1086B000B5FBF3F5A6E7484601F096F90DF1130373
:1086C00049462046019A44F0B8FF034690B1B21CD7
:1086D00003D0D9F80020B2420CD19DF813200393A7
:1086E0000D4B88F8002049461A6838466AF0EFFFBB
:1086F000039B9B46D9F80810A2E7BBF1000FD0D02E
:10870000B6F5801FC8D2314698F800307A6804F177
:10871000080001F097F8BFE7048A0708809000205E
:108720002DE9F3410446174698460E46194D816AD5
:10873000E36A8B422AD04B1C18E0284601F054F91A
:108740000122294620460DF1070344F076FF30B19F
:108750004346294620469DF80720B847B0B1A9688E
:108760004A1C05D0012E0AD0E36A9942E5D10DE0FA
:108770006968204644F0E2FE012E0146D8D16B68BC
:1087800081EA0302636C5B421A42D1D002B0BDE8B9
:10879000F08100BF549000202DE9F041036B90461A
:1087A000826B07689A4288BF8363426C436A90B0C9
:1087B00002FB0377C36B0E46052201A95B690446E1
:1087C0003846984701A845F043FA01280146307021
:1087D00057D0656CE26B2368606AD2F814C005FB61
:1087E0000030052206A9E04706A845F031FA012825
:1087F0004FF0000523D0D4E90A3201219342CDE99C
:108800000B458DF834800E958DF83C102AD1194611
:10881000204644F093FE236B626C14339B1AE06293
:1088200023630C9B53B99DF83C303BB1626A616C89
:108830002368E06B01FB023145F0C2F90C9DE36B4C
:1088400005225B6901A93846984701A845F000FA5E
:1088500030702846236BA26B9A4288BFA36310B086
:10886000BDE8F081237C33B91C490BAA04F1080050
:1088700001F036F8D5E72046194A0BABFFF750FF59
:10888000CFE7237C23BB2246164904F1080001F000
:1088900027F8616A204644F0E5FD616A421C2046E3
:1088A00044F0AEFD054620B9236B626C1344143BC3
:1088B00023632046A16A44F041FE2368A062C01AE7
:1088C000636CB0FBF3F06062204644F07AFEB6E7DA
:1088D00000232046044AFFF723FFDAE7AD900008A3
:1088E00029900008C3D604085FD6040873B50D4666
:1088F000D11E4A421C461B7E4A419A4226D1296813
:108900002368994222D3636899421FD8114E0DF112
:1089100007033246FFF75AFEC0B972686B689A4285
:1089200014D19DF80730DA1E53425341227E934200
:108930000CD1636901336361D4E90323934205D207
:108940002968A26842F8231001332361012002B094
:1089500070BD00BFAC9000202DE9F04F9A468BB05F
:108960009DF85030DFF850B10293DBF810308046AC
:1089700053450D461646C0F09980D146DBF80430C9
:108980000193B9F1000F00F08D80D8F83C3001223E
:108990005B6907A90198984707A845F0CBF8DBF871
:1089A0000030984240F0858007A845F0CFF80428B1
:1089B000074614D107A845F0D0F8019B029A044657
:1089C0003B44002A3FD1864212D91446361A40460B
:1089D000019944F0B3FDA9EB04090190D1E7D8F85F
:1089E0003C3002225B69019808A9984708A8E2E791
:1089F000841B544528BF5446032C03EB0607AAEBFF
:108A0000040A4FEA94021CD9D8F83C30294638466B
:108A10005B69984724F0030304F003061F441D44D8
:108A2000002ED4D0D8F83C3001225B6908A9384622
:108A300098473246284608A935446AF048FE002681
:108A4000C5E72646ECE7074600F00302039203441D
:108A50002A1804920593049BDD1B059BD81B039BDE
:108A60009F420FD1002FB2D0D8F83C30012208A984
:108A70005B6998473A46284608A96AF0C7FE78B964
:108A80003D44A4E7D8F83C30012208A95B69984727
:108A90000422284608A96AF0B9FE08B9043FDAE7BB
:108AA0004FF0360948460BB0BDE8F08F4FF0630930
:108AB000F8E74FF06F09F5E7D89000202DE9F04175
:108AC0000F4616469846044688B060B390F8345076
:108AD000FDB1012144F06AFC00210E9BCDE9051196
:108AE000CDE902379DF83C30CDF804808DF81C307C
:108AF000237C04968BB90D4901AA04F1080000F00B
:108B0000EFFEDDE90553E06B002E08BF1D4644F083
:108B1000E6FD284608B0BDE8F0812046044A01ABD6
:108B2000FFF7FEFDEDE70546F3E700BF8DD604082D
:108B3000ED8800082DE9F04F99B00F4609920A69B7
:108B4000416C0E931439D31DB3FBF1F3013302EBE7
:108B5000C302036B04469342C0F00D820023DFF88A
:108B600020940D93E36A48461946079300F03CFFB2
:108B7000D7E9033604930E9B022B4ED1CC2E40F046
:108B80008A81099B002B42D03946204644F005FEDD
:108B9000656C079A6B1E13401490ED1AE36B01226B
:108BA0005B6916A97868984716A844F0C7FF0028A3
:108BB0000CBF04230823782E06933DD901230025FA
:108BC0004FF0080A05933B6805990E98C9F80030E4
:108BD000C9F8106044F0D4FF4FEA9A0310930023C1
:108BE000DDF81CB089F814000B930F9308930C93D5
:108BF000616C4A1E0BEA02028B1A002E38D05544D3
:108C0000AB4240D8236B5B1A13442363ABE0049B55
:108C10001B68149308230693D0E7656C079A6B1EB4
:108C20001340782EA5EB030516D8FB7D7BB9099B75
:108C3000002BB3D104230693331DAB4210D9A6B148
:108C4000082DBBD804250023AA460593BBE7099B42
:108C5000002BA3D10823EEE7099B002B9ED1D9E777
:108C6000002505954FF0040AADE704250596F9E7C0
:108C70005345C7D3B0460BEB0A030393089B002B65
:108C800018BF032313E0A3EB0A039E42B0460BEB8D
:108C90000A0228BF98469E420392EFD90123D9F8D1
:108CA000102089F81730964271D1C9F804B00893A2
:108CB00099F81730002B6CD099F818200899D31C1C
:108CC00009EBC3030132C3F804B0A3F8088099721A
:108CD00089F81820B8F1000F14D00E9B022B5BD13D
:108CE0000B9B7BB90F9B4344032B0BD9E36B0122F6
:108CF0009B69039814A998470546002840F03D81D8
:108D000001230B93089B16A80193059B009399F8E8
:108D100014204346396800F01DFEE36B58469B69FA
:108D2000109A16A99847051E0D9B18BF5B46524620
:108D30000D9359464346204644F02DFC236B08F121
:108D40000302A3EB0A0322F003029B1AC9F80800EE
:108D50002363002D40F011810F9BDDF80CB04344DC
:108D6000A6EB08060F935946204644F0E7FB002582
:108D70008346002E7FF43CAF814A3968936804F142
:108D80000800E36252680E9B00F05CFDDEE0022307
:108D90008DE7C9F804B09DE7099B002B30D1049BF7
:108DA000B8F1030F43440A9327D9DDE90301E36BCC
:108DB0004FEA98029B6998470546002865D118F04C
:108DC00003025FD0049B28F003052B440493039B0C
:108DD0001D444FF0FF33049915A815936AF077FCF2
:108DE000E36B28469B69012215A9984705460A9B13
:108DF0000493002D86D0039B99E74246039DE8E744
:108E0000039B0A9307F120031193FB7D78689BB1C4
:108E100000233D7E0C9AD9B28D4211D9119903F1EC
:108E2000010C31F83310914226D9069907EBC303A0
:108E3000D8690A44104403E00C9B069A1344184472
:108E4000E36B01225B6915A99847159B01221393D7
:108E50000C9B0A9804330C93E36B13A99B69984706
:108E6000039B0A9A43449B1A042B054607D978B9F9
:108E7000134604330A93C8E76346521ACBE70A9BAA
:108E80000393B6E70A9B04933CE70A9B0493B2E77B
:108E90000A9B0393AFE7702604F10803039323684A
:108EA000079A606CA2EB030ABAFBF0FA00FB0A30E7
:108EB00044F0FEFEE16A8046204644F03FFBA26A91
:108EC00082424AD0626CD9F80830511E0B40216BA7
:108ED0002568891A0B4423630D9BE0625D1BB5FB7B
:108EE000F2F5AA4536D1079BB3EB080A12D0E36B23
:108EF0004FEA9A0241469B6998478346E36A079A7C
:108F00005344E362236B03989B1A4344236344F066
:108F100023FDDA462368616CE06B01FB053144F008
:108F20003CFE204644F04DFA204644F04AFB2063C4
:108F3000BAF1000F11D03A69616CD31D1439B3FB3B
:108F4000F1F3013302EBC3029042A8D2304619B0CC
:108F5000BDE8F08F4FF0000ADCE73A69616CD31D81
:108F60001439B3FBF1F3013302EBC302236B9342D9
:108F7000BFF4F8ADEAE71C26E8E72E468CE700BF11
:108F8000809000202DE9F3471E4643690446B34212
:108F9000884617469DF828903DD300258DF8075048
:108FA000204644F0DAF9D4F830A082450AD2236A88
:108FB000B5EB430F06D2002220460DF10701FFF763
:108FC000EBFB30B39DF80730012B05D10022204682
:108FD0000DF10701FFF7E0FBB9F1030F06D03146B1
:108FE000204644F0A5F9256B854218D30D4D4FF06E
:108FF000FF31284600F0F8FC4B4600222946204667
:10900000C5E90376C5F8008002B0BDE8F047FFF778
:1090100091BD0135C4E7622002B0BDE8F0871C2095
:10902000FAE700BFAC900020032A2DE9F341064681
:109030000D4617461C4606D1237A012B23D001206A
:1090400002B0BDE8F081DFF86080096842460DF1AA
:109050000703FFF7BBFA60600028EDD19DF80720F9
:10906000237A032AE8D0D8F804106A689142E3D141
:10907000012B2969D4F80CC007D172690CEB0103EC
:10908000934202D92074207CDAE708316144E16020
:109090003B46012229463046FFF74CFD6060002820
:1090A000CAD00020CCE700BFAC9000202DE9F341EE
:1090B000089C032A1746266806D1237A012B24D060
:1090C000012002B0BDE8F081DFF8908030464246D2
:1090D0000DF10703FFF77AFA60600028EDD12568EB
:1090E000D8F80400A96AD5F844C04840CCF1000380
:1090F0001840227AE1D1012A09D1E268D8F810306B
:1091000013447269934202D92074207CD9E72868FD
:10911000EB6A1B1A081AB3FBFCF3B0FBFCF08342AA
:109120000BD1706CF36A421E1340326B121A134457
:109130002846336344F002FAE862D8F81020E36866
:1091400008321344E36001223B4604492068FFF7DC
:10915000F1FC60600028B0D00020B2E7AC900020A5
:109160002DE9F04F4FF0FF334FF6FF720025044614
:1091700000F10806C0E909238BB0C36205620563EC
:1091800030460F4644F0E8FB204644F01AF920BB75
:109190002046394644F095F9204644F012F920BBA8
:1091A0005E200BB0BDE8F08FE26B2368606CD2F8F4
:1091B00014C000FB0530052205A9E04705A844F0CE
:1091C00047FD012828D12946204644F04BF9421C8E
:1091D0002946204644F014F90135E3699D42E3D362
:1091E000204644F0EEF80028D2D000254FF0FF3999
:1091F0004FF6FF73CA46A846C4E90853E369984589
:1092000014D3A5EB0905012D36D84FF6FF72636A1A
:10921000934246D16720C4E744F044FD0028DBD0E8
:109220002946204644F01EF90246D1E72368E26B46
:10923000606C576900FB0830052205A9B84705A8EE
:1092400044F006FD834605A844F0D9FC074658467D
:1092500044F023FD68B1574538BFC4F82480B945B0
:1092600028BFB946BD4238BF3D46BA46236A0133DE
:10927000236208F10108C1E74FF6FF73002563621E
:10928000E3699D42C1D2676C2068E36B052207FB4E
:1092900005005B6905A9984705A844F0B0FC0135B5
:1092A000EEE7E26B676C2068694607FB03005569CF
:1092B0000522A847684644F0A2FC626A2368606CF5
:1092C000504D00FB023044F0F3FC4FF0FF33A0623E
:1092D000E3622A466FF00101204605ABFFF776F9FD
:1092E00000284FD1AD6829462046E56244F045F894
:1092F000206320B92046E16A44F020F9E062294663
:10930000204644F01BF90546A36A9D423CD165699D
:10931000626CE91C143AB1FBF2F14FF0000805EB66
:10932000C1050335B5FBF2F5C1460235E369994540
:109330003CD3A8455AD22046616A44F072F800270F
:10934000064604F1400AB84512D8626C23686946A3
:1093500002FB0639E36B05225B694846984768467D
:1093600044F04DFC534602464946E06B44F0A2FCF3
:109370003146204644F055F80137AF420646E2D365
:1093800064200EE7A56AAEE72946204643F0F5FFC4
:10939000236B2946034407462363204644F0CEF856
:1093A0000546002FB0D1C4E90B07ADE7636C276811
:1093B000052203FB0977E36B05A95B6938469847EB
:1093C00005A844F045FC44F068FC60B1384644F020
:1093D0006FFC0146204643F0D0FF636C143B98427B
:1093E00008BF08F1010809F101099FE7304644F080
:1093F000B3FA002320461946034AFFF791F90020EB
:10940000CFE600BFAC90002029D604080023624AB2
:109410002DE9F04117680E460446136018B921255E
:109420002846BDE8F08190F834500DB30968026811
:10943000914240F0A98071684268914240F0A48056
:10944000B1688268914240F09F80F168C2689142A1
:1094500040F09A8031694269914240F09580B1694B
:10946000C26B914240F0908072691D468261D7E7DD
:1094700050222946D0F838806AF0F2F9D6E9021273
:10948000336804F1080023607368C4F838806360AF
:10949000336963617369A36144F070FAB36904F1DD
:1094A0004000E3639B68984794F8432020B1E5614E
:1094B000002AB4D05B25B3E7656C002DF7D0666851
:1094C000B6FBF5F3E361002AA9D0B542F2D82268D1
:1094D000B2FBF5F105FB1122002A57D105FB1363FE
:1094E000002B53D1204643F038FFA36904330344D3
:1094F0009E424DD340F634726369CC3B934249D8C7
:10950000B5F5805FD6D30321204643F04FFFD4E961
:109510000001E36B1B6898470546E36B0220DB689C
:1095200098471DB1002384F834301DE039462046A9
:10953000FFF716FE6428054604D139462046FFF79A
:109540000FFE0546636C143B002DEBD1226A2046CA
:1095500002FB03F643F001FFA369043303449E4278
:1095600006D284F834505A25E06B44F0B8F857E737
:109570000123D4E90001094A84F834301368013327
:10958000136044F095FAEFE75D2549E7592547E771
:109590005A2545E75F2543E7108A00200C8A002002
:1095A00008B578B190F8343073B10023074A80F8D9
:1095B00034301368013B136013B9C36B5B68984781
:1095C000002008BD2120FCE71120FAE70C8A0020CA
:1095D0002DE9FF410F4690461E46054698B390F888
:1095E000343093B3B1F5801F31D21A4C022143F0CD
:1095F000DDFE2246394628460DF10F03FEF7E6FF51
:10960000024678B101234246009339463346284644
:10961000FFF7B8FC0446E86B44F061F8204604B05C
:10962000BDE8F0819DF80F30012BEBD12169B142EB
:10963000E8D10093414633462846FFF78DF90446AA
:109640000028DFD1E7E72124E8E71124E6E7292411
:10965000E4E700BFD89000202DE9FF410C461646F4
:109660001F46054680B390F834307BB3B1F5801FB8
:109670002ED2DFF86080012143F098FE2146424659
:1096800028460DF10F03FEF7A1FF044670B99DF8BF
:109690000F30012B11D1D8F81030BB4212D1024645
:1096A000009031462846FFF757F90446E86B44F02E
:1096B00016F8204604B0BDE8F081022B14BF2D241B
:1096C0006024F3E76324F1E72124F2E71124F0E7B3
:1096D0002924EEE7D89000202DE9F04385B00C4610
:1096E00017461E460546DDF8308098B390F83430B2
:1096F00093B3B1F5801F31D2DFF86490012143F0BC
:1097000055FE21464A4628460DF10F03FEF75EFF3F
:10971000044688B99DF80F30012B14D1D9F81020D8
:1097200006EB08039A4213D300904346324639466B
:109730002846FFF711F90446E86B43F0D0FF2046B6
:1097400005B0BDE8F083022B14BF2D246024F3E79D
:109750006324F1E72124F2E71124F0E72924EEE75E
:10976000D89000202DE9F3411F4600230C461646F1
:1097700005463B6050B390F834304BB3B1F5801FD1
:1097800028D2DFF85480012143F010FE21464246E2
:1097900028460DF10703FEF719FF0446A0B99DF80E
:1097A0000730032B10D0022B0AD10123336004238E
:1097B0003B60E86B43F093FF204602B0BDE8F081C8
:1097C000D8F810303060F3E72D24F2E72124F3E7D6
:1097D0001124F1E72924EFE7D890002030B50C469A
:1097E000054685B028B390F8343023B3B1F5801F17
:1097F00023D2022143F0DAFD0DF10F032146284662
:109800000F4AFEF7E3FE034688B99DF80F20032AAE
:109810000DD003222146009202462846FFF7B2FBF4
:109820000446E86B43F05BFF204605B030BD2D24B5
:10983000F7E72124F8E71124F6E72924F4E700BF2D
:10984000D89000202DE9F043466886B30568984615
:109850004FF0000CA946AE4655F83C400CF1010C07
:10986000C4F31307013401D0B94217D066450EF195
:10987000080EF1D12F46002403E0A64207F10807A5
:1098800012D055F8343001340133F6D1C1F313014D
:1098900041EA0851C7E90012BDE8F08341EA0851E6
:1098A000CEE90012BDE8F083B8F1030F03D1012324
:1098B0000372BDE8F083002303E09E4209F108092A
:1098C000F5D055F833400133C4F30754032CF4D1D9
:1098D000C1F3130343EA0853C9E90032BDE8F0833A
:1098E0002DE9F0410646406882B0C0B10F4690466F
:1098F0000024336853F8345003EBC403C5F3075214
:10990000C5F31301013504F1010406D05B6830464C
:10991000CDF80080B84710B170688442E9D302B036
:10992000BDE8F081024B1968024B1868FFF76EBD65
:1099300080C50020A0C5002008B56DF08EFB014B4E
:10994000186008BD04910020014B18686DF080BBC1
:109950000491002073B504462248012A00EAC1118F
:109960009DF8185023F07C4007D9961E012E28D967
:10997000073303F07F03194308E09DF81C300A43C6
:10998000DB0603F0C053134343F060410023C4E9F6
:1099900000108DF80730B5B1202221460DF10700E7
:1099A00044F0A2F91A220DF10700211D44F09CF9A0
:1099B000082063689DF8072043EA8263636002B071
:1099C00070BD1143E2E71B220DF10700214644F070
:1099D0008BF923689DF80720042043EAC2632360C3
:1099E000EDE700BF80FFFF0738B5094B0D461A6849
:1099F0000021044669F034FF00234FF0FF32238337
:109A0000C4E900252361A260E382A37638BD00BFCC
:109A1000048A07080138C0B205289ABF014B185CB8
:109A200001207047098A07082DE9F04107461546CD
:109A300000240E46596888B0490A012922464FEA97
:109A4000510104F10104F8D8DC78997824031B88CB
:109A5000C90201F4006104F480540C43C3F30A0307
:109A60005203234492B24FF000089C18274B6FEA30
:109A70000444039325F07843ED4302A90DF1070058
:109A80001B2202938DF8078044F02EF99DF80720E1
:109A9000029B02A943EAC2630DF107001B2225F0D5
:109AA0007845049302958DF8078044F01DF99DF8E0
:109AB0000720029B6FEA144443EAC26305934FF008
:109AC000FF330794069307A9BB69012206F1100032
:109AD0009847BB6905A90446012206F1080098478A
:109AE000BB69404518BF044604A90122301D9847B0
:109AF0000122404518BF0446BB69304603A9984778
:109B0000404508BF204608B0BDE8F08101009AB288
:109B1000044BD3F88420D206FBD4D3F88400C0F3DE
:109B2000811070470040005038B5174B0546D3F8F8
:109B300028310C4603F00703013B052B20D8DFE852
:109B400003F003131B0F0B176AF004F8052305B18C
:109B5000286004B1236038BD69F0FCFF0623F6E7F6
:109B60006AF042F80723F2E76AF034F80323EEE7DD
:109B70006AF030F80423EAE76AF028F80223E6E7FF
:109B800000231846E3E700BF00800050002337B5EC
:109B90000193164B0546D3F820320C4603F0070319
:109BA000042B21D8DFE803F0030B11161B0001235F
:109BB0000DB1019A2A6004B1236003B030BD0021C9
:109BC00001A8FFF7B1FF1223F2E76AF00DF80723AF
:109BD0000190EDE76DF036FA0A230190E8E76AF0AC
:109BE0004BF809230190E3E70023E1E700800050F0
:109BF00038B5104B0546D3F880300C4603F003030C
:109C0000022B0BD0032B0DD0012B0FD169F0A8FF35
:109C10000E2305B1286004B1236038BD69F0E4FF6C
:109C20000723F6E769F096FF0623F2E700231846BC
:109C3000EFE700BF0080005038B5104B0546D3F861
:109C400000310C4603F00303022B0BD0032B0DD085
:109C5000012B0FD169F0BEFF032305B1286004B1C9
:109C6000236038BD6AF008F80923F6E769F0B8FF09
:109C70000823F2E701230020EFE700BF0080005037
:109C800038B5184B0546D3F820010C4600F0070004
:109C9000062823D8DFE800F0040A0E16121A1E0068
:109CA000012305B1286004B1236038BD69F052FF7B
:109CB0000523F6E769F08EFF0323F2E769F094FFCE
:109CC0000723EEE769F082FF0223EAE769F042FF2B
:109CD0000623E6E769F07EFF0423E2E70023184647
:109CE000DFE700BF0080005038B5104B0546D3F8C1
:109CF00040310C4603F00303022B0BD0032B0DD095
:109D0000012B0FD16DF09EF90A2305B1286004B133
:109D1000236038BD69F0B0FF0923F6E76DF095F9CF
:109D20000C23F2E701230020EFE700BF0080005082
:109D3000002337B50193164B0546D3F860320C4625
:109D400003F00703013B032B1FD8DFE803F0020EEB
:109D50001914002101A8FFF793FF10230DB1019AF8
:109D60002A6004B1236003B030BD002101A8FFF7D1
:109D7000BBFF1123F2E769F037FF07230190EDE7FE
:109D800069F024FF02230190E8E70023E6E700BF23
:109D900000800050002337B50193164B0546D3F8D9
:109DA00094320C4603F00703013B032B1FD8DFE876
:109DB00003F0020E1914002101A8FFF761FF102320
:109DC0000DB1019A2A6004B1236003B030BD0021B7
:109DD00001A8FFF789FF1123F2E769F005FF0723C8
:109DE0000190EDE769F0F2FE02230190E8E700231D
:109DF000E6E700BF0080005038B5104B0546D3F8A9
:109E000060310C4603F00303022B0BD0032B0DD063
:109E1000012B0FD16DF016F90A2305B1286004B1AA
:109E2000236038BD69F028FF0923F6E76DF00DF9CE
:109E30000C23F2E701230020EFE700BF0080005071
:109E40002E4B98424AD022D82D4B984240D014D85D
:109E50002C4B984239D00AD82B4B984232D02B4BFE
:109E600098422FD02A4B98422CD000207047294B83
:109E70009842FAD1284B186F7047284B98422AD045
:109E8000274B9842F1D1244BD3F880007047254BE3
:109E900098422BD009D8244B984223D0234B984288
:109EA000E3D11D4BD3F88C007047214B984221D051
:109EB00003F5740303F510539842D6D1164BD3F82B
:109EC00098007047144B986D7047134B586E70474D
:109ED000114B586F7047104B986F70470E4BD3F86B
:109EE000840070470C4BD3F8880070470A4BD3F8B6
:109EF00090007047084BD3F8940070470048E80181
:109F00000024F400C0CF6A0080841E0000093D00D8
:109F100040420F00405DC6000080E00FC0EA210112
:109F200080BA8C01007E560380D54302006CDC02AF
:109F30000090D00373B50D460021114B0191D3F869
:109F40008041064604F00304022C13D0032C0CD0ED
:109F5000012C13D101A8FFF793FE10240EB1019B31
:109F6000336005B12C6002B070BD69F03DFE07247E
:109F70000190F3E769F02AFE0190EFE70C46EDE768
:109F80000080005038B5104B0546D3F840320C46DF
:109F900003F00303022B0BD0032B0DD0012B0FD1A9
:109FA0006DF050F80A2305B1286004B1236038BD74
:109FB00069F062FE0923F6E76DF047F80C23F2E73B
:109FC00001230020EFE700BF0080005038B5144B9C
:109FD0000546D3F800020C4600F0070004281BD801
:109FE000DFE800F003090D111500012305B1286019
:109FF00004B1236038BD6DF025F80A23F6E769F057
:10A000003BFE0923F2E76DF020F80C23EEE769F040
:10A01000C7FD0F23800AE9E700231846E6E700BFE3
:10A020000080005038B5144B0546D3F808020C46A2
:10A0300000F0070004281BD8DFE800F003090D1129
:10A040001500012305B1286004B1236038BD6CF010
:10A05000F9FF0A23F6E769F00FFE0923F2E76CF037
:10A06000F4FF0C23EEE769F09BFD0F23800AE9E77C
:10A0700000231846E6E700BF00800050B0F5207FBF
:10A080001FD009D8B0F5007F15D003D868B1B0F55E
:10A09000C07F0AD000200CE0B0F5607FFAD10B4BF6
:10A0A000D3F88000C0F3011003E0084B186FC0F331
:10A0B000033001307047054BD3F89000C0F30460C3
:10A0C000F7E7024B186FC0F38020F2E700800050E2
:10A0D00002464FF48030104B10B598660020FFF711
:10A0E000CDFF504341F671320C4BDC69DA635A689C
:10A0F00004F4803422F4401259B90949884294BFCB
:10A1000000200120000502435A600CB10022DA63EE
:10A1100010BD0449F2E700BF00900050000003505A
:10A12000005A6202002D3101430905D0012B0CD0E9
:10A13000022B084B18BF002300F01F0039B103F5B4
:10A140008053012282401A607047034BF4E703F505
:10A150000053F6E768800050648000501FB500216E
:10A16000B0F5807F0446CDE9001100F0D2803AD8E6
:10A170005E2833D85E2833D8DFE800F0453232322B
:10A1800032323232323232323232323232323232AF
:10A1900032323232323232323232323245AC45AC85
:10A1A000BCBCBCBCBCACC64E6BDC4EACACAC323246
:10A1B000323232323232ACACAC7EE6AC3232323297
:10A1C000323232323232323232BC454545E14E4EC5
:10A1D000EB8D63C132323232329E4500802870D01E
:10A1E000009804B010BDB0F5D06F00F0A38035D852
:10A1F000B0F5607F79D01AD8B0F5007F65D005D86A
:10A20000B0F5C07FECD169F0CBFC5CE0B0F5207F0D
:10A2100060D0B0F5407FE3D169F0C2FC02464FF454
:10A220002070FFF72BFFB2FBF0F252085BE0B0F5B5
:10A23000B06F69D00AD8B0F5806F5BD0B0F5A06F71
:10A24000CED100216846FFF7A1FCC9E7B0F5C06F89
:10A25000C6D100216846FFF747FDC1E7B0F5106F92
:10A260006DD00ED8B0F5086F78D0B9D8B0F5E06FE2
:10A270006AD0B0F5F06FB3D100216846FFF7BCFD9E
:10A28000AEE7B0F5406F3AD013D8B0F5206F60D08C
:10A29000B0F5286FA4D10021324B0391D3F870326E
:10A2A00003F00303012B02D103A8FFF71DFD039B5D
:10A2B00039E0B0F5486F93D100216846FFF76AFD99
:10A2C0008EE769F04DFC00908AE769F049FC024690
:10A2D000204604E069F064FC02464FF42070FFF76A
:10A2E000CDFEB2FBF0F200927AE701A8FFF780FC06
:10A2F000019AEDE700216846FFF7C2FC70E70021F4
:10A300006846FFF711FC6BE700216846FFF712FE75
:10A3100066E74FF0E02302911B695B0705D569F002
:10A320003FFC0290029B00935AE703A902A8FFF7A3
:10A33000DBFCF7E700216846FFF748FE50E7002105
:10A340006846FFF76FFE4BE700216846FFF71AFEED
:10A3500046E700216846FFF7EBFC41E76846FFF758
:10A360006BFC3DE70080005008B58020FFF7F6FE4B
:10A37000034B98429EBF4FF48032024B1A6708BDD0
:10A38000005A620200A000501FB503460020B3F53A
:10A39000807F019000F0C58065D85D2B56D84C2B8E
:10A3A00007D82D2B48D8232B2CD8019805B05DF861
:10A3B00004FB4D3B102BF8D801A252F823F000BF4C
:10A3C00019A50008ABA30008ABA30008ABA30008C5
:10A3D000C7A40008ABA30008ABA3000873A500083E
:10A3E000E5A400088BA4000869A50008ABA3000839
:10A3F000ABA30008ABA30008ABA30008ABA3000805
:10A400007DA50008243B092BCFD801A252F823F0E8
:10A4100019A5000819A5000819A5000819A5000824
:10A4200019A50008ABA300080FA50008ABA30008FE
:10A43000A7A400084FA500083D2B00F083803E2B09
:10A44000B3D1002001A9FFF79DFDAEE7802BACD171
:10A45000504B1B6F03F00703013B032BA5D8DFE82C
:10A4600003F0544D5052B3F5F06F6BD020D8B3F5D4
:10A47000B06F4CD00ED8B3F5607F71D095D3B3F5E3
:10A48000806F49D0B3F5A06F8FD1002001A9FFF7ED
:10A490007DFB8AE7B3F5D06F59D0B3F5E06FD0D02C
:10A4A000B3F5C06F81D1002001A9FFF71DFC7CE747
:10A4B000B3F5206F5DD00BD8B3F5086F4CD0B3F572
:10A4C000106F7FF472AF002001A9FFF7ABFD6CE7BE
:10A4D000B3F5406F48D0B3F5486F4FD0B3F5286F50
:10A4E0007FF463AF2B4BD3F8703203F00303012BDF
:10A4F00049D0022B0CBF1523002300E00523019354
:10A5000053E70323FBE70823F9E70223F7E70020DB
:10A5100001A9FFF70FFD48E7002001A9FFF7B0FBF5
:10A5200043E74FF0E02302901B695B0705D569F014
:10A5300037FB0D230393039BE1E703A902A8FFF771
:10A54000D3FBF8E7002001A9FFF756FC2DE7002018
:10A5500001A9FFF73BFD28E701A9FFF76DFB24E701
:10A5600001A9FFF745FB20E7002001A9FFF7DCFA6E
:10A570001BE7002001A9FFF7DBFB16E7002001A97C
:10A58000FFF708FC11E7002103A8FFF7ADFB11233B
:10A59000B5E700BF008000504FF48032074B0849F8
:10A5A000586E03F580535A664B6A23F001034B62E1
:10A5B000C3035CBF034B5A66704700BF0080005066
:10A5C00000C0075000A0005008B5FFF7DDFE0928C5
:10A5D00011D00A38012802D94FF6FF7008BD4FF498
:10A5E0008002064B5A6603F5D8335B6ADB07F3D566
:10A5F0004FF4FA70F2E7024B1888EFE70090005032
:10A6000078C8002008B5FFF7BFFE03280ABF024B39
:10A610004FF6FF70188808BD76C8002038B504468C
:10A620008020FFF7B1FE032800F083804FF48012F2
:10A63000524B4FF0A0615A6645F60E02504BC3F8DC
:10A640008020504A91624FF4803102F5805291622D
:10A650009A6DD203FCD4996D11F08041FBD1D4E9FD
:10A660000002120542EA0062E07B0243207B42EADC
:10A670000042607B42EA0032A07B42EA80121A610B
:10A680009869D4E90452120642EA856200F000405B
:10A690000243A07EE57E0243207E42EA0042607EC5
:10A6A00042EA00229A611A6AE06922F00F0242EA45
:10A6B0008502354D00283DD11A6294F82420996A0C
:10A6C00094F82000D200294042EA40120A4394F84C
:10A6D000211042EA011242F480329A622B49284A40
:10A6E000936D31EA0303FBD14FF0807125488162FD
:10A6F0001369A56823F4700343EA055313614FF00F
:10A700000043836194F822300BB9214B996294F88D
:10A7100023303BB94FF480321D4B9A62184A936D37
:10A720005B00FCD494F825301BB1154B194AC3F8D3
:10A73000802038BD024342F0080202281A6208D184
:10A7400019614FF40852996113484FF47F4143F067
:10A75000E9FA0B4994F822308A6A94F820001B0623
:10A760002A4043EA4013134394F8242043EAC203E7
:10A7700094F8232043EA02438B62D3E70090005011
:10A780000040005A0050005AC7FFFEFE03000100BF
:10A790000060005AF1A7FFFF3440005A014B93F9C3
:10A7A0000000704791C80020F0B5D0E901434FF494
:10A7B00000061A4A4178057856664FF4D1560227AA
:10A7C00002F5B8325662164E4F2977604FF00107F6
:10A7D00028BF4F2106F5805677601669F603FCD432
:10A7E00041EA052151611B01417B43EA04230B43EC
:10A7F000017B43EA41039360C37B817B1B0143EAF6
:10A800004113417C0B43017C43EA41035360837C49
:10A8100013B16FF4D1535362F0BD00BF00900050EC
:10A8200000100250014B1880704700BF78C800200C
:10A83000014B1880704700BF76C800204FF480029B
:10A8400008B5184B5A660223174A5360936813F4ED
:10A850008033FBD1012822D169F0BCF9134B984217
:10A8600015D003F5122303F5F863984213D0104B6B
:10A8700000EB8002400AB3FBF0F3520A0A49CA62B5
:10A880000B6301234B620022074B5A6008BD45F65B
:10A890007A13084AF2E745F61A03074AEEE75362CD
:10A8A000F1E700BF009000500040025000F0490264
:10A8B00064666666D8B80500BBCF0500B0F5207F9A
:10A8C00010B50C465DD008D8B0F5007F4ED003D847
:10A8D000C0B1B0F5C07F15D010BDB0F5607FFBD121
:10A8E0002C4B4C1ED3F8FC202B4912F0807F4FEAF2
:10A8F000041427D1D1F8803023F030032343C1F86A
:10A900008030E9E743F01DFA43F029FA4FF4803133
:10A91000224B214A1967136F013C23F4704343EA29
:10A920000433136769F03CF90446FFF7F1F8C0F10E
:10A930000201204643F00DFA00F04AF8BDE810404D
:10A94000FFF712BDD3F8FC2022F08072C3F8FC2080
:10A95000D1F8802022F030022243C1F88020D3F8C1
:10A96000FC2042F08072C3F8FC20B5E70A4A4C1E76
:10A97000D2F8903023F0F85343EA0463C2F89030E1
:10A98000AAE7054A4C1E136F23F4806343EA84232D
:10A990001367A1E700ED00E0008000500090005038
:10A9A00008B50121022000F095F94FF42070FFF75F
:10A9B00065FB054B187043F0C4F943F0D0F94FF430
:10A9C0008032024B1A6708BD35B700200090005056
:10A9D00008B54FF4C070FFF7C1FBBDE8084004495B
:10A9E000884294BF012102214FF42070FFF766BF17
:10A9F00080F0FA0238B5044669F0D2F80546FFF750
:10AA000087F8C0F10201284643F0A3F90121002094
:10AA100000F0A0F92CB1FFF7DBFFBDE83840FFF7ED
:10AA2000A3BC034B4FF420701978FFF747FFF4E7FE
:10AA300035B700204FF4C02270B50546FFF700FA85
:10AA4000314B04465A6603F598335A68012A04D1FB
:10AA50002E494A605A689207FCD48020FFF794FC84
:10AA6000052807D143F06DF943F079F94FF48032AE
:10AA7000254B1A67264B24F040749D4230D0254B5D
:10AA80009D4230D069F066F88542064603D901211F
:10AA9000284600F05FF9204BDA6812F0060FFBD170
:10AAA00099689C609A68624012F4F81F1ED128468B
:10AAB000FCF776FD8020FFF767FC05280DD169F0D3
:10AAC0006FF80446FFF724F8C0F10201204643F076
:10AAD00040F9FFF77DFFFFF747FCAE420CD270BD97
:10AAE00044F00074CEE744F08074CBE78020996096
:10AAF000FFF74AFC052805D0BDE870400121002081
:10AB000000F028B93546DAE70090005000E0015027
:10AB100040420F0080841E0000000150304B314A3B
:10AB2000984251D020D8A3F5B703A3F558639842B3
:10AB300046D00DD82C4B984231D02C4B984239D06E
:10AB40002B4B4FF4002198421DD00023516622E088
:10AB5000284B4FF400219842F7D1274BD3F8BC3053
:10AB6000516623F0407316E0244B984230D0244BBA
:10AB7000984231D0234B4FF400219842E5D11E4B2F
:10AB8000D3F8C830ECE71C4BD3F8A030516623F063
:10AB9000407343F000734FF0B442936070474FF43A
:10ABA0000021154BD3F8A030516623F0407343F0D9
:10ABB0008073F0E7104BD3F8A0304FF40021CFE7BB
:10ABC0000D4BD3F8B830F8E70B4BD3F8C030F4E7AF
:10ABD000094BD3F8CC30F0E7074BD3F8D030ECE793
:10ABE000C0EA21010090005080841E0000093D0051
:10ABF00040420F000024F4000080E00F0048E8010C
:10AC0000005A620280BA8C01024A536B0342FCD1A3
:10AC1000704700BF00400950044A4178536F23F445
:10AC2000407343EA01235367704700BF0040005060
:10AC30000E4A10B51369044643F00403136169F02A
:10AC400023FE43F091F80A4B5B6E5B0142BF094B58
:10AC5000094AC3F8202430BF43F087F805F014FDFB
:10AC60001CB9BDE8104068F09BBF10BD00ED00E0CE
:10AC70000080005000E003500000FF0F0C4A10B5A8
:10AC80001369044643F0040313610A4B5B6E5B01D6
:10AC900042BF094B094AC3F8202469F0F5FD30BFD3
:10ACA00005F0F2FC1CB9BDE8104068F079BF10BD9A
:10ACB00000ED00E00080005000E003500000FF0FB6
:10ACC000034A0179D36E23F030030B43D3667047F8
:10ACD00000400050F8B504461C4BD3F88420D10640
:10ACE000FBD4D3F88430C3F381139C422CD068F09A
:10ACF00037FF012C064602D1214643F02AF86CF0BA
:10AD0000ACF94FF00072124B07465A66204643F0EA
:10AD10002FF84FF480630D4D621E93402B676B6ECE
:10AD20009A0103D4D5F884309B060AD538466CF0D6
:10AD30008FF9022C08D13046BDE8F840002143F0DD
:10AD400008B8D5F88430EAE7F8BD00BF00400050ED
:10AD50000060005010B50C4608B968F001FF074BC1
:10AD600021461B783BB1064B984204D80120BDE830
:10AD70001040FFF7AFBF0220F9E700BF36B7002051
:10AD8000005A62020278034B012100201A70FFF77B
:10AD9000E1BF00BF36B700204FF0004238B5244B6A
:10ADA000244C5A664AF6CD33656C014605F0010520
:10ADB000236428BB0120FFF727FF6368DB0715D555
:10ADC0001D4B586008461D4B226BD2070CD498428D
:10ADD00008D1072415B1174B194A1A6464F0E2FE32
:10ADE000204638BD0130EFE79842F2D00024F1E769
:10ADF0000132236B13F0080305D08A42F8D1E8E74B
:10AE000000220E49F5E78A42E3D020210A4A9162E6
:10AE10000121A2F5805251600649084A886A8006DD
:10AE200003D49342D5D00133F8E79342DDE700BF66
:10AE300000900050004009500060095040420F004F
:10AE40003254FFFF4FF0004238B5164B01465A66A8
:10AE50004AF6CD33144C154A656C236443780B20B5
:10AE60005B0043F00103D363FFF7CEFE63688A788B
:10AE700023F4F87343EA02136360CA784B7943EA18
:10AE80000223A3600A798B7943EA022323610878BD
:10AE9000FFF782FFEB0744BF054B236464F082FE9B
:10AEA000012038BD00900050004009500040005083
:10AEB0003254FFFF4FF00042124B70B55D6E03F548
:10AEC00080535A664AF6CD3304460F4980204E6CB3
:10AED0000B64FFF799FE0B6A23F00F030F2C94BF4E
:10AEE000234343F00F030B62F30744BF074B0B648C
:10AEF000002DA2BF4FF00042054B5A6664F052FE8F
:10AF000070BD00BF00800050004009503254FFFF68
:10AF100000A000504FF00042104B70B55D6E03F57D
:10AF200080535A664AF6CD3304460D4980204E6C54
:10AF30000B64FFF769FE0B6A23F4F85343EA04231A
:10AF40000B62F30744BF074B0B64002DA2BF4FF009
:10AF50000042054B5A6664F025FE70BD008000502B
:10AF6000004009503254FFFF00A0005010B542F0DD
:10AF700004FF042300F5805100F500520B611361BA
:10AF80000B6113610B6113610B611361202341F2AB
:10AF9000020103610023C360836041614FF4A0217B
:10AFA0008361836541620549C36103628362C36251
:10AFB00043630365D164036310BD00BFFF3F0D030E
:10AFC00070B505461446084641B9354B9D4218D028
:10AFD000344B9D4208BF5720FFF7C0F8AB6813F011
:10AFE000010F6B6830D0B0FBF4F4D80704F1FF34E4
:10AFF0004FEA046407D42B6923F07F4323432B617A
:10B0000070BD5620E8E72821284642F0B2FEAB6C1E
:10B01000990715D1AB6CDA0714D4AB6C13F0020F9F
:10B0200014BF06260026284642F0A7FE2B693146AB
:10B0300023F07F4323432B61BDE8704042F0D4BE30
:10B040000526F0E70926EEE7AB6DDB07AB6848BFE6
:10B05000640003F0E003402B1BD004D8DBB1202BAD
:10B06000CED1082304E0602B17D0802BC8D1012358
:10B0700063434101B1FBF3F20B4B203A284603EA4C
:10B08000C202012142F075FE2A63BDE8704042F021
:10B0900070BE0623ECE71023EAE70423E8E700BFCD
:10B0A0000000015B00000A50F8FF7F002DE9F84323
:10B0B0009846436804460E4617461BB140F6FF719A
:10B0C00042F057FE2046FFF751FFF189737B62691A
:10B0D0000B43318A22F44C520B4322F00F021343EC
:10B0E0006361A268317E337B22F0804222F0E2026B
:10B0F0000B4313437269D6F808901343A360B9F168
:10B10000000F03D1A36843F00043A360F069002857
:10B1100074D0857A037A6D04A26845EA83556D4B35
:10B1200013401D43838803F4C0431D43437845EA1D
:10B130008305437B45EAC305837B45EA0315837892
:10B1400045EA8325A560D0E90432E5681343624AE5
:10B150002A401343827943EA8223C27943EA422395
:10B16000E36003785D4A012B14D1E36843F00403E4
:10B17000E360944200F09280594B9C420CBF012343
:10B180004FF0FF335B0103F1A04342F2944203F519
:10B19000703314E0032B7BD1E36843F00403E360D6
:10B1A000944279D04E4B9C420CBF01234FF0FF33A9
:10B1B00041F294425B0103F1A04303F57033022591
:10B1C0009D50437A04F5805293621BB1E36843F4C7
:10B1D0000063E360C37A5BB1E36843F40043E36078
:10B1E0003E4B9C425CD1037B3E4A03F00F03536706
:10B1F000636AC27B23F00303134363623FB197F892
:10B20000203004F58050002B54D001230362B8F1A4
:10B21000000F27D004F5805011B14FF4004383652F
:10B220002E4BB8F822109C4298F821304FD02C4A6F
:10B2300094420DD10122112B34BF012702272A4D40
:10B24000B1F5006FAF5494BF01270227274DAF54CB
:10B25000A26D0B4322F4F95222F01E021343A365A0
:10B26000012383650521204642F0A1FDB9F1000FBD
:10B2700003D04A467168FFF7A3FE2046317842F0BA
:10B28000B3FDA36CDB4313F4405FFAD1BDE8F88350
:10B29000023B012B84D96CE7002389E7002371E787
:10B2A0000F4B9C4201BF037B0E4A03F00F03C2F811
:10B2B00080309DE7E26997F8223097F8215022F01C
:10B2C00009022B43134343F00103C3619FE70022AC
:10B2D000B1E700BFE39BBDFFFFF9F0870000015B12
:10B2E00000000A500090035039B7002037B7002003
:10B2F0002DE9F04105460F461E4690464AB101230E
:10B300003022194C8B4002FB004436B304F58254C2
:10B3100023600F21072F05EB450388BFA7F1080421
:10B320004FEA0313114895BFBC00A40004330C334B
:10B3300008FA04F2A140184442F066FDB8F1000F8B
:10B3400009D101233021084ABB4001FB05223EB14F
:10B3500002F582521360BDE8F08104F50154D7E78D
:10B3600002F50152F6E700BF00C0035030C00350A1
:10B37000F8B505460E4614465AB303F00307836832
:10B3800023F4407383606BF068FEAA6882EA0723A7
:10B3900003F440735340AB606BF05AFE36B9B5F11D
:10B3A000B64F17D12E20FEF7D9FE0646AB680C4BE0
:10B3B000DA5D62430DD0A2EBC403013B3344B3FB1F
:10B3C000F2F3AA68013B920702D5002B08BF0123C4
:10B3D000AB61F8BD034B9D42E8D12F20E3E700BFEE
:10B3E0000F8A07080080065038B500230E4A036410
:10B3F00000F50053DA634A7804460D4600F108036D
:10B400007AB903F5805302221A602046D5E9011269
:10B410002B7BFFF7ADFF20462978BDE8384042F08E
:10B4200002BD03F50053EEE7FFFF1F00B0F1B64F7A
:10B4300070B519D0804B984240F0FA807F4B9968E4
:10B44000C26B12F4C06F15D091050FD5FD225A7052
:10B4500009221A700022026493F90110012900D117
:10B460005A7093F9010070BD754BE8E75605EFD5AA
:10B47000FE22ECE71C78082C00F2D680DFE814F0FE
:10B4800009001F004500530070007E009C00A700CB
:10B49000CB004C880A88E5060AD5120A02F006029B
:10B4A00042F0F002012119704263C1600120DAE725
:10B4B00002F0FE02A10748BF42F00102F2E71606C1
:10B4C00008D5802100F50052D1634FF608721A802A
:10B4D000022318E05506E9D5402400F50052D46354
:10B4E0004A88D40604D502221A700B784363DDE73C
:10B4F00096076AD507221A701B7901EBC3031B89D3
:10B50000012BD3D10823C360D0E71506D9D4540644
:10B51000CCD5402400F50052D4634A88920754D514
:10B5200003221A708CE74C880A88E60643BF120A89
:10B5300002F0060242F0F00202F0FE02650709D5B1
:10B540001C7942F0010201EBC4010989012904BF01
:10B550000821C160042119700123C3604263A5E77B
:10B560001406AED45206A1D5402400F50052D4638F
:10B570004A88560729D507221A7097E71A795D88F5
:10B5800001EBC2042689AE420FD800240132D2B2A8
:10B590001A715C804C886507C2D4E40702D4012A82
:10B5A0007FF64EAF08221A7092E76268691C5980D4
:10B5B000525D42630622DFE7160682D455067FF508
:10B5C00075AF402400F50052D4630522A9E7940624
:10B5D0007FF56CAF20261A7900F5005401EBC2010B
:10B5E0000A89456AE6635C88A24281BF4968661C95
:10B5F0005E800D5559888A42D4D90424012AC4603A
:10B6000004D0013A914201D10822C2601A78092A75
:10B610003FF420AF4AE7D2057FF548AF4FF4807181
:10B6200000F50052D16313E74FF609321A8011E793
:10B630006FF0030017E700BF008006501491002050
:10B6400008910020B0F1B64F10B407D01A4B9842C1
:10B650002ED06FF003005DF8044B7047174B026962
:10B66000D20744BF2022C2604A88940702D50C89C1
:10B67000002CEED0520702D50A8A002AE9D04FF4F6
:10B6800080721A60002299601A71C023C3604369F6
:10B69000DB050FD4202200F50053DA63084A5DF879
:10B6A000044BDA63036C43F4FC630364FFF7BEBE30
:10B6B000044BD4E7436AEAE7008006500891002073
:10B6C000FFFF1F001491002010B5152003F06EFD40
:10B6D0000024FF22064B21465C6520209A625C60B4
:10B6E000FEF722FD2146BDE810402120FEF71CBDDB
:10B6F00000000450044A054B002908BF13460122EC
:10B7000082401A60704700BF40100450402004502F
:10B7100010B5012104462020FEF706FD012121205D
:10B72000FEF702FD0122114B15205A602278120605
:10B730009A606178A27842EA01429A61FF229A6295
:10B7400000229A631A644FF000425A654FF0FF32AC
:10B7500003F500531A6503F057FD1520E17843F017
:10B7600036FEBDE81040152003F032BD0000045045
:10B77000F8B50125C3B2D1F800E091F80AC00F7BFB
:10B780000C469D40CB7A1D491D4E0D65810001F18F
:10B79000A04101F58821C1F804E04FF0300E0EFB06
:10B7A00000601B05617B43EA0C4343EA475322F0E8
:10B7B00003020166C36502676BF062FC114B5D65B5
:10B7C000237A13B1336C2B433364637A13B1B36BB5
:10B7D0002B43B3632279A37943EA0243074A936177
:10B7E0006179E37943EA014306498B61044B556370
:10B7F0009D64BDE8F8406BF03EBC00BF00200450E3
:10B80000000004500010045010B50124C0B2844060
:10B810006BF036FC044B5A6D22EA04025A659C62B6
:10B82000BDE810406BF027BC0000045010B50124A7
:10B83000C0B284406BF024FC074BDA6A224208D184
:10B840005B6B9C430CBF012400246BF014FC20466E
:10B8500010BD0024F9E700BF0000045070B5054694
:10B860006BF00EFC3022084B5E6B02FB05335C6E06
:10B870006BF001FC0123EDB2AB4033420ABFC4F3CD
:10B880000A100020013070BD000004504FF48032D7
:10B89000054B9A6641F6713203F51C33DA630122D7
:10B8A00003F50053DA6070470090005041F67132A2
:10B8B0000121064BDA6303F50052D1600022DA63FE
:10B8C0004FF48032A3F518339A6670470000035096
:10B8D000013831289ABF024B185C0020704700BF26
:10B8E000138A0708021E30B54FF000000CBF102568
:10B8F000042547F60774084952B9831D51F82330CF
:10B90000234023B101308542F6D14FF0FF3030BDE6
:10B9100000F11603F2E700BF0080035038B5C2F310
:10B920000625044602F0070241B942EA052242F424
:10B9300040220634074B43F8242038BD11462846E0
:10B9400042F07BFA02462846FFF7C2FF163442EA6D
:10B950000022EFE700800350044B1868421C02BF2E
:10B96000034AD2F894001860704700BFA4C50020B5
:10B97000004000504FF48032064B5A6603F5E62330
:10B980009B69C3F38512827003F03F021B0B427068
:10B99000037070470090005040F6B732064B5B686A
:10B9A0009BB293429FBF4FF47A72B3FBF2F3034A08
:10B9B000D05C88BF002070470080E00F458A0708F0
:10B9C000014B986CD96C70470080E00F0120034B4D
:10B9D0009B680A3303F01F03984070470080E00F14
:10B9E0000122437801789A4030235943014B5A5041
:10B9F000704700BF40E00350034BD3F82424D3F832
:10BA000020041040704700BF00C00350064BDA6EA0
:10BA100002F03002202A06D0DA6E22F0300208B19D
:10BA200042F01002DA667047004000502DE9F843FA
:10BA30001F4B0546D3F810334B1E0E2B0E461746F0
:10BA4000047890F8018026D951B34FF000092846B8
:10BA50001FB368F085F90F21B8F1070F04EB440418
:10BA600088BFA8F108084FEA0414124895BF4FEAAE
:10BA700088084FEA880804340C3409FA08F201FAFD
:10BA800008F1204442F001FA86B9284657B1BDE8D2
:10BA9000F84368F065B98946D9E7FFF7A1FFDAE70F
:10BAA0008946D8E7BDE8F843FFF79ABFBDE8F883B9
:10BAB00000C0035030C003502DE9F0412B4B174616
:10BAC000D3F810234A1C06460C46407804D1D3F81C
:10BAD000241442F0E9F90446002C2FDB072C4FF028
