S0100000636F325F62745F76312E733337A5
S31508012000C80A00200D350108711F0308711F03084E
S31508012010C1400308711F0308711F0308711F0308D4
S31508012020711F0308711F0308711F0308711F030835
S31508012030711F0308400B040863410308711F030855
S31508012040711F0308711F0308711F0308711F030815
S31508012050711F0308711F0308711F0308711F030805
S31508012060711F0308711F0308711F0308B12F0108A7
S31508012070C11E0308711F0308711F0308711F030896
S31508012080711F0308711F0308711F0308711F0308D5
S31508012090711F03080D3E0108711F0308711F03080C
S315080120A0711F03087539010855390108711F03089D
S315080120B0711F03081DBE0208C9C802083FBD0308EF
S315080120C03BBD030859C0020855BD030843BD0308B3
S315080120D099C8020847BD030809C9020875C9020853
S315080120E0711F0308711F0308711F0308711F030875
S315080120F02B3A0308711F0308711F0308711F030890
S31508012100711F0308711F0308711F0308711F030854
S31508012110711F0308711F0308711F0308711F030844
S31508012120711F0308711F0308711F0308711F030834
S31508012130711F0308711F0308711F0308711F030824
S31508012140711F0308711F0308711F03084904040856
S3150801215091A30208711F030829BD03082FBD0308AF
S31508012160711F0308711F0308711F0308711F0308F4
S31508012170F0B5114A114C124E00F00105E3695F07EB
S3150801218013D40DB9334213D103EA00078F4207D19D
S315080121900B4A1A40002A0CBF00206FF00100F0BD5F
S315080121A0013AEBD16FF00200F9E74FF0FF30F6E79D
S315080121B06FF00100F3E700BF809698000000035016
S315080121C0020001000B4B70B5D96911F480310DD1AC
S315080121D001244FF48072084E084DF46020462C64A1
S315080121E01A61FFF7C5FF3464EC6070BD6FF001003A
S315080121F0FBE700BF00000350001003500020035006
S315080122004FF4803238B50E4B0E4C9A66E56941F6A5
S31508012210713315400122E3630B4B0021DA60022377
S31508012220606121202361FFF7A3FF10B92120FFF781
S315080122309FFF0122054BDA600DB10023E36338BD28
S315080122400090005000000350001003500020035076
S3150801225070B5134C6061E3695B071ED40E4656F8E8
S31508012260043B8D18A361AE420BD104230021212022
S315080122702361FFF77DFF58B9BDE870402120FFF7BC
S3150801228077BF08210846FFF773FF10B104232361BE
S3150801229070BD56F8043BA361E5E74FF0FF30F7E759
S315080122A0000003502DE9F84315464FF48032184BC8
S315080122B089469A6603F51C33DF690646174041F6D7
S315080122C07132DA63012203F58053DFF84C80DA6054
S315080122D055B9284601220F4BDA601FB10022A3F532
S315080122E00053DA63BDE8F88306F5005404EA0804E6
S315080122F0A41BAC4228BF2C46494622463046FFF766
S31508012300A7FF0028E6D12644A1442D1BE0E700BF1C
S31508012310009000500020035000E0FFFF000000007D
S31508012320000000000000000000000000000000009E
S31508012330013800D0FCE77047002370B5424C0546CA
S315080123408AB0E36318B1008823600EF0DDFE0FF052
S3150801235085F83E4828F019FF3D4E3E4B304633601E
S315080123603D4B736025F0BAFE0021304613F074FC2C
S3150801237033A3D3E90023A062C4E9062325F0B9FEF5
S31508012380D4E9062319431043C4E90601CDE900013E
S315080123904FF0FF334FF0FF32A06A28F09DFF02226B
S315080123A04FF0FF31A06A28F09CFF01200EF030FCA7
S315080123B04FF4007300222949A06A29F094F8B0F570
S315080123C0007F39D100239422079309933C23CDE951
S315080123D003320593962306935023A06A03A908930B
S315080123E013F054FD35B3287C0FF04AF80546F0B9C9
S315080123F0A06A29F06DF90FF0D1F80EF0EBFB20B1C8
S315080124004FF4807000210BF045FB0EF0F3FB20B171
S315080124104FF4006000210BF03DFB25F035FF01204C
S3150801242028F087FE0E4A0F49A06A25F055FE284670
S315080124300AB070BDFF20D7E70725F8E7AFF300809C
S315080124400DD5015520000000380B0020690345EC25
S31508012450641E0020490A0208741E0020641C00201C
S3150801246081800308C18003080348044B834202D0D4
S31508012470034B03B118477047E82C0020E82C0020CD
S3150801248000000000064B0749C91A891048BF0131E7
S31508012490491003D0044B0BB101481847704700BFD8
S315080124A0E82C0020E82C00200000000010B5064C9E
S315080124B0237843B9FFF7D8FF044B13B10448AFF3A8
S315080124C000800123237010BD34270020000000007E
S315080124D06067040808B5054B1BB105490548AFF304
S315080124E00080BDE80840FFF7CDBF00BF000000002F
S315080124F0B80D002060670408A3F5803A704700BF4D
S31508012500174B002B08BF134B9D46FFF7F5FF00211C
S315080125108B460F461348144A121A2CF005FA0E4B2D
S31508012520002B00D098470D4B002B00D09847002070
S31508012530002104000D000D48002802D00C48AFF315
S3150801254000801EF055FE200029001FF02BFC1EF00E
S315080125503DFE00BF0000080000000000000000006A
S31508012560C80A0020C80A00208028002000000000B0
S31508012570000000000122014B1A707047372700201E
S315080125801FB5032000F002FE60B13C4C3C492068AF
S3150801259021F09CFA1FF09DFC1FF09CFC394920682C
S315080125A021F094FA08F0E2FF41F2883008F01AF9AE
S315080125B0032000F0EBFD60B1304C3149206821F071
S315080125C085FA1FF086FC1FF085FC2F49206821F04B
S315080125D07DFA0DF10E0203A90DF10A0022F0B1FEF2
S315080125E0002837D0032000F0D1FD98B1234C2449A7
S315080125F0206821F06BFA1FF06CFC1FF06BFCBDF82C
S315080126000A30BDF80C2000932049BDF80E30206829
S3150801261021F05CFABDF80C309BB905230220ADF810
S315080126200C3000F0B3FD60B1144C1949206821F053
S315080126304DFA1FF04EFC1FF04DFC1649206821F09B
S3150801264045FABDF80C0008F08BFE0022124B1A70F1
S3150801265004B010BD022000F099FD60B1074C0C4989
S31508012660206821F033FA1FF034FC1FF033FC0B49C4
S31508012670206821F02BFA0520E5E700BFC80E0020E7
S31508012680C8040408CD040408DE040408FA0404088E
S31508012690250504082A050408352700204D050408E0
S315080126A030B57C4C87B02378002B40F0958008F034
S315080126B07FFE002840F0908008F082FE08F070FE48
S315080126C0002841D001230320237000F05FFD60B18B
S315080126D0714D7249286821F0F9F91FF0FAFB1FF0CC
S315080126E0F9FB6F49286821F0F1F9002341F2883195
S315080126F0CDE900336B4A6C482DF04AFA054618B302
S31508012700654C6A49206821F0E1F96949206821F098
S31508012710DDF91FF0DEFB1FF0DDFB664B664A009311
S3150801272066494C23206821F0D1F965492B46654A4B
S31508012730206821F0CBF9284600F06EFD6249206831
S3150801274021F0C4F900BEFDE708F032FE002800F0CA
S315080127508B8001230220237000F018FD60B14E4CD6
S315080127605A49206821F0B2F91FF0B3FB1FF0B2FBFA
S315080127705749206821F0AAF9002341F28831CDE9A9
S315080127800033484A48482DF003FA054600286BD01D
S31508012790414C4649206821F099F94549206821F0BC
S315080127A095F91FF096FB1FF095FB424B424A0093A1
S315080127B042495A23206821F089F941492B46414A61
S315080127C0206821F083F9284600F026FD3E49206855
S315080127D021F07CF900BEFDE73E4B1A78002A43D06A
S315080127E03D4A1278002A3FD0002203201A7000F0D1
S315080127F0CDFC60B1284C2949206821F067F91FF002
S3150801280068FB1FF067FB3549206821F05FF94FF631
S31508012810FF730DF10E00ADF80E3022F0ABFD28B3B3
S315080128200821BDF80E302E4A04A81FF01BF904A88A
S315080128302BF0E7FF04AA01461B200FF0C9FF044647
S31508012840032000F0A3FC78B1134D1449286821F040
S315080128503DF91FF03EFB1FF03DFB2346BDF80E2058
S315080128602049286821F032F907B030BD022000F06E
S315080128708DFC0028F8D0084C1449206821F026F967
S315080128801FF027FB1FF026FB1749206821F01EF9C8
S31508012890EAE700BF35270020C80E0020C80404084F
S315080128A08305040875250108D00D00202721040891
S315080128B0B405040878070408B9050408C20504081C
S315080128C0D1050408CE050408E6050408250504080B
S315080128D0F705040837270020362700202D060408A7
S315080128E043060408460604087006040870B503681A
S315080128F0A64A23F47F4323F007039342044686B08E
S3150801290000F0E58009D8A24A934222D002F5A02216
S31508012910934200F0D08006B070BD9E4A934200F003
S31508012920598102F100729342F5D1B0F805301B2B9B
S31508012930F1D10389984C13F00103984A00F0858177
S31508012940012313701FF0C5FA1FF0C4FA94492068D1
S31508012950B8E0914C934E1FF0BCFA1FF0BBFA9249AE
S31508012960206821F0B3F8304612F096FD054610B3FB
S315080129708E49206821F0AAF88D49206821F0A6F829
S315080129801FF0A7FA1FF0A6FA8A4B8B4A00938B49C8
S315080129908023206821F09AF889492B46894A2068BC
S315080129A021F094F8284600F037FC8749206821F081
S315080129B08DF800BEFDE70221307812F0A7FD054625
S315080129C010B37A49206821F081F87949206821F005
S315080129D07DF81FF07EFA1FF07DFA764B764A009352
S315080129E076498423206821F071F875492B46754A82
S315080129F0206821F06BF8284600F00EFC7249206821
S31508012A0021F064F800BEFDE7A022009003461146B6
S31508012A10307812F059FD054610B36449206821F053
S31508012A2055F86349206821F051F81FF052FA1FF052
S31508012A3051FA604B604A009360498823206821F067
S31508012A4045F85F492B465F4A206821F03FF828463A
S31508012A5000F0E2FB5C49206821F038F800BEFDE78A
S31508012A600221307812F066FD054600283FF453AF7F
S31508012A704E49206821F02AF84D49206821F026F8A8
S31508012A801FF027FA1FF026FA4A4B4B4A00934B4987
S31508012A908C23206821F01AF849492B46494A2068AF
S31508012AA021F014F8284600F0B7FB4749206821F0C1
S31508012AB00DF800BEFDE71FF00CFA1FF00BFA364BB6
S31508012AC04249186806B0BDE8704020F0FFBF324C95
S31508012AD0344E1FF0FEF91FF0FDF93D49206820F03C
S31508012AE0F5FF0221307812F011FD054610B32F4982
S31508012AF0206820F0EBFF2E49206820F0E7FF1FF041
S31508012B00E8F91FF0E7F92B4B2B4A00932B49982339
S31508012B10206820F0DBFF2A492B462A4A206820F044
S31508012B20D5FF284600F078FB2749206820F0CEFF1C
S31508012B3000BEFDE70221307812F0FCFC054610B311
S31508012B401A49206820F0C2FF1949206820F0BEFF03
S31508012B501FF0BFF91FF0BEF9164B174A0093174924
S31508012B609C23206820F0B2FF15492B46154A206898
S31508012B7020F0ACFF284600F04FFB1349206820F0EF
S31508012B80A5FF00BEFDE7054B1870C4E6A0000601C7
S31508012B90A0000100A0000A01C80E00203627002067
S31508012BA034070408BE2C00208D06040827210408D2
S31508012BB0B405040869070408B9050408C205040828
S31508012BC0D1050408CE050408E6050408A00604088C
S31508012BD0B7060408B0F805301B2B7FF49CAE1E4ED1
S31508012BE01FF077F91FF076F91C49306820F06EFF5F
S31508012BF04FF6FF730DF10E00ADF80E3022F0BAFB59
S31508012C0004ADE8B106212846BDF80E30144A1EF077
S31508012C1029FF28462BF0F5FD0022CDE9005203468F
S31508012C201B2120790FF092FD04461FF052F91FF07F
S31508012C3051F923462A460B49306820F047FF6AE6D0
S31508012C40284609492BF0E1FBE3E713701FF041F928
S31508012C501FF040F905497AE6C80E0020E406040883
S31508012C60430604080D070408090704084E07040863
S31508012C700022014B1A807047FC26002030B50368F4
S31508012C807E4A23F47F4323F00703934289B040F039
S31508012C90F380082200211220794B0FF041FD0446EA
S31508012CA018B3784D7849286820F010FF77492868C5
S31508012CB020F00CFF1FF00DF91FF00CF9744B754A43
S31508012CC0009375495C23286820F000FF7349234661
S31508012CD0734A286820F0FAFE204600F09DFA7149E9
S31508012CE0286820F0F3FE00BEFDE701460322142002
S31508012CF06D4B0FF015FD044618B3624D62492868FD
S31508012D0020F0E4FE6149286820F0E0FE1FF0E1F8B2
S31508012D101FF0E0F85E4B5F4A00935F496A23286813
S31508012D2020F0D4FE5D4923465D4A286820F0CEFE90
S31508012D30204600F071FA5B49286820F0C7FE00BEFC
S31508012D40FDE7014605221620584B0FF0E9FC05461A
S31508012D5018B34C4C4C49206820F0B8FE4B49206802
S31508012D6020F0B4FE1FF0B5F81FF0B4F8484B494AF5
S31508012D70009349497823206820F0A8FE47492B4645
S31508012D80474A206820F0A2FE284600F045FA454940
S31508012D90206820F09BFE00BEFDE70DF10F0104A897
S31508012DA012F0EEFB044618B3364D3749286820F071
S31508012DB08DFE3649286820F089FE1FF08AF81FF033
S31508012DC089F8334B334A009333498323286820F023
S31508012DD07DFE32492346324A286820F077FE20468E
S31508012DE000F01AFA2F49286820F070FE00BEFDE7A8
S31508012DF0BDF8143001465BBAADF818309DF81330AA
S31508012E0008228DF81A30FF238DF81B30FE238DF822
S31508012E101C309DF8123018208DF81D30BDF8103081
S31508012E205BBAADF81E3006AB0FF07AFC054618B34F
S31508012E30144C1549206820F049FE1449206820F0F1
S31508012E4045FE1FF046F81FF045F8114B114A00934D
S31508012E5011499323206820F039FE10492B46104A60
S31508012E60206820F033FE284600F0D6F90D4920687F
S31508012E7020F02CFE00BEFDE709B030BDA000010020
S31508012E808B070408C80E002027210408B405040886
S31508012E90C607040894070408C2050408D1050408EE
S31508012EA0CE050408E6050408BC070408C00704089B
S31508012EB008B5044820F0ADFDBDE80840024800F019
S31508012EC069BD00BF701E04084C2A0020064B1B680A
S31508012ED01A7A022A04D812B11B68044A1360704789
S31508012EE0032AF9D0704700BF602A0020F00D0020A0
S31508012EF030B51A4D8FB006AC0FCD0FC495E80F004B
S31508012F0084E80F000E2200210DF10A002BF00CFDBA
S31508012F104FF47022124B6946CDE900230B238DF835
S31508012F2008300C238DF809300E4B06AA039320238B
S31508012F30049301230C488DF815300C4B06F0DEFA84
S31508012F4004469DF816304FF4E130002B0CBF0321DF
S31508012F5000211EF0FEFF20460FB030BD880A040886
S31508012F603C00015B38270020640E0020F40D002088
S31508012F7029B9074B186803684BB106F057BD0229F2
S31508012F8005D8034B186803680BB120F0E1BF7047F9
S31508012F90742A002008B50449044807F03BFABDE83D
S31508012FA00840FFF7A5BF00BF782A0020880E002039
S31508012FB0014820F0ACBD00BF640E0020014B1A6A1F
S31508012FC018681047640E0020044B834205D1044B50
S31508012FD01B7813B1C8B212F0C1BA7047900E00201F
S31508012FE05827002030B5002503685A4A23F47F4341
S31508012FF023F0070385B0934204460295ADF80C50B9
S3150801300000F0818002F5802293420ED0A2F18272ED
S31508013010934240F09C80504B1B78002B00F0978020
S3150801302005B0BDE8304021F08FB8B0F805301F2B48
S3150801303040F08D80FF2304A91A4611E903001EF00A
S3150801304041FF012814BF41F2FC15434B05F0FC0270
S3150801305008BF18701F2120790FF0A2FB054618B387
S315080130603E4C3F49206820F031FD3E49206820F05A
S315080130702DFD1EF02EFF1EF02DFF3B4B3B4A009304
S315080130803B495923206820F021FD3A492B463A4A03
S31508013090206820F01BFD284600F0BEF83749206855
S315080130A020F014FD00BEFDE7354900902379354A25
S315080130B00968354800F00CF90546002847D0274C21
S315080130C02749206820F002FD2649206820F0FEFCE9
S315080130D01EF0FFFE1EF0FEFE234B244A00932449F0
S315080130E06223206820F0F2FC22492B46224A2068F6
S315080130F020F0ECFC284600F08FF82049206820F0E3
S31508013100E5FC00BEFDE7B0F80530B7EE047A07EE38
S31508013110903AF8EE677AB0F8073067EE877A0133A6
S3150801312007EE103AB8EEC77A67EE877AB1EE047AF7
S3150801313067EE877AFAFE677AFCEEE77A17EE903A37
S31508013140B3F57A7F38BF4FF47A730D4A136005B029
S3150801315030BD00BFA000060258270020C80E002077
S3150801316027210408B4050408160B0408A80A04084C
S31508013170C2050408D1050408CE050408E6050408B5
S31508013180802A0020C92F0108900E00200B4B024609
S315080131901B7883B10A4B1B78834234BF0020012078
S315080131A0084B1B7833B1084B1B78134113F0010FF9
S315080131B008BF002070470120F2E700BFC12C00209C
S315080131C0C02C002059270020BF2C0020012208B559
S315080131D0074B1A700022074B1A700422064B1A7005
S315080131E01F22064B1A7006F01BF9054B186008BD1D
S315080131F0C12C002059270020C02C0020BF2C0020FC
S31508013200C80E0020024B0349186820F05FBC00BFB6
S31508013210C80E0020360B040870B50C4C0C4906463E
S31508013220206820F053FC06F0FBF80546206806F0F6
S31508013230EBF83046FFF7E6FF284606F0E5F8206882
S315080132400449BDE8704020F041BC00BFC80E00200B
S31508013250380B04083A0B040838B505462CF09CFED1
S3150801326000230B4A14685CB1AC4206D1A96A6BB15A
S3150801327099622CF08CFE012007E02346A46AF2E746
S31508013280002DF3D02CF083FE204638BD1160F0E7FF
S31508013290CC0E002010B50446B0B12CF07FFB2046B9
S315080132A0FFF7DAFF10B194F82C300BB9002010BDE6
S315080132B0064C2368002BF9D02CF06EFE2368013BDF
S315080132C023602CF064FEF1E72220F0E7D00E0020FF
S315080132D02DE9F04385B00546914698460E469DF878
S315080132E0307009B9002F5CD12846FFF7D3FF044691
S315080132F0002836D185F82C00686307F08FFA8642D4
S3150801330033D92CF0E1FB2146844640F2E7304FF4ED
S315080133107A720023E6FB0C0119F0A2FB4FF0FF328B
S31508013320002319F09DFB2B46E88611462846CDE970
S3150801333000441D4A2DF020F8044690B9C5E90898BD
S3150801334085F82D702E632CF027FE184A136833B3BF
S315080133501A469B6A002BFBD195620023AB622CF0BF
S3150801336016FE204605B0BDE8F08347B12B46314627
S315080133702846CDE900440C4A2CF00AFCDCE7304625
S3150801338003A92CF0B9FB04460028EAD12B462846A6
S31508013390CDE90077044A03992CF0CAFFCCE71560FA
S315080133A0DBE72124DDE700BFB1330108CC0E00209D
S315080133B091F82C3013B50C4683B98B8ECA8E93427D
S315080133C00ED243B9CDE9003320460B46124A4FF0D7
S315080133D0FF312CF091FFA38E0133A38602B010BDF5
S315080133E052B191F82D3093B101230093D1E9082305
S315080133F02046096BFFF76CFF012384F82C30074B35
S315080134001A6801321EBF1A6801321A60E6E70846D1
S315080134102CF0C4FAF0E700BFB1330108D00E002042
S315080134202DE9F041154E336833B34FF00008144FB8
S315080134302CF0B2FD05463C6824B92846BDE8F041A2
S315080134402CF0A5BD94F82C30A3B1336884F82C80F0
S3150801345013B13368013B336094F82D3013B9204614
S31508013460FFF7FAFE28462CF092FDD4E908312046EA
S315080134709847DDE7A46ADFE7BDE8F081D00E0020B2
S31508013480CC0E0020034B1B68002B14BF042001201F
S31508013490704700BFD00E0020024B1868B0FA80F0C2
S315080134A040097047D00E002008B5034820F0B1FA4C
S315080134B0BDE808401EF0ACBC701E0408014820F0A7
S315080134C0A8BA00BF701E040807B508201EF071FDD2
S315080134D002238DF80030054B684601931EF0FDFC6A
S315080134E0082003B05DF804EB1EF06EBD006A1810E3
S315080134F00348044A0449121A92101EF03ABD00BF45
S3150801350070210108302301088028002008B500F041
S315080135102FF8FFF7EDFF124B12498B4212D3002009
S31508013520114B12498B4218D3FEF7EAFF186850F877
S315080135302240586840F82240013298688242F5D301
S315080135400C33EAE70022F8E71C6844F82200013246
S315080135505C68A242F8D30833E4E70022F8E700BF23
S3150801356068670408746704087467040874670408BC
S315080135704FF48041124B134A70B59A60D3F88820EC
S31508013580114D42F47002C3F88820104A05F500541B
S3150801359091664FF0FF3222660D4A62660222C3F82F
S315080135A0D020BFF34F8FBFF36F8F4FF44036002003
S315080135B005F01CFF0020E66005F0FCFE2E6170BDDB
S315080135C000ED00E000200108008000440090005052
S315080135D0F7FF3700014B1860704700BF882A0020A3
S315080135E0054B1860054B1B6F03F00703032B01D12D
S315080135F02BF088BA704700BF902A0020008000503F
S315080136004FF000639B6A03F17842B2F5903F03D20B
S315080136101968064A914203D00023037083607047F4
S31508013620012202709A689B694260F7E707B0CD5E8E
S315080136304FF000639B6A10B503F17842B2F5903FEB
S3150801364011D21968094A91420DD1094C227812F012
S31508013650FD0F01D0002010BDDB6998470028FAD17B
S3150801366001232370F6E74FF48170F4E707B0CD5EC6
S315080136705A270020024B034A1A6020F0D8B900BF26
S315080136800000002002020FF0BFF34F8F0549064BD9
S31508013690CA6802F4E0621343CB60BFF34F8F00BFE1
S315080136A0FDE700BF00ED00E00400FA05002307B5B9
S315080136B02948019320F0ADF94FF440730122042102
S315080136C06846ADF8003000F0C3F80122234B052007
S315080136D0C3F8442401A92CF081FD002839D1204BD7
S315080136E0D3F8F02042F00102C3F8F020D3F8FC2009
S315080136F042F08072C3F8FC201A4AA3F55D431A60AA
S31508013700019B194A03F5D52303F2FC43B3FBF2F3F4
S31508013710164A013B13610223C2F8F0304FF4807355
S31508013720C2F804334FF06043114AC3F8B02F114A67
S31508013730C3F8802ED3F8002E42F48072C3F8002E07
S31508013740FF2283F82020D3F8002E22F48072C3F8D2
S31508013750002E03B05DF804FB701E040800D0035068
S3150801376000ED00E0FF030040F8590D00000004E0F9
S3150801377055CEACC5090001004FF06043D3F8802E41
S3150801378030B5D20715D501240B4D8440D5F8FC2058
S3150801379042F08072C5F8FC20D3F8002E2243C3F804
S315080137A0002E53F82020002AF0D003F8201000201C
S315080137B030BD1120FCE700BF00ED00E02DE9F04126
S315080137C004460C254FF00108124E0CB314F0010003
S315080137D00BD0002024F0010405FB00625768002F76
S315080137E0F3D09168C0B2B847EFE7224601302028E6
S315080137F04FEA520201D0D307F8D508FA00F20F288A
S3150801380024EA0204E8D9103805FB0062B432E5E778
S31508013810BDE8F081D40E002008B50C4820F0F9F86F
S31508013820192005F0D5FD28B1192005F0DFFD19206D
S3150801383005F0C0FD1A2005F0CBFD28B11A2005F0C8
S31508013840D5FD1A2005F0B6FD002008BD701E040836
S315080138502DE9F0410E469046054618B30F2923D89F
S315080138600378E3B1012B03D0022B18D0032B1BD10C
S315080138703F236A78D340DB0716D50D4BD3F810439F
S31508013880A4B92CF089FB074642462846314603F07F
S31508013890D7FD38462CF07BFB2046BDE8F08140F287
S315080138A0FF33E6E72224F7E72124F5E70224F3E7C5
S315080138B000C0035010B50446E8B10378C3B1012B23
S315080138C003D0022B14D0032B17D13F236278D340A0
S315080138D0DB0712D52CF060FB0122637821789A4028
S315080138E030235943064B5A502CF051FB002010BD8A
S315080138F040F2FF33EAE72220F9E72120F7E700BF84
S3150801390040D0035010B50446E8B10378C3B1012B82
S3150801391003D0022B14D0032B17D13F236278D3404F
S31508013920DB0712D52CF038FB0122637821789A40FF
S3150801393030235943064B5A502CF029FB002010BD61
S3150801394040F2FF33EAE72220F9E72120F7E700BF33
S3150801395040E0035008B503F069FD054B00F055300A
S3150801396020F05020C3F82004BDE80840FFF726BF21
S3150801397000E0035008B503F059FD054B00F0AA30E5
S3150801398020F0A020C3F82004BDE80840FFF716BFC1
S3150801399000E0035070B503680446B3F1B64F86B02C
S315080139A049D0264A934244D10125254820F031F8C9
S315080139B0A3880122ADF80030E3880A216846ADF8EC
S315080139C00430FFF745FF01220A2101A8FFF740FF4E
S315080139D00A266846FFF796FF642006F08DFF6846BB
S315080139E0FFF768FF642006F087FF013EF1D1032344
S315080139F0144A02EB0511C1F8E834607923794F3589
S31508013A0043EA0043C1F8EC34E179A3792D0143EA8D
S31508013A100143535140F20113ADF80830E3682068B9
S31508013A200493A36802A90393237C8DF8143003F049
S31508013A3033FA06B070BD00250348B7E70080065083
S31508013A40681E040800C003506C1E040838B50546F4
S31508013A5003F050FB044C012801D1013C00D138BDCB
S31508013A60284603F03BFAF6E7E19304002DE9F04F07
S31508013A709A46564B85B01B7806460F461546DDF81D
S31508013A803C909DF844B0DDF85080002B00F09780FB
S31508013A90072A00F296800E9B002B00F09280B9F15E
S31508013AA0000F00F08E80129BB3F5006F00F389803A
S31508013AB0012803D1109B002B00F08380444B03EBB4
S31508013AC005131B7B002B7ED0424C10220021684631
S31508013AD02AF02AFF04EB45141022A7BB39462046D3
S31508013AE02AF022FF43F210036380BBF1000F03D1D2
S31508013AF0E37843F00303E370364A0E9B02EB451C59
S31508013B00CCE90193129B6901581E9DF84C30C0F30C
S31508013B100A0003F003039B0643EA001E53582E4886
S31508013B20012E00EA03004EEA0003CDF800A0535027
S31508013B3017D0B8F1000F2ED19CF8023068F30413A0
S31508013B408CF8023027E0002120462AF0EDFE4FF4DA
S31508013B5044736380BBF1000FCED1E37843F03003A1
S31508013B60C9E713230CF1100ECCF80C309CE80F00B2
S31508013B708EE80F006FF00301DCF81C20109B61F33F
S31508013B809F02012FCCF81C20CCF8143003D1CCF8B5
S31508013B901890CCF8043000270D4A290102EB0513C9
S31508013BA042F80180159A28465A60694622469F605E
S31508013BB05E7303F035FB384605B0BDE8F08F07485C
S31508013BC0FAE70748F8E70748F6E700BF5B2700204A
S31508013BD03C1100203C1000200F80FFF3028000F00A
S31508013BE0018000F0078000F038B5124B05461B78B6
S31508013BF0DBB1E0B12CF0D0F90F4A00231146147B52
S31508013C0054B92B6001251A0101EB03131D738C505E
S31508013C102CF0BDF9204638BD0133082B02F11002FC
S31508013C20EDD12CF0B4F90548F5E70548F3E7054861
S31508013C30F1E700BF5B2700203C110020048000F05B
S31508013C40028000F0018000F038B52CF0A5F90023B8
S31508013C5005460B4A147B6CB90133082B02F1100295
S31508013C60F8D103F089FA074B28461C702CF08FF916
S31508013C70204603E028462CF08AF9034838BD00BFE0
S31508013C803C1100205B270020058000F00D4B10B584
S31508013C901B78044693B1072812D82CF07DF90A4BF4
S31508013CA003EB04131A7B2AB100241C732CF06FF959
S31508013CB0204610BD2CF06BF90448FAE70448F8E7EA
S31508013CC00448F6E75B2700203C110020068000F037
S31508013CD0028000F0018000F0154B13B51868002327
S31508013CE001908DF804302CF057F9124B1C7824B149
S31508013CF02CF04DF9104802B010BD01221A702CF0B3
S31508013D0046F90E4B01A81C731C7783F82C4083F8DF
S31508013D103C4083F84C4083F85C4083F86C4083F858
S31508013D207C4008238DF8073003F04AFA2046E2E77B
S31508013D30900B04085B270020038000F03C1100204B
S31508013D40F8B50D4D2D7885B1072810DC0B4D060108
S31508013D5005EB0014277B67B1AB510025069BA560CF
S31508013D60636003F05DFA2846F8BD0548FCE7054897
S31508013D70FAE70548F8E700BF5B2700203C11002059
S31508013D80028000F0018000F0078000F00A4A08B5B9
S31508013D9012785AB107280BD8084A02EB00131B7B85
S31508013DA043B1002103F0FEF9002008BD0448FCE7F1
S31508013DB00448FAE70448F8E75B2700203C1100208D
S31508013DC0028000F0018000F0078000F00A4A08B579
S31508013DD012785AB107280BD8084A02EB00131B7B45
S31508013DE043B1012103F0DEF9002008BD0448FCE7D0
S31508013DF00448FAE70448F8E75B2700203C1100204D
S31508013E00028000F0018000F0078000F0184B2DE9D0
S31508013E10F0411F6D5B6D1F4000D5FEE701260025A9
S31508013E20144CDFF85880374218D02368C8F8506018
S31508013E30A3B1A168284601316268A1609847637BEE
S31508013E40012B0BD150B90C4B03EB45131A7B60F3CD
S31508013E5041021A731A7F60F341021A770135082D58
S31508013E604FEA460604F11004DDD1BDE8F08100BF32
S31508013E70000004503C1100203C1000200020045092
S31508013E802DE9F04F144606460D469B46C36B87B08F
S31508013E9001225B6902A960689847F36B01225B6995
S31508013EA003A92846984702A81EF0A9FC074648B167
S31508013EB00023A37563754FF0FF33A360002007B095
S31508013EC0BDE8F08F03A81EF0A7FC0123A375237E86
S31508013ED004EBC303DD611F846368AB420ED1206026
S31508013EE003A81EF0BBFC4FF0FF332075A360237DAA
S31508013EF0043B022B26D80023A375DFE723681A1A89
S31508013F0053425341A37503A81EF0A8FC237D83429F
S31508013F1018BFA77503A81EF083FC074602A81EF062
S31508013F207FFC874218BF002303A818BFA3751EF09C
S31508013F307FFC074602A81EF07BFC87421CBF0023B4
S31508013F40A375D4E703A81EF06BFC80B1F36B0222BC
S31508013F5028465B6904A9984704A81EF070FC034625
S31508013F60207D032839D8DFE800F03838040903A88A
S31508013F70F3E7CC22237E04EBC3031A8401F0A2FAE9
S31508013F80109B187003A8277E1EF03EFC04EBC7079A
S31508013F9087F82200237E03A804EBC303B3F8209015
S31508013FA093F822701EF03CFC804603A81EF040FCE4
S31508013FB08246B8F1000F15D0F36B022228465B69D9
S31508013FC004A9984704A81EF0FFFB6075637D6BB9C9
S31508013FD00023A3754FF0000838E0227E04EBC202E5
S31508013FE01384CBE703A81EF0DAFBEEE794F81680F4
S31508013FF0B8F1000FEED0B9F1000F09D1DFB10123F5
S31508014000627EE375002A44D19F4218D1677614E08F
S31508014010736C05EB0A02594285EA020008421CBF85
S315080140200021A175591E0A409B1A9945D0D8A37D2E
S31508014030002BE3D1CEE7E37D43B94FF000084B46A9
S315080140405246294630461EF018F9A060A27D12B1E3
S3150801405023694B4423611449237E097899421ED961
S3150801406001332376BBF1000F1BD0D2B1E37DC3B177
S31508014070B8F1000F15D1032F13D0A1684B1C10D02E
S31508014080109B2246009330460123FFF7F9FEA075DF
S3150801409007E0012FDAD0032F08BFA376CDE7002367
S315080140A0A375A07D0BE700BFB40B04082DE9F04FFB
S315080140B00E46984600238BB004464FF0FF31104652
S315080140C017468DF8133001F0E7F9B6F5801F3BD393
S315080140D0B21C53D1E56A6B1C57D12046616A1EF0A2
S315080140E012F80546B31C18BF0123DFF81091019396
S315080140F0636A626C0293236805A902FB053AE36BBE
S3150801410005225B695046984705A81EF013FC1EF068
S3150801411036FC50461EF03EFC4FF0000B8246014627
S315080141204B1C05D0636C81EA0A025B42134232D00A
S31508014130294620461DF0E7FF029BAB424DD0BBF155
S31508014140000F4DD10546D3E7314605AA04F108000B
S315080141501EF0A3FA0146481C10D0384601F09CF916
S315080141600122394620460DF113031EF0D8F828B16D
S315080141709DF8133088F80030002003E0237C002BDB
S31508014180A8D12D200BB0BDE8F08F2368ED1A636C1A
S31508014190B5FBF3F5A6E7484601F07EF90DF11303E1
S315080141A049462046019A1EF0BAF8034690B1B21C58
S315080141B003D0D9F80020B2420CD19DF813200393FD
S315080141C00D4B88F8002049461A6838462AF00CFB38
S315080141D0039B9B46D9F80810A2E7BBF1000FD0D084
S315080141E0B6F5801FC8D2314698F800307A6804F1CE
S315080141F0080001F07FF8BFE7B00B0408301800206B
S315080142002DE9F3410446174698460E46194D816A2B
S31508014210E36A8B422AD04B1C18E0284601F03CF988
S315080142200122294620460DF107031EF078F830B120
S315080142304346294620469DF80720B847B0B1A968E4
S315080142404A1C05D0012E0AD0E36A9942E5D10DE050
S31508014250696820461DF0E4FF012E0146D8D16B6836
S3150801426081EA0302636C5B421A42D1D002B0BDE80F
S31508014270F08100BF041800202DE9F041036B904638
S31508014280826B07689A4288BF8363426C436A90B01F
S3150801429002FB0377C36B0E46052201A95B69044637
S315080142A03846984701A81EF045FB0128014630709B
S315080142B057D0656CE26B2368606AD2F814C005FBB7
S315080142C00030052206A9E04706A81EF033FB01289F
S315080142D04FF0000523D0D4E90A3201219342CDE9F2
S315080142E00B458DF834800E958DF83C102AD1194668
S315080142F020461DF095FF236B626C14339B1AE0620E
S3150801430023630C9B53B99DF83C303BB1626A616CDF
S315080143102368E06B01FB02311EF0C4FA0C9DE36BC6
S3150801432005225B6901A93846984701A81EF002FBD8
S3150801433030702846236BA26B9A4288BFA36310B0DC
S31508014340BDE8F081237C33B91C490BAA04F10800A6
S3150801435001F01EF8D5E72046194A0BABFFF750FFC7
S31508014360CFE7237C23BB2246164904F1080001F056
S315080143700FF8616A20461DF0E7FE616A421C204675
S315080143801DF0B0FE054620B9236B626C1344143B3D
S3150801439023632046A16A1DF043FF2368A062C01A61
S315080143A0636CB0FBF3F0606220461DF07CFFB6E754
S315080143B000232046044AFFF723FFDAE78D4B01085D
S315080143C0094B0108A72303084323030873B50D46C0
S315080143D0D11E4A421C461B7E4A419A4226D1296869
S315080143E02368994222D3636899421FD8114E0DF169
S315080143F007033246FFF75AFEC0B972686B689A42DC
S3150801440014D19DF80730DA1E53425341227E934256
S315080144100CD1636901336361D4E90323934205D25D
S315080144202968A26842F8231001332361012002B0EA
S3150801443070BD00BF5C1800202DE9F04F9A468BB07D
S315080144409DF85030DFF850B10293DBF81030804602
S3150801445053450D461646C0F09980D146DBF804301F
S315080144600193B9F1000F00F08D80D8F83C30012294
S315080144705B6907A90198984707A81EF0CDF9DBF8EB
S315080144800030984240F0858007A81EF0D1F904282B
S31508014490074614D107A81EF0D2F9019B029A0446D1
S315080144A03B44002A3FD1864212D91446361A404661
S315080144B001991DF0B5FEA9EB04090190D1E7D8F8D9
S315080144C03C3002225B69019808A9984708A8E2E7E7
S315080144D0841B544528BF5446032C03EB0607AAEB55
S315080144E0040A4FEA94021CD9D8F83C3029463846C2
S315080144F05B69984724F0030304F003061F441D442F
S31508014500002ED4D0D8F83C3001225B6908A9384678
S3150801451098473246284608A935442AF065F90026FF
S31508014520C5E72646ECE7074600F003020392034473
S315080145302A1804920593049BDD1B059BD81B039B34
S315080145409F420FD1002FB2D0D8F83C30012208A9DA
S315080145505B6998473A46284608A92AF0BBF978B90B
S315080145603D44A4E7D8F83C30012208A95B6998477D
S315080145700422284608A92AF0ADF908B9043FDAE762
S315080145804FF0360948460BB0BDE8F08F4FF0630986
S31508014590F8E74FF06F09F5E7881800202DE9F04193
S315080145A00F4616469846044688B060B390F83450CC
S315080145B0FDB101211DF06CFD00210E9BCDE9051110
S315080145C0CDE902379DF83C30CDF804808DF81C30D2
S315080145D0237C04968BB90D4901AA04F1080000F061
S315080145E0D7FEDDE90553E06B002E08BF1D461DF019
S315080145F0E8FE284608B0BDE8F0812046044A01AB2A
S31508014600FFF7FEFDEDE70546F3E700BF7123030853
S31508014610CD4301082DE9F04F99B00F4609920A6971
S31508014620416C0E931439D31DB3FBF1F3013302EB3D
S31508014630C302036B04469342C0F00D820023DFF8E0
S3150801464020940D93E36A48461946079300F024FF20
S31508014650D7E9033604930E9B022B4ED1CC2E40F09C
S315080146608A81099B002B42D0394620461DF007FF57
S31508014670656C079A6B1E13401490ED1AE36B0122C1
S315080146805B6916A97868984716A81EF0C9F8002824
S315080146900CBF04230823782E06933DD90123002550
S315080146A04FF0080A05933B6805990E98C9F800303A
S315080146B0C9F810601EF0D6F84FEA9A031093002342
S315080146C0DDF81CB089F814000B930F9308930C932B
S315080146D0616C4A1E0BEA02028B1A002E38D0554429
S315080146E0AB4240D8236B5B1A13442363ABE0049BAC
S315080146F01B68149308230693D0E7656C079A6B1E0B
S315080147001340782EA5EB030516D8FB7D7BB9099BCB
S31508014710002BB3D104230693331DAB4210D9A6B19E
S31508014720082DBBD804250023AA460593BBE7099B98
S31508014730002BA3D10823EEE7099B002B9ED1D9E7CD
S31508014740002505954FF0040AADE704250596F9E716
S315080147505345C7D3B0460BEB0A030393089B002BBB
S3150801476018BF032313E0A3EB0A039E42B0460BEBE3
S315080147700A0228BF98469E420392EFD90123D9F827
S31508014780102089F81730964271D1C9F804B00893F8
S3150801479099F81730002B6CD099F818200899D31C72
S315080147A009EBC3030132C3F804B0A3F80880997270
S315080147B089F81820B8F1000F14D00E9B022B5BD193
S315080147C00B9B7BB90F9B4344032B0BD9E36B01224C
S315080147D09B69039814A998470546002840F03D812E
S315080147E001230B93089B16A80193059B009399F83F
S315080147F014204346396800F005FEE36B58469B6969
S31508014800109A16A99847051E0D9B18BF5B46524676
S315080148100D935946434620461DF02FFD236B08F19B
S315080148200302A3EB0A0322F003029B1AC9F8080044
S315080148302363002D40F011810F9BDDF80CB0434432
S31508014840A6EB08060F93594620461DF0E9FC0025FC
S315080148508346002E7FF43CAF814A3968936804F198
S315080148600800E36252680E9B00F044FDDEE0022375
S315080148708DE7C9F804B09DE7099B002B30D1049B4D
S31508014880B8F1030F43440A9327D9DDE90301E36B22
S315080148904FEA98029B6998470546002865D118F0A2
S315080148A003025FD0049B28F003052B440493039B62
S315080148B01D444FF0FF33049915A8159329F094FF69
S315080148C0E36B28469B69012215A9984705460A9B69
S315080148D00493002D86D0039B99E74246039DE8E79A
S315080148E0039B0A9307F120031193FB7D78689BB11B
S315080148F000233D7E0C9AD9B28D4211D9119903F143
S31508014900010C31F83310914226D9069907EBC303F6
S31508014910D8690A44104403E00C9B069A13441844C8
S31508014920E36B01225B6915A99847159B012213932D
S315080149300C9B0A9804330C93E36B13A99B6998475C
S31508014940039B0A9A43449B1A042B054607D978B94F
S31508014950134604330A93C8E76346521ACBE70A9B00
S315080149600393B6E70A9B04933CE70A9B0493B2E7D1
S315080149700A9B0393AFE7702604F1080303932368A0
S31508014980079A606CA2EB030ABAFBF0FA00FB0A303D
S315080149901EF000F8E16A804620461DF041FCA26A35
S315080149A082424AD0626CD9F80830511E0B40216BFD
S315080149B02568891A0B4423630D9BE0625D1BB5FBD1
S315080149C0F2F5AA4536D1079BB3EB080A12D0E36B79
S315080149D04FEA9A0241469B6998478346E36A079AD2
S315080149E05344E362236B03989B1A434423631DF0E4
S315080149F025FEDA462368616CE06B01FB05311DF083
S31508014A003EFF20461DF04FFB20461DF04CFC20635F
S31508014A10BAF1000F11D03A69616CD31D1439B3FB91
S31508014A20F1F3013302EBC3029042A8D2304619B022
S31508014A30BDE8F08F4FF0000ADCE73A69616CD31DD7
S31508014A401439B3FBF1F3013302EBC302236B93422F
S31508014A50BFF4F8ADEAE71C26E8E72E468CE700BF67
S31508014A60301800202DE9F3471E4643690446B34230
S31508014A70884617469DF828903DD300258DF807509E
S31508014A8020461DF0DCFAD4F830A082450AD2236A02
S31508014A90B5EB430F06D2002220460DF10701FFF7B9
S31508014AA0EBFB30B39DF80730012B05D100222046D8
S31508014AB00DF10701FFF7E0FBB9F1030F06D0314607
S31508014AC020461DF0A7FA256B854218D30D4D4FF0E8
S31508014AD0FF31284600F0E0FC4B46002229462046D5
S31508014AE0C5E90376C5F8008002B0BDE8F047FFF7CF
S31508014AF091BD0135C4E7622002B0BDE8F0871C20EC
S31508014B00FAE700BF5C180020032A2DE9F34106469F
S31508014B100D4617461C4606D1237A012B23D00120C0
S31508014B2002B0BDE8F081DFF86080096842460DF100
S31508014B300703FFF7BBFA60600028EDD19DF807204F
S31508014B40237A032AE8D0D8F804106A689142E3D197
S31508014B50012B2969D4F80CC007D172690CEB010342
S31508014B60934202D92074207CDAE708316144E16076
S31508014B703B46012229463046FFF74CFD6060002876
S31508014B80CAD00020CCE700BF5C1800202DE9F3410C
S31508014B90089C032A1746266806D1237A012B24D0B6
S31508014BA0012002B0BDE8F081DFF890803046424628
S31508014BB00DF10703FFF77AFA60600028EDD1256841
S31508014BC0D8F80400A96AD5F844C04840CCF10003D6
S31508014BD01840227AE1D1012A09D1E268D8F81030C1
S31508014BE013447269934202D92074207CD9E7286854
S31508014BF0EB6A1B1A081AB3FBFCF3B0FBFCF0834201
S31508014C000BD1706CF36A421E1340326B121A1344AD
S31508014C10284633631DF004FBE862D8F81020E368E0
S31508014C2008321344E36001223B4604492068FFF732
S31508014C30F1FC60600028B0D00020B2E75C180020C3
S31508014C402DE9F04F4FF0FF334FF6FF72002504466A
S31508014C5000F10806C0E909238BB0C3620562056342
S31508014C6030460F461DF0EAFC20461DF01CFA20BB13
S31508014C70204639461DF097FA20461DF014FA20BB46
S31508014C805E200BB0BDE8F08FE26B2368606CD2F84A
S31508014C9014C000FB0530052205A9E04705A81DF04B
S31508014CA049FE012828D1294620461DF04DFA421C05
S31508014CB0294620461DF016FA0135E3699D42E3D3DC
S31508014CC020461DF0F0F90028D2D000254FF0FF3913
S31508014CD04FF6FF73CA46A846C4E90853E3699845DF
S31508014CE014D3A5EB0905012D36D84FF6FF72636A71
S31508014CF0934246D16720C4E71DF046FE0028DBD063
S31508014D00294620461DF020FA0246D1E72368E26BC0
S31508014D10606C576900FB0830052205A9B84705A844
S31508014D201DF008FE834605A81DF0DBFD074658461B
S31508014D301DF025FE68B1574538BFC4F82480B9452A
S31508014D4028BFB946BD4238BF3D46BA46236A013334
S31508014D50236208F10108C1E74FF6FF730025636274
S31508014D60E3699D42C1D2676C2068E36B052207FBA4
S31508014D7005005B6905A9984705A81DF0B2FD01352F
S31508014D80EEE7E26B676C2068694607FB0300556925
S31508014D900522A84768461DF0A4FD626A2368606C6F
S31508014DA0504D00FB02301DF0F5FD4FF0FF33A062B8
S31508014DB0E3622A466FF00101204605ABFFF776F953
S31508014DC000284FD1AD6829462046E5621DF047F90E
S31508014DD0206320B92046E16A1DF022FAE0622946DD
S31508014DE020461DF01DFA0546A36A9D423CD1656918
S31508014DF0626CE91C143AB1FBF2F14FF0000805EBBD
S31508014E00C1050335B5FBF2F5C1460235E369994596
S31508014E103CD3A8455AD22046616A1DF074F9002789
S31508014E20064604F1400AB84512D8626C23686946F9
S31508014E3002FB0639E36B05225B69484698476846D3
S31508014E401DF04FFD534602464946E06B1DF0A4FD91
S31508014E50314620461DF057F90137AF420646E2D3DF
S31508014E6064200EE7A56AAEE7294620461DF0F7F845
S31508014E70236B294603440746236320461DF0D0F9D0
S31508014E800546002FB0D1C4E90B07ADE7636C276867
S31508014E90052203FB0977E36B05A95B693846984741
S31508014EA005A81DF047FD1DF06AFD60B138461DF0E5
S31508014EB071FD014620461DF0D2F8636C143B9842F9
S31508014EC008BF08F1010809F101099FE730461DF0FD
S31508014ED0B5FB002320461946034AFFF791F900203E
S31508014EE0CFE600BF5C1800200D2303080023624AA1
S31508014EF02DE9F04117680E460446136018B92125B5
S31508014F002846BDE8F08190F834500DB30968026867
S31508014F10914240F0A98071684268914240F0A480AC
S31508014F20B1688268914240F09F80F168C2689142F7
S31508014F3040F09A8031694269914240F09580B169A1
S31508014F40C26B914240F0908072691D468261D7E733
S31508014F5050222946D0F8388029F0E6FCD6E9021213
S31508014F60336804F1080023607368C4F83880636005
S31508014F70336963617369A3611DF072FBB36904F157
S31508014F804000E3639B68984794F8432020B1E561A4
S31508014F90002AB4D05B25B3E7656C002DF7D06668A7
S31508014FA0B6FBF5F3E361002AA9D0B542F2D8226827
S31508014FB0B2FBF5F105FB1122002A57D105FB136354
S31508014FC0002B53D120461DF03AF8A3690433034454
S31508014FD09E424DD340F634726369CC3B934249D81D
S31508014FE0B5F5805FD6D3032120461DF051F8D4E9E3
S31508014FF00001E36B1B6898470546E36B0220DB68F3
S3150801500098471DB1002384F834301DE039462046FF
S31508015010FFF716FE6428054604D139462046FFF7F0
S315080150200FFE0546636C143B002DEBD1226A204620
S3150801503002FB03F61DF003F8A369043303449E42F9
S3150801504006D284F834505A25E06B1DF0BAF957E7B1
S315080150500123D4E90001094A84F83430136801337D
S3150801506013601DF097FBEFE75D2549E7592547E7EB
S315080150705A2545E75F2543E7C0110020BC110020EA
S315080150802DE9FF410F4690461E46054698B390F80E
S31508015090343093B3B1F5801F31D21A4C02211CF07A
S315080150A0F7FF2246394628460DF10F03FEF7FEFFA4
S315080150B0024678B1012342460093394633462846CB
S315080150C0FFF7D0FC0446E86B1DF07BF9204604B0D7
S315080150D0BDE8F0819DF80F30012BEBD12169B14272
S315080150E0E8D10093414633462846FFF7A5F9044619
S315080150F00028DFD1E7E72124E8E71124E6E7292498
S31508015100E4E700BF881800202DE9FF410C46164642
S315080151101F46054680B390F834307BB3B1F5801F3E
S315080151202ED2DFF8608001211CF0B2FF21464246EB
S3150801513028460DF10F03FEF7B9FF044670B99DF82D
S315080151400F30012B11D1D8F81030BB4212D10246CB
S31508015150009031462846FFF76FF90446E86B1DF0C3
S3150801516030F9204604B0BDE8F081022B14BF2D2486
S315080151706024F3E76324F1E72124F2E71124F0E739
S315080151802924EEE7881800202DE9F04385B00C465E
S3150801519017461E460546DDF8308098B390F8343038
S315080151A093B3B1F5801F31D2DFF8649001211CF069
S315080151B06FFF21464A4628460DF10F03FEF776FF93
S315080151C0044688B99DF80F30012B14D1D9F810205F
S315080151D006EB08039A4213D30090434632463946F2
S315080151E02846FFF729F90446E86B1DF0EAF8204638
S315080151F005B0BDE8F083022B14BF2D246024F3E724
S315080152006324F1E72124F2E71124F0E72924EEE7E4
S31508015210881800202DE9F3411F4600230C4616463F
S3150801522005463B6050B390F834304BB3B1F5801F57
S3150801523028D2DFF8548001211CF02AFF2146424674
S3150801524028460DF10703FEF731FF0446A0B99DF87C
S315080152500730032B10D0022B0AD101233360042314
S315080152603B60E86B1DF0ADF8204602B0BDE8F08161
S31508015270D8F810303060F3E72D24F2E72124F3E75C
S315080152801124F1E72924EFE78818002030B50C46E8
S31508015290054685B028B390F8343023B3B1F5801F9D
S315080152A023D202211CF0F4FE0DF10F0321462846F4
S315080152B00F4AFEF7FBFE034688B99DF80F20032A1D
S315080152C00DD003222146009202462846FFF7CAFB63
S315080152D00446E86B1DF075F8204605B030BD2D244F
S315080152E0F7E72124F8E71124F6E72924F4E700BFB4
S315080152F0881800202DE9F043466886B30568984664
S315080153004FF0000CA946AE4655F83C400CF1010C8D
S31508015310C4F31307013401D0B94217D066450EF11B
S31508015320080EF1D12F46002403E0A64207F108072B
S3150801533012D055F8343001340133F6D1C1F31301D3
S3150801534041EA0851C7E90012BDE8F08341EA08516C
S31508015350CEE90012BDE8F083B8F1030F03D10123AA
S315080153600372BDE8F083002303E09E4209F10809B0
S31508015370F5D055F833400133C4F30754032CF4D15F
S31508015380C1F3130343EA0853C9E90032BDE8F083C0
S315080153902DE9F0410646406882B0C0B10F469046F5
S315080153A00024336853F8345003EBC403C5F307529A
S315080153B0C5F31301013504F1010406D05B683046D3
S315080153C0CDF80080B84710B170688442E9D302B0BD
S315080153D0BDE8F081024B1968024B1868FFF786BDD4
S315080153E0942A0020B42A002008B52AF0CCFD014BE6
S315080153F0186008BDB4180020014B18682AF0BEBD14
S31508015400B418002073B504462248012A00EAC111DE
S315080154109DF8185023F07C4007D9961E012E28D9ED
S31508015420073303F07F03194308E09DF81C300A434C
S31508015430DB0603F0C053134343F060410023C4E97C
S3150801544000108DF80730B5B1202221460DF107006D
S315080154501DF0BCFA1A220DF10700211D1DF0B6FA3E
S31508015460082063689DF8072043EA8263636002B0F7
S3150801547070BD1143E2E71B220DF1070021461DF01D
S31508015480A5FA23689DF80720042043EAC26323602E
S31508015490EDE700BF80FFFF0738B5094B0D461A68CF
S315080154A00021044629F040FA00234FF0FF322383F6
S315080154B0C4E900252361A260E382A37638BD00BF53
S315080154C0B00B04080138C0B205289ABF014B185C15
S315080154D001207047B50B04082DE9F041074615462A
S315080154E000240E46596888B0490A012922464FEA1E
S315080154F0510104F10104F8D8DC78997824031B8852
S31508015500C90201F4006104F480540C43C3F30A038D
S315080155105203234492B24FF000089C18274B6FEAB6
S315080155200444039325F07843ED4302A90DF10700DE
S315080155301B2202938DF807801DF048FA9DF8072073
S31508015540029B02A943EAC2630DF107001B2225F05B
S315080155507845049302958DF807801DF037FA9DF872
S315080155600720029B6FEA144443EAC26305934FF08E
S31508015570FF330794069307A9BB69012206F11000B8
S315080155809847BB6905A90446012206F10800984710
S31508015590BB69404518BF044604A90122301D984736
S315080155A00122404518BF0446BB69304603A99847FE
S315080155B0404508BF204608B0BDE8F08101009AB20F
S315080155C0044BD3F88420D206FBD4D3F88400C0F365
S315080155D0811070470040005038B5174B0546D3F87F
S315080155E028310C4603F00703013B052B20D8DFE8D9
S315080155F003F003131B0F0B1729F05EFA052305B1F8
S31508015600286004B1236038BD29F056FA0623F6E767
S3150801561029F09CFA0723F2E729F08EFA0323EEE72D
S3150801562029F08AFA0423EAE729F082FA0223E6E74F
S3150801563000231846E3E700BF00800050002337B572
S315080156400193164B0546D3F820320C4603F007039F
S31508015650042B21D8DFE803F0030B11161B000123E5
S315080156600DB1019A2A6004B1236003B030BD00214F
S3150801567001A8FFF7B1FF1223F2E729F067FA07231A
S315080156800190EDE72AF074FC0A230190E8E729F076
S31508015690A5FA09230190E3E70023E1E7008000501A
S315080156A038B5104B0546D3F880300C4603F0030392
S315080156B0022B0BD0032B0DD0012B0FD129F002FAA7
S315080156C00E2305B1286004B1236038BD29F03EFADE
S315080156D00723F6E729F0F0F90623F2E7002318462F
S315080156E0EFE700BF0080005038B5104B0546D3F8E8
S315080156F000310C4603F00303022B0BD0032B0DD00C
S31508015700012B0FD129F018FA032305B1286004B13A
S31508015710236038BD29F062FA0923F6E729F012FA5F
S315080157200823F2E701230020EFE700BF00800050BD
S3150801573038B5184B0546D3F820010C4600F007008A
S31508015740062823D8DFE800F0040A0E16121A1E00EE
S31508015750012305B1286004B1236038BD29F0ACF9ED
S315080157600523F6E729F0E8F90323F2E729F0EEF92C
S315080157700723EEE729F0DCF90223EAE729F09CF989
S315080157800623E6E729F0D8F90423E2E700231846B9
S31508015790DFE700BF0080005038B5104B0546D3F847
S315080157A040310C4603F00303022B0BD0032B0DD01B
S315080157B0012B0FD12AF0DCFB0A2305B1286004B1BD
S315080157C0236038BD29F00AFA0923F6E72AF0D3FB44
S315080157D00C23F2E701230020EFE700BF0080005009
S315080157E0002337B50193164B0546D3F860320C46AC
S315080157F003F00703013B032B1FD8DFE803F0020E72
S315080158001914002101A8FFF793FF10230DB1019A7E
S315080158102A6004B1236003B030BD002101A8FFF757
S31508015820BBFF1123F2E729F091F907230190EDE770
S3150801583029F07EF902230190E8E70023E6E700BF95
S3150801584000800050002337B50193164B0546D3F85F
S3150801585094320C4603F00703013B032B1FD8DFE8FC
S3150801586003F0020E1914002101A8FFF761FF1023A6
S315080158700DB1019A2A6004B1236003B030BD00213D
S3150801588001A8FFF789FF1123F2E729F05FF907233A
S315080158900190EDE729F04CF902230190E8E700238E
S315080158A0E6E700BF0080005038B5104B0546D3F82F
S315080158B060310C4603F00303022B0BD0032B0DD0EA
S315080158C0012B0FD12AF054FB0A2305B1286004B134
S315080158D0236038BD29F082F90923F6E72AF04BFB44
S315080158E00C23F2E701230020EFE700BF00800050F8
S315080158F02E4B98424AD022D82D4B984240D014D8E4
S315080159002C4B984239D00AD82B4B984232D02B4B84
S3150801591098422FD02A4B98422CD000207047294B09
S315080159209842FAD1284B186F7047284B98422AD0CB
S31508015930274B9842F1D1244BD3F880007047254B69
S3150801594098422BD009D8244B984223D0234B98420E
S31508015950E3D11D4BD3F88C007047214B984221D0D7
S3150801596003F5740303F510539842D6D1164BD3F8B1
S3150801597098007047144B986D7047134B586E7047D3
S31508015980114B586F7047104B986F70470E4BD3F8F1
S31508015990840070470C4BD3F8880070470A4BD3F83C
S315080159A090007047084BD3F8940070470048E80107
S315080159B00024F400C0CF6A0080841E0000093D005F
S315080159C040420F00405DC6000080E00FC0EA210199
S315080159D080BA8C01007E560380D54302006CDC0236
S315080159E00090D00373B50D460021114B0191D3F8F0
S315080159F08041064604F00304022C13D0032C0CD074
S31508015A00012C13D101A8FFF793FE10240EB1019BB7
S31508015A10336005B12C6002B070BD29F097F80724F0
S31508015A200190F3E729F084F80190EFE70C46EDE7DA
S31508015A300080005038B5104B0546D3F840320C4665
S31508015A4003F00303022B0BD0032B0DD0012B0FD12F
S31508015A502AF08EFA0A2305B1286004B1236038BDFD
S31508015A6029F0BCF80923F6E72AF085FA0C23F2E7B0
S31508015A7001230020EFE700BF0080005038B5144B22
S31508015A800546D3F800020C4600F0070004281BD887
S31508015A90DFE800F003090D111500012305B128609F
S31508015AA004B1236038BD2AF063FA0A23F6E729F020
S31508015AB095F80923F2E72AF05EFA0C23EEE729F0B6
S31508015AC021F80F23800AE9E700231846E6E700BF15
S31508015AD00080005038B5144B0546D3F808020C4629
S31508015AE000F0070004281BD8DFE800F003090D11B0
S31508015AF01500012305B1286004B1236038BD2AF0D9
S31508015B0037FA0A23F6E729F069F80923F2E72AF0B2
S31508015B1032FA0C23EEE728F0F5FF0F23800AE9E7AE
S31508015B2000231846E6E700BF00800050B0F5207F45
S31508015B301FD009D8B0F5007F15D003D868B1B0F5E4
S31508015B40C07F0AD000200CE0B0F5607FFAD10B4B7C
S31508015B50D3F88000C0F3011003E0084B186FC0F3B7
S31508015B60033001307047054BD3F89000C0F3046049
S31508015B70F7E7024B186FC0F38020F2E70080005068
S31508015B8002464FF48030104B10B598660020FFF797
S31508015B90CDFF504341F671320C4BDC69DA635A6822
S31508015BA004F4803422F4401259B90949884294BF51
S31508015BB000200120000502435A600CB10022DA6375
S31508015BC010BD0449F2E700BF0090005000000350E1
S31508015BD0005A6202002D3101430905D0012B0CD070
S31508015BE0022B084B18BF002300F01F0039B103F53B
S31508015BF08053012282401A607047034BF4E703F58C
S31508015C000053F6E768800050648000501FB50021F4
S31508015C10B0F5807F0446CDE9001100F0D2803AD86C
S31508015C205E2833D85E2833D8DFE800F045323232B1
S31508015C303232323232323232323232323232323235
S31508015C4032323232323232323232323245AC45AC0B
S31508015C50BCBCBCBCBCACC64E6BDC4EACACAC3232CC
S31508015C60323232323232ACACAC7EE6AC323232321D
S31508015C70323232323232323232BC454545E14E4E4B
S31508015C80EB8D63C132323232329E4500802870D0A4
S31508015C90009804B010BDB0F5D06F00F0A38035D8D8
S31508015CA0B0F5607F79D01AD8B0F5007F65D005D8F0
S31508015CB0B0F5C07FECD128F025FF5CE0B0F5207F78
S31508015CC060D0B0F5407FE3D128F01CFF02464FF4BF
S31508015CD02070FFF72BFFB2FBF0F252085BE0B0F53C
S31508015CE0B06F69D00AD8B0F5806F5BD0B0F5A06FF8
S31508015CF0CED100216846FFF7A1FCC9E7B0F5C06F10
S31508015D00C6D100216846FFF747FDC1E7B0F5106F18
S31508015D106DD00ED8B0F5086F78D0B9D8B0F5E06F68
S31508015D206AD0B0F5F06FB3D100216846FFF7BCFD24
S31508015D30AEE7B0F5406F3AD013D8B0F5206F60D012
S31508015D40B0F5286FA4D10021324B0391D3F87032F4
S31508015D5003F00303012B02D103A8FFF71DFD039BE3
S31508015D6039E0B0F5486F93D100216846FFF76AFD1F
S31508015D708EE728F0A7FE00908AE728F0A3FE0246E0
S31508015D80204604E028F0BEFE02464FF42070FFF7D5
S31508015D90CDFEB2FBF0F200927AE701A8FFF780FC8C
S31508015DA0019AEDE700216846FFF7C2FC70E700217A
S31508015DB06846FFF711FC6BE700216846FFF712FEFC
S31508015DC066E74FF0E02302911B695B0705D528F0CA
S31508015DD099FE0290029B00935AE703A902A8FFF7CE
S31508015DE0DBFCF7E700216846FFF748FE50E700218C
S31508015DF06846FFF76FFE4BE700216846FFF71AFE74
S31508015E0046E700216846FFF7EBFC41E76846FFF7DE
S31508015E106BFC3DE70080005008B58020FFF7F6FED1
S31508015E20034B98429EBF4FF48032024B1A6708BD56
S31508015E30005A620200A000501FB503460020B3F5C0
S31508015E40807F019000F0C58065D85D2B56D84C2B14
S31508015E5007D82D2B48D8232B2CD8019805B05DF8E7
S31508015E6004FB4D3B102BF8D801A252F823F000BFD2
S31508015E70C95F01085B5E01085B5E01085B5E01089C
S31508015E80775F01085B5E01085B5E01082360010814
S31508015E90955F01083B5F0108196001085B5E01080F
S31508015EA05B5E01085B5E01085B5E01085B5E0108DB
S31508015EB02D600108243B092BCFD801A252F823F003
S31508015EC0C95F0108C95F0108C95F0108C95F0108FF
S31508015ED0C95F01085B5E0108BF5F01085B5E0108D7
S31508015EE0575F0108FF5F01083D2B00F083803E2BB9
S31508015EF0B3D1002001A9FFF79DFDAEE7802BACD1F8
S31508015F00504B1B6F03F00703013B032BA5D8DFE8B2
S31508015F1003F0544D5052B3F5F06F6BD020D8B3F55A
S31508015F20B06F4CD00ED8B3F5607F71D095D3B3F569
S31508015F30806F49D0B3F5A06F8FD1002001A9FFF773
S31508015F407DFB8AE7B3F5D06F59D0B3F5E06FD0D0B2
S31508015F50B3F5C06F81D1002001A9FFF71DFC7CE7CD
S31508015F60B3F5206F5DD00BD8B3F5086F4CD0B3F5F8
S31508015F70106F7FF472AF002001A9FFF7ABFD6CE744
S31508015F80B3F5406F48D0B3F5486F4FD0B3F5286FD6
S31508015F907FF463AF2B4BD3F8703203F00303012B65
S31508015FA049D0022B0CBF1523002300E005230193DA
S31508015FB053E70323FBE70823F9E70223F7E7002062
S31508015FC001A9FFF70FFD48E7002001A9FFF7B0FB7C
S31508015FD043E74FF0E02302901B695B0705D528F0DC
S31508015FE091FD0D230393039BE1E703A902A8FFF79C
S31508015FF0D3FBF8E7002001A9FFF756FC2DE700209F
S3150801600001A9FFF73BFD28E701A9FFF76DFB24E787
S3150801601001A9FFF745FB20E7002001A9FFF7DCFAF4
S315080160201BE7002001A9FFF7DBFB16E7002001A902
S31508016030FFF708FC11E7002103A8FFF7ADFB1123C1
S31508016040B5E700BF008000504FF48032074B08497E
S31508016050586E03F580535A664B6A23F001034B6267
S31508016060C3035CBF034B5A66704700BF00800050EC
S3150801607000C0075000A0005008B5FFF7DDFE09284B
S3150801608011D00A38012802D94FF6FF7008BD4FF41E
S315080160908002064B5A6603F5D8335B6ADB07F3D5EC
S315080160A04FF4FA70F2E7024B1888EFE700900050B8
S315080160B0AC2C002008B5FFF7BFFE03280ABF024B28
S315080160C04FF6FF70188808BDAA2C002038B504467B
S315080160D08020FFF7B1FE032800F083804FF4801279
S315080160E0524B4FF0A0615A6645F60E02504BC3F863
S315080160F08020504A91624FF4803102F580529162B4
S315080161009A6DD203FCD4996D11F08041FBD1D4E983
S315080161100002120542EA0062E07B0243207B42EA62
S315080161200042607B42EA0032A07B42EA80121A6191
S315080161309869D4E90452120642EA856200F00040E1
S315080161400243A07EE57E0243207E42EA0042607E4B
S3150801615042EA00229A611A6AE06922F00F0242EACB
S315080161608502354D00283DD11A6294F82420996A92
S3150801617094F82000D200294042EA40120A4394F8D2
S31508016180211042EA011242F480329A622B49284AC6
S31508016190936D31EA0303FBD14FF080712548816283
S315080161A01369A56823F4700343EA055313614FF095
S315080161B00043836194F822300BB9214B996294F814
S315080161C023303BB94FF480321D4B9A62184A936DBE
S315080161D05B00FCD494F825301BB1154B194AC3F85A
S315080161E0802038BD024342F0080202281A6208D10B
S315080161F019614FF40852996113484FF47F411CF015
S3150801620003FC0B4994F822308A6A94F820001B068D
S315080162102A4043EA4013134394F8242043EAC2036D
S3150801622094F8232043EA02438B62D3E70090005097
S315080162300040005A0050005AC7FFFEFE0300010045
S315080162400060005AF1A7FFFF3440005A014B93F949
S3150801625000007047C22C0020F0B5D0E901434FF485
S3150801626000061A4A4178057856664FF4D156022730
S3150801627002F5B8325662164E4F2977604FF001077C
S3150801628028BF4F2106F5805677601669F603FCD4B8
S3150801629041EA052151611B01417B43EA04230B4372
S315080162A0017B43EA41039360C37B817B1B0143EA7C
S315080162B04113417C0B43017C43EA41035360837CD0
S315080162C013B16FF4D1535362F0BD00BF0090005073
S315080162D000100250014B1880704700BFAC2C0020FB
S315080162E0014B1880704700BFAA2C00204FF480028A
S315080162F008B5184B5A660223174A5360936813F474
S315080163008033FBD1012822D128F016FC134B984281
S3150801631015D003F5122303F5F863984213D0104BF1
S3150801632000EB8002400AB3FBF0F3520A0A49CA623B
S315080163300B6301234B620022074B5A6008BD45F6E1
S315080163407A13084AF2E745F61A03074AEEE7536253
S31508016350F1E700BF009000500040025000F04902EA
S3150801636064666666D8B80500BBCF0500B0F5207F20
S3150801637010B50C465DD008D8B0F5007F4ED003D8CD
S31508016380C0B1B0F5C07F15D010BDB0F5607FFBD1A7
S315080163902C4B4C1ED3F8FC202B4912F0807F4FEA78
S315080163A0041427D1D1F8803023F030032343C1F8F0
S315080163B08030E9E71CF037FB1CF043FB4FF48031D2
S315080163C0224B214A1967136F013C23F4704343EAB0
S315080163D00433136728F096FB0446FFF7F1F8C0F17A
S315080163E0020120461CF027FB00F04AF8BDE81040E0
S315080163F0FFF712BDD3F8FC2022F08072C3F8FC2007
S31508016400D1F8802022F030022243C1F88020D3F847
S31508016410FC2042F08072C3F8FC20B5E70A4A4C1EFC
S31508016420D2F8903023F0F85343EA0463C2F8903067
S31508016430AAE7054A4C1E136F23F4806343EA8423B3
S315080164401367A1E700ED00E00080005000900050BE
S3150801645008B50121022000F095F94FF42070FFF7E5
S3150801646065FB054B18701CF0DEFA1CF0EAFA4FF4CE
S315080164708032024B1A6708BD5C2700200090005045
S3150801648008B54FF4C070FFF7C1FBBDE808400449E1
S31508016490884294BF012102214FF42070FFF766BF9D
S315080164A080F0FA0238B5044628F02CFB0546FFF7BA
S315080164B087F8C0F1020128461CF0BDFA0121002027
S315080164C000F0A0F92CB1FFF7DBFFBDE83840FFF774
S315080164D0A3BC034B4FF420701978FFF747FFF4E785
S315080164E05C2700204FF4C02270B50546FFF700FA75
S315080164F0314B04465A6603F598335A68012A04D182
S315080165002E494A605A689207FCD48020FFF794FC0A
S31508016510052807D11CF087FA1CF093FA4FF480324C
S31508016520254B1A67264B24F040749D4230D0254BE3
S315080165309D4230D028F0C0FA8542064603D901218A
S31508016540284600F05FF9204BDA6812F0060FFBD1F6
S3150801655099689C609A68624012F4F81F1ED1284611
S31508016560FDF738F88020FFF767FC05280DD128F0DC
S31508016570C9FA0446FFF724F8C0F1020120461CF0C7
S315080165805AFAFFF77DFFFFF747FCAE420CD270BD02
S3150801659044F00074CEE744F08074CBE7802099601C
S315080165A0FFF74AFC052805D0BDE870400121002007
S315080165B000F028B93546DAE70090005000E00150AE
S315080165C040420F0080841E0000000150304B314AC2
S315080165D0984251D020D8A3F5B703A3F5586398423A
S315080165E046D00DD82C4B984231D02C4B984239D0F5
S315080165F02B4B4FF4002198421DD00023516622E00F
S31508016600284B4FF400219842F7D1274BD3F8BC30D9
S31508016610516623F0407316E0244B984230D0244B40
S31508016620984231D0234B4FF400219842E5D11E4BB5
S31508016630D3F8C830ECE71C4BD3F8A030516623F0E9
S31508016640407343F000734FF0B442936070474FF4C0
S315080166500021154BD3F8A030516623F0407343F05F
S315080166608073F0E7104BD3F8A0304FF40021CFE741
S315080166700D4BD3F8B830F8E70B4BD3F8C030F4E735
S31508016680094BD3F8CC30F0E7074BD3F8D030ECE719
S31508016690C0EA21010090005080841E0000093D00D7
S315080166A040420F000024F4000080E00F0048E80192
S315080166B0005A620280BA8C01024A536B0342FCD12A
S315080166C0704700BF00400950044A4178536F23F4CC
S315080166D0407343EA01235367704700BF00400050E7
S315080166E00E4A10B51369044643F00403136129F0F1
S315080166F035F81CF0ABF90A4B5B6E5B0142BF094BDF
S31508016700094AC3F8202430BF1CF0A1F903F0FEFFA3
S315080167101CB9BDE8104028F0F5B910BD00ED00E040
S315080167200080005000E003500000FF0F0C4A10B52E
S315080167301369044643F0040313610A4B5B6E5B015C
S3150801674042BF094B094AC3F8202429F007F830BF8C
S3150801675003F0DCFF1CB9BDE8104028F0D3B910BD21
S3150801676000ED00E00080005000E003500000FF0F3C
S31508016770034A0179D36E23F030030B43D36670477E
S3150801678000400050F8B504461C4BD3F88420D106C6
S31508016790FBD4D3F88430C3F381139C422CD028F060
S315080167A091F9012C064602D121461CF044F929F03B
S315080167B0EAFB4FF00072124B07465A6620461CF058
S315080167C049F94FF480630D4D621E93402B676B6E3A
S315080167D09A0103D4D5F884309B060AD5384629F0A0
S315080167E0CDFB022C08D13046BDE8F84000211CF04B
S315080167F022B9D5F88430EAE7F8BD00BF0040005059
S315080168000060005010B50C4608B928F05BF9074B33
S3150801681021461B783BB1064B984204D80120BDE8B6
S315080168201040FFF7AFBF0220F9E700BF5D27002040
S31508016830005A62020278034B012100201A70FFF701
S31508016840E1BF00BF5D2700204FF0004238B5244B59
S31508016850244C5A664AF6CD33656C014605F00105A6
S31508016860236428BB0120FFF727FF6368DB0715D5DB
S315080168701D4B586008461D4B226BD2070CD4984213
S3150801688008D1072415B1174B194A1A6424F042FD99
S31508016890204638BD0130EFE79842F2D00024F1E7EF
S315080168A00132236B13F0080305D08A42F8D1E8E7D1
S315080168B000220E49F5E78A42E3D020210A4A91626D
S315080168C00121A2F5805251600649084A886A800664
S315080168D003D49342D5D00133F8E79342DDE700BFED
S315080168E000900050004009500060095040420F00D6
S315080168F03254FFFF4FF0004238B5164B01465A662F
S315080169004AF6CD33144C154A656C236443780B203B
S315080169105B0043F00103D363FFF7CEFE63688A7811
S3150801692023F4F87343EA02136360CA784B7943EA9E
S315080169300223A3600A798B7943EA02232361087843
S31508016940FFF782FFEB0744BF054B236424F0E2FC03
S31508016950012038BD00900050004009500040005009
S315080169603254FFFF4FF00042124B70B55D6E03F5CE
S3150801697080535A664AF6CD3304460F4980204E6C39
S315080169800B64FFF799FE0B6A23F00F030F2C94BFD4
S31508016990234343F00F030B62F30744BF074B0B6412
S315080169A0002DA2BF4FF00042054B5A6624F0B2FCF7
S315080169B070BD00BF00800050004009503254FFFFEF
S315080169C000A000504FF00042104B70B55D6E03F504
S315080169D080535A664AF6CD3304460D4980204E6CDB
S315080169E00B64FFF769FE0B6A23F4F85343EA0423A1
S315080169F00B62F30744BF074B0B64002DA2BF4FF090
S31508016A000042054B5A6624F085FC70BD0080005093
S31508016A10004009503254FFFF00A0005010B51CF089
S31508016A201EF8042300F5805100F500520B6113612D
S31508016A300B6113610B6113610B611361202341F231
S31508016A40020103610023C360836041614FF4A02101
S31508016A508361836541620549C36103628362C362D7
S31508016A6043630365D164036310BD00BFFF3F0D0394
S31508016A7070B505461446084641B9354B9D4218D0AE
S31508016A80344B9D4208BF5720FFF7C0F8AB6813F097
S31508016A90010F6B6830D0B0FBF4F4D80704F1FF346A
S31508016AA04FEA046407D42B6923F07F4323432B6100
S31508016AB070BD5620E8E7282128461BF0CCFFAB6CB1
S31508016AC0990715D1AB6CDA0714D4AB6C13F0020F26
S31508016AD014BF0626002628461BF0C1FF2B6931463E
S31508016AE023F07F4323432B61BDE870401BF0EEBFC3
S31508016AF00526F0E70926EEE7AB6DDB07AB6848BF6D
S31508016B00640003F0E003402B1BD004D8DBB1202B33
S31508016B10CED1082304E0602B17D0802BC8D10123DE
S31508016B2063434101B1FBF3F20B4B203A284603EAD2
S31508016B30C20201211BF08FFF2A63BDE870401BF0DA
S31508016B408ABF0623ECE71023EAE70423E8E700BF38
S31508016B500000015B00000A50F8FF7F002DE9F843A9
S31508016B609846436804460E4617461BB140F6FF7120
S31508016B701BF071FF2046FFF751FFF189737B6269AC
S31508016B800B43318A22F44C520B4322F00F02134372
S31508016B906361A268317E337B22F0804222F0E202F1
S31508016BA00B4313437269D6F808901343A360B9F1EE
S31508016BB0000F03D1A36843F00043A360F0690028DE
S31508016BC074D0857A037A6D04A26845EA83556D4BBC
S31508016BD013401D43838803F4C0431D43437845EAA4
S31508016BE08305437B45EAC305837B45EA0315837819
S31508016BF045EA8325A560D0E90432E5681343624A6C
S31508016C002A401343827943EA8223C27943EA42231B
S31508016C10E36003785D4A012B14D1E36843F004036A
S31508016C20E360944200F09280594B9C420CBF0123C9
S31508016C304FF0FF335B0103F1A04342F2944203F59F
S31508016C40703314E0032B7BD1E36843F00403E3605C
S31508016C50944279D04E4B9C420CBF01234FF0FF332F
S31508016C6041F294425B0103F1A04303F57033022517
S31508016C709D50437A04F5805293621BB1E36843F44D
S31508016C800063E360C37A5BB1E36843F40043E360FE
S31508016C903E4B9C425CD1037B3E4A03F00F0353678C
S31508016CA0636AC27B23F00303134363623FB197F818
S31508016CB0203004F58050002B54D001230362B8F12B
S31508016CC0000F27D004F5805011B14FF400438365B6
S31508016CD02E4BB8F822109C4298F821304FD02C4AF6
S31508016CE094420DD10122112B34BF012702272A4DC7
S31508016CF0B1F5006FAF5494BF01270227274DAF5452
S31508016D00A26D0B4322F4F95222F01E021343A36526
S31508016D1001238365052120461BF0BBFEB9F1000F4F
S31508016D2003D04A467168FFF7A3FE204631781BF067
S31508016D30CDFEA36CDB4313F4405FFAD1BDE8F883BB
S31508016D40023B012B84D96CE7002389E7002371E70D
S31508016D500F4B9C4201BF037B0E4A03F00F03C2F897
S31508016D6080309DE7E26997F8223097F8215022F0A2
S31508016D7009022B43134343F00103C3619FE7002232
S31508016D80B1E700BFE39BBDFFFFF9F0870000015B98
S31508016D9000000A5000900350602700205E2700205B
S31508016DA02DE9F04105460F461E4690464AB1012394
S31508016DB03022194C8B4002FB004436B304F5825449
S31508016DC023600F21072F05EB450388BFA7F10804A8
S31508016DD04FEA0313114895BFBC00A40004330C33D2
S31508016DE008FA04F2A14018441BF080FEB8F1000F1E
S31508016DF009D101233021084ABB4001FB05223EB1D6
S31508016E0002F582521360BDE8F08104F50154D7E713
S31508016E1002F50152F6E700BF00C0035030C0035027
S31508016E20F8B505460E4614465AB303F003078368B8
S31508016E3023F44073836029F0A6F8AA6882EA072337
S31508016E4003F440735340AB6029F098F836B9B5F1AD
S31508016E50B64F17D12E20FEF7D9FE0646AB680C4B66
S31508016E60DA5D62430DD0A2EBC403013B3344B3FBA5
S31508016E70F2F3AA68013B920702D5002B08BF01234A
S31508016E80AB61F8BD034B9D42E8D12F20E3E700BF74
S31508016E90BB0B04080080065038B500230E4A03646C
S31508016EA000F50053DA634A7804460D4600F10803F3
S31508016EB07AB903F5805302221A602046D5E90112F0
S31508016EC02B7BFFF7ADFF20462978BDE838401BF03C
S31508016ED01CBE03F50053EEE7FFFF1F00B0F1B64FE6
S31508016EE070B519D0804B984240F0FA807F4B99686B
S31508016EF0C26B12F4C06F15D091050FD5FD225A70D9
S31508016F0009221A700022026493F90110012900D19D
S31508016F105A7093F9010070BD754BE8E75605EFD530
S31508016F20FE22ECE71C78082C00F2D680DFE814F084
S31508016F3009001F004500530070007E009C00A70051
S31508016F40CB004C880A88E5060AD5120A02F0060221
S31508016F5042F0F002012119704263C1600120DAE7AB
S31508016F6002F0FE02A10748BF42F00102F2E7160647
S31508016F7008D5802100F50052D1634FF608721A80B0
S31508016F80022318E05506E9D5402400F50052D463DA
S31508016F904A88D40604D502221A700B784363DDE7C2
S31508016FA096076AD507221A701B7901EBC3031B8959
S31508016FB0012BD3D10823C360D0E71506D9D45406CB
S31508016FC0CCD5402400F50052D4634A88920754D59B
S31508016FD003221A708CE74C880A88E60643BF120A10
S31508016FE002F0060242F0F00202F0FE02650709D538
S31508016FF01C7942F0010201EBC4010989012904BF88
S315080170000821C160042119700123C3604263A5E701
S315080170101406AED45206A1D5402400F50052D46315
S315080170204A88560729D507221A7097E71A795D887B
S3150801703001EBC2042689AE420FD800240132D2B22E
S315080170401A715C804C886507C2D4E40702D4012A08
S315080170507FF64EAF08221A7092E76268691C59805A
S31508017060525D42630622DFE7160682D455067FF58E
S3150801707075AF402400F50052D4630522A9E79406AA
S315080170807FF56CAF20261A7900F5005401EBC20191
S315080170900A89456AE6635C88A24281BF4968661C1B
S315080170A05E800D5559888A42D4D90424012AC460C0
S315080170B004D0013A914201D10822C2601A78092AFC
S315080170C03FF420AF4AE7D2057FF548AF4FF4807108
S315080170D000F50052D16313E74FF609321A8011E71A
S315080170E06FF0030017E700BF00800650C4180020A0
S315080170F0B8180020B0F1B64F10B407D01A4B984211
S315080171002ED06FF003005DF8044B7047174B0269E8
S31508017110D20744BF2022C2604A88940702D50C8947
S31508017120002CEED0520702D50A8A002AE9D04FF47C
S3150801713080721A60002299601A71C023C36043697C
S31508017140DB050FD4202200F50053DA63084A5DF8FF
S31508017150044BDA63036C43F4FC630364FFF7BEBEB6
S31508017160044BD4E7436AEAE700800650B8180020C2
S31508017170FFFF1F00C418002010B5152002F008F9FA
S315080171800024FF22064B21465C6520209A625C603A
S31508017190FEF722FD2146BDE810402120FEF71CBD61
S315080171A000000450044A054B002908BF1346012272
S315080171B082401A60704700BF4010045040200450B6
S315080171C010B5012104462020FEF706FD01212120E4
S315080171D0FEF702FD0122114B15205A60227812068C
S315080171E09A606178A27842EA01429A61FF229A621C
S315080171F000229A631A644FF000425A654FF0FF3233
S3150801720003F500531A6502F0F1F81520E1781CF030
S3150801721010FCBDE81040152002F0CCB8000004505F
S31508017220F8B50125C3B2D1F800E091F80AC00F7B81
S315080172300C469D40CB7A1D491D4E0D65810001F115
S31508017240A04101F58821C1F804E04FF0300E0EFB8C
S3150801725000601B05617B43EA0C4343EA475322F06E
S3150801726003020166C365026728F096FE114B5D6548
S31508017270237A13B1336C2B433364637A13B1B36B3B
S315080172802B43B3632279A37943EA0243074A9361FD
S315080172906179E37943EA014306498B61044B5563F6
S315080172A09D64BDE8F84028F072BE00BF0020045076
S315080172B0000004500010045010B50124C0B28440E7
S315080172C028F06AFE044B5A6D22EA04025A659C624A
S315080172D0BDE8104028F05BBE0000045010B501243B
S315080172E0C0B2844028F058FE074BDA6A224208D118
S315080172F05B6B9C430CBF0124002428F048FE204602
S3150801730010BD0024F9E700BF0000045070B505461A
S3150801731028F042FE3022084B5E6B02FB05335C6E99
S3150801732028F035FE0123EDB2AB4033420ABFC4F360
S315080173300A100020013070BD000004504FF480325D
S31508017340054B9A6641F6713203F51C33DA6301225D
S3150801735003F50053DA6070470090005041F6713228
S315080173600121064BDA6303F50052D1600022DA6384
S315080173704FF48032A3F518339A667047000003501C
S31508017380013831289ABF024B185C0020704700BFAC
S31508017390BF0B040838B5C2F30625044602F00702F6
S315080173A041B942EA052242F440220634074B43F822
S315080173B0242038BD114628461BF0B1FB0246284653
S315080173C0FFF7DEFF163442EA0022EFE7008003509A
S315080173D04FF48032064B5A6603F5E6239B69C3F3DD
S315080173E08512827003F03F021B0B427003707047CF
S315080173F000900050014B986CD96C70470080E00FE3
S315080174000120034B9B680A3303F01F03984070471A
S315080174100080E00F0122437801789A4030235943CE
S31508017420014B5A50704700BF40E00350034BD3F855
S315080174302424D3F820041040704700BF00C003502D
S315080174402DE9F8431F4B0546D3F810334B1E0E2B77
S315080174500E461746047890F8018026D951B34FF0A5
S31508017460000928461FB327F02DFC0F21B8F1070F95
S3150801747004EB440488BFA8F108084FEA041412482B
S3150801748095BF4FEA88084FEA880804340C3409FA8C
S3150801749008F201FA08F120441BF05EFB86B928467A
S315080174A057B1BDE8F84327F00DBC8946D9E7FFF780
S315080174B0B1FFDAE78946D8E7BDE8F843FFF7AABF7F
S315080174C0BDE8F88300C0035030C00350054B9A68E5
S315080174D09107FCD45A689207F9D4DA69002AF6D1D9
S315080174E0704700BF00800A5008B527F0F7FB022253
S315080174F0014B1A6108BD00BF00800A5008B5FFF7A5
