S01B0000626F6F746C6F616465722D6170706C6F616465722E733337C9
S3150800000008100020A3A80008A1A80008D9A900087C
S31508000010A1A80008A1A80008A1A80008A1A800088E
S31508000020A1A80008A1A80008B4BF0008A1A8000854
S31508000030A1A8000864BF0008A1A80008A1A8000894
S31508000040A1A80008A1A80008A1A80008A1A800085E
S31508000050A1A80008A1A80008A1A80008A1A800084E
S31508000060A1A80008A1A80008A1A80008A1A800083E
S31508000070A1A80008A1A80008A1A80008A1A800082E
S31508000080A1A80008A1A80008A1A80008A1A800081E
S31508000090A1A80008A1A80008A1A80008A1A800080E
S315080000A0A1A80008C5190008A5190008A1A80008F4
S315080000B0A1A80008619100080D9C0008CFBB0008A4
S315080000C0CBBB00089D930008E5BB0008D3BB00081E
S315080000D0DD9B0008D7BB00084D9C0008B99C0008AA
S315080000E0A1A80008A1A80008A1A80008A1A80008BE
S315080000F0A1A80008A1A80008A1A80008A1A80008AE
S31508000100A1A80008A1A80008A1A80008A1A800089D
S31508000110A1A80008A1A80008A1A80008A1A800088D
S31508000120A1A80008A1A80008A1A80008A1A800087D
S31508000130A1A80008A1A80008A1A80008A1A800086D
S31508000140A1A80008A1A80008A1A80008A1A800085D
S31508000150A57D0008A1A80008B9BB0008BFBB000818
S31508000160A1A80008A1A80008A1A80008A1A800083D
S3150800017070B506468AB02C480BF019F92B482C4B5B
S31508000180002103602B4B2C4C436004F041FA24A356
S31508000190D3E900232060CDE900234FF0FF334FF069
S315080001A0FF320BF0ABF902224FF0FF3120680BF05B
S315080001B0A7F900239422CDE9073309933C23CDE917
S315080001C003320593962303A92068069304F0ECFAF4
S315080001D00AF0CDFD2546014620680BF0CCF92068CB
S315080001E00BF02FFAB6F9001055F8080B0BF0AAF920
S315080001F0766866B928460AF04BFEA37B66F30003C9
S31508000200A373202323840AF093FD0AB070BD3068D7
S31508000210A060B288B379AA80AB71F2E7AFF3008029
S315080002200855005100000000690345ECA81B002092
S31508000230113C0008B81B0020C81B00200348044BCB
S31508000240834202D0034B03B118477047902500201C
S315080002509025002000000000064B0749C91A89109E
S3150800026048BF0131491003D0044B0BB10148184768
S31508000270704700BF90250020902500200000000050
S3150800028010B5064C237843B9FFF7D8FF044B13B1D2
S315080002900448AFF300800123237010BDC02400205A
S315080002A0000000009C10010808B5054B1BB1054964
S315080002B00548AFF30080BDE80840FFF7CDBF00BF93
S315080002C000000000401200209C10010810B52A4CBE
S315080002D002F052F802F09CF9236F012023F007037D
S315080002E043F00303236702F0BDF9244B01219B6AFF
S315080002F03E20DB015EBF4FF48032214B9A62D4F870
S31508000300203123F0070343F00203C4F82031D4F860
S31508000310283123F0070343F00203C4F82831D4F840
S31508000320403123F0030343F00203C4F84031D4F804
S31508000330603123F0030343F00203C4F8603101F08F
S31508000340E3FDD4F84032002023F0030343F0020310
S31508000350C4F84032D4F8003223F0070343F002030E
S31508000360C4F80032D4F8083223F0070343F0020336
S31508000370C4F8083210BD00BF008000500040005A83
S315080003800060005A064B0748DA1C121AC11E22F0F2
S315080003900302994288BF002203490BF039BC00BF0B
S315080003A09025002000250020B0100108064B0748BC
S315080003B0DA1C121AC11E22F00302994288BF0022D3
S315080003C000210BF05CBC00BFFC24002008100020B4
S315080003D04FF48041124B134A70B59A60D3F88820BF
S315080003E0114D42F47002C3F88820104A05F50054EE
S315080003F091664FF0FF3222660D4A62660222C3F802
S31508000400D020BFF34F8FBFF36F8F4FF440360020D5
S3150800041002F0F4FD0020E66002F0E2FD2E6170BDF8
S3150800042000ED00E000000008008000440090005045
S31508000430F7FF3700054B1860054B1B6F03F00703E2
S31508000440032B01D10BF044BC704700BF18250020D0
S315080004500080005030B5154BADF5117D03AC0FCBC0
S3150800046084E80F002C22002107A80BF008FC682559
S31508000470FF234FF49472002146A88DF81D300BF027
S31508000480FEFB2A46002112A80BF0F9FB2A4600219A
S315080004902CA80BF0F4FB00942CAB12AA46A907A8CB
S315080004A000F0E2F80DF5117D30BD00BF38BF000839
S315080004B00122044B1A700023034A1370034A13706F
S315080004C0704700BFC3240020C2240020C124002096
S315080004D0002238B5124B134C1A700122124B1A70AF
S315080004E023689A78DAB1DA78CAB11A78510706D544
S315080004F0986A0AF053FA10B10C4800F009FA236812
S315080005001A7892070BD55D680AF035FA854206D93E
S3150800051023680648596ABDE8384000F0AFB938BDC7
S31508000520C324002070120020C22400200080010885
S3150800053007B5024601200B460649087006490748D2
S315080005400968009106490068096800F039FC03B09B
S315080005505DF804FBC12400206C12002068120020FC
S3150800056070120020044A05490548202312680968C4
S31508000570006800F0EBBB00BF601200206412002088
S3150800058068120020094B1A68D37892782AB1002B92
S3150800059041F20C0018BF0020704741F20C0240F2ED
S315080005A00570002B08BF1046704700BF7012002068
S315080005B008B5FFF78BFE02F0B5FC02F09DFC02F0D1
S315080005C02FFBBDE8084001480AF0D3BB58120020AB
S315080005D010B5234B234C18681B7992B08DF80C3054
S315080005E023880290ADF80D30A37868468DF80F3051
S315080005F00AF0CDFB41F60833ADF810309DF8063009
S31508000600BDF80420C3F300038DF8183040F6022322
S31508000610ADF8283000230098ADF816208DF82A305A
S31508000620CDF8120002F0FEFC02F002FD204603217E
S3150800063002F004FD02F00AFD02F0EEFC112102A808
S315080006400AF0B9FB03210AA80AF0BCFB01200AF04C
S31508000650C0FB002840F2017008BF002012B010BD90
S3150800066048BF00084EBF000870B5134C134E2060F3
S315080006701348144D016014490A60144A1360049A19
S31508000680134B1A6033780BB10AF07FFB2B78002BDB
S31508000690F8D0104B1B784BB123689A784AB1DB78AF
S315080006A040F20570002B18BF002070BD40F20370A1
S315080006B0FBE740F20570F8E770120020C32400201B
S315080006C068120020C2240020641200206012002054
S315080006D06C120020C124002037B500F1006303F531
S315080006E0C0330193104B0D46984214461AD8019A06
S315080006F00E4B9A4216D2019A9B1AA34212D348B9B4
S315080007004FF000639B6A0A4A5969914202D91869EF
S3150800071000F042FA22462946019803B0BDE8304067
S315080007200AF0DCB803B030BDFF7FFEF700E017081B
S31508000730008001087FB56FF0006200F178419142B0
S31508000740034619D26D460D4A02F110062C4610686A
S315080007505168083203C4B2422546F7D15A1E04A985
S315080007600F3311F8014D12F8010F844204D19A4251
S31508000770F7D1012004B070BD0020FBE752BF000886
S31508000780F0B50368044603F16043B3F5802F9FB0C4
S3150800079033D84FF000639B6A42681E6996422CD88C
S315080007A0344B9A4229D8456B06F14002AA425ED8D4
S315080007B09D425CD82846FFF7BDFF002857D028463B
S315080007C00AF0BFF880B16B6973B1022B0ED1AB6921
S315080007D0C4F1040119444FF0FF32204600F040FEF0
S315080007E0254BC31A584258411FB0F0BD40F2046366
S315080007F028460293FFF79EFF08B90020F4E74FF05A
S3150800080000635F6B3846FFF795FF0028F5D0A6F121
S3150800081050039F42F1D8284603A90AF099F8002800
S31508000820EBD0039DAE42E8D8AC42E6D8114B9D42C8
S31508000830E3D804A800F0D8FE21462A1B04A80AF02B
S31508000840F7F904A80AF0F6F900F0DEFE044600F00F
S31508000850F9FE23460090294605F1200204A800F077
S3150800086043FE02900298B0FA80F04009BCE70120E6
S31508000870BAE700BF00001808E320BBDE70B54FF0EA
S31508000880FF3290B005460C4600F0EAFD1C4B984234
S3150800089032D14FF480621B4B00219A6601A81C22B4
S315080008A00BF0EDF9184B29466846043C00930BF00B
S315080008B004FB214668460BF000FB68460BF006FB76
S315080008C00BF0B0FA0646B8B940F2022000F042F939
S315080008D01C22314609A80BF0D2F90C4B294608A868
S315080008E008930BF0EAFA08A821460BF0E6FA08A8DE
S315080008F00BF0ECFA0BF096FA002010B070BD00BFB2
S31508000900E320BBDE009000500100054301000643CA
S315080009104FF4806230B50446154B91B09A660021B3
S315080009201C2201A80BF0ABF9124B2146684600932E
S315080009300BF0C3FA68460BF0C9FA0BF073FA0546D2
S3150800094098B940F2022000F005F91C22294609A8A8
S315080009500BF095F9084B08A8214608930BF0ADFA59
S3150800096008A80BF0B3FA0BF05DFA002011B030BD01
S315080009700090005000000243000003434FF48062D9
S3150800098010B50F4B8CB004469A6600211C2205A8A8
S315080009900BF075F90B4B01940493012302930A4B50
S315080009A001A904A803930AF096F904A80BF08EFA95
S315080009B00BF038FAB0FA80F040090CB010BD00BF51
S315080009C000900050000008430400002000487047CB
S315080009D0008001081A4B10B5D3F88420110606D4F6
S315080009E04FF400621A67D3F88420D206FBD409F0C4
S315080009F0E5FF00F099F809F05FFF09F05FFF18B10D
S31508000A004FF401700AF05AF8FFF724FD044609F07E
S31508000A1057FF34B940F201200AF050F84FF401703C
S31508000A2009E040F203739C42F4D0A4F20574012C49
S31508000A30F4D840F203200AF041F8002010BD00BFA8
S31508000A400040005001232DE9F3418DF806308DF85A
S31508000A5007302F4BD3F894305A060FD500F086F896
S31508000A60A0F2022080B2072808D8C923C340DB07B2
S31508000A7042BF00238DF806308DF80730254B5B689A
S31508000A80013308D14FF4027000F064F800238DF8A2
S31508000A9006308DF807309DF807305BB11D48FFF723
S31508000AA06FFE8DF806009DF806301BB94FF40270EC
S31508000AB000F050F89DF8063033B34FF480464FF0F7
S31508000AC0FF320024144B154D9E6603F174431A66D3
S31508000AD002F580025A66C5F8D040BFF34F8FBFF3C0
S31508000AE06F8F4FF440380E4F204602F067FA2046C3
S31508000AF0C7F8108002F082FA0A4B0648C7F80C803D
S31508000B009E66A86009F05EFF02B0BDE8F08100BFEE
S31508000B1000400050002001080090005000ED00E061
S31508000B2000A0004400A000504CF23C32014B5A8011
S31508000B30704700BF000000204AF6C030044B5B88AF
S31508000B4023F00F039BB21B1A58425841704700BF47
S31508000B5000000020044A08B51080FFF7EDFF10B921
S31508000B604FF20F03538008BD000000204FF20F011B
S31508000B70084B5A888A4201D1188870473AB91B88A7
S31508000B8040F20220012B18BF4FF4007070474FF453
S31508000B9000707047000000204FF4803208B5044BFF
S31508000BA09A6601F0F3FEB0FA80F0400908BD00BF6E
S31508000BB000900050072BF8B506460F4614461D460A
S31508000BC001D90020F8BD0121202001F09DF901215D
S31508000BD0212001F099F98CB144EA06039B07F0D16C
S31508000BE04FF48032064B31469A66284623463A46E3
S31508000BF001F0F4FEB0FA80F04009E3E70120E1E7EE
S31508000C000090005030B5024600230C25054905FB27
S31508000C1003F460180C59944203D001330C2BF6D117
S31508000C20002030BDFCBF0008F0B50023082787B0B8
S31508000C30CDE9013315463B46009704AA044609F058
S31508000C4065FF41F203039842064623D194F84330E0
S31508000C5053B13A46E06C04A909F0EAFF04AA3B46F8
S31508000C601146A06C09F0D3FF059A049B6A6094F8B4
S31508000C7043202B6052B9094A934207D0084A934247
S31508000C8004D00822E06C04A909F0D2FF6B6823653A
S31508000C9000236365304607B0F0BD00BFF70A0AF7C0
S31508000CA0FC0404FC2DE9F04799465B6804460F46A8
S31508000CB09046002B3FD08B0740D14FF000639B6ACC
S31508000CC0006E1B6981181D1DA9421BD31C3398424F
S31508000CD018D2A842024638BF2A46994294BFC2EBA8
S31508000CE0010AC2EB030A101A3E18C5F1680010443F
S31508000CF03146524620440AF08BFF5246FF213046C1
S31508000D000AF0BDFF226E0F4B9A420BD80E4902EB32
S31508000D100800884206D99B1AFA58C4F880204FF072
S31508000D20FF32FA50D9E9003542463946206EA847BF
S31508000D30236E434423660020BDE8F08741F2020093
S31508000D40FAE700BF04800108078001082DE9F04191
S31508000D5000254FF0FF3704468846164603F0200361
S31508000D6080F842301822FF21C0E91855A0F84050F3
S31508000D7080F84350A0F8445080F84650C0F8887070
S31508000D8068300AF07CFF88222946C4E91286C4F82E
S31508000D908070C4F8847004F190000AF070FF074B65
S31508000DA0C4F82071C4E9463584F8245116B1304692
S31508000DB000F01AFC0020BDE8F08100BF0001010127
S31508000DC02DE9F04FA5B09946CDE911230023044635
S31508000DD00E464FF001082E9D1393139978E094F868
S31508000DE046300C2B70D8062B4BD908FA03F212F4AE
S31508000DF0286F40F00F8212F4885F40F0BA810A2B00
S31508000E0066D1DFF8BCA3636D072B00F228814FF08B
S31508000E10080B382316AA2046CDE90188CDF800B07C
S31508000E2011A909F073FE41F203030A900A9A9A423D
S31508000E3000F03F810A9B5BE0A3F10E02052A00F24F
S31508000E409482DFE812F006030600F5003602360241
S31508000E5004030027636D0F2B00F28A80102314AA5F
S31508000E60009320464023CDE9018711A909F04EFEDB
S31508000E7041F203030890089A9A4200F0CB80089B37
S31508000E8036E0013B052B27D8DFE813F074006E0027
S31508000E900600C401DC007B010127636D072B00F205
S31508000EA0DE80082314AA009320464023CDE9017763
S31508000EB011A909F02BFE41F203030B900B9A9A42F3
S31508000EC000F021810B9B13E0A3F10D02062AB3D98A
S31508000ED0494584D3002065E014AA204611A9FFF7E6
S31508000EE0A3FE41F203020590059B934208D0059B99
S31508000EF0049341F20303049A9A423FF46EAF50E01A
S31508000F00159A1499226500226265AB4A914240F00F
S31508000F100781022284F84620EAE7082314AA0093E8
S31508000F2020464023CDE9018711A909F0EFFD41F2DA
S31508000F3003030690069A9A4201D0069BD8E7149BAB
S31508000F4003F07F43B3F1407F05D0132384F846307E
S31508000F5041F20903CCE7159BD90706D594F8423028
S31508000F6043F0010384F842300027636D072BD4D978
S31508000F70012303E1204614AA11A9FFF755FE41F201
S31508000F8003030790079F9F420FD0079F41F2030371
S31508000F900497049A9A423FF420AF049B0BB10023AE
S31508000FA0F370049825B0BDE8F08F1498FFF72AFE71
S31508000FB028B9132341F2080784F84630E6E743794F
S31508000FC094F824219A4205D9132341F20E0784F88E
S31508000FD04630DBE7026879498A4205D00289D2079A
S31508000FE048BF013384F8243194F84230D9070DD527
S31508000FF0028994F84330920706D53BB1132341F290
S31508001000010784F84630C1E7002BF7D0037984F846
S315080010104630BBE7D4F848A000F032FB8023022113
S31508001020CDE9000315AA0123504600F031FA11E76D
S31508001030226D0123A265002284F84330E26584F814
S315080010404630CAE600213C2215A8149101270AF069
S3150800105016FED4E91432934204D884F8467041F255
S31508001060030345E7009314AA40232046CDE90177F8
S3150800107011A909F04BFD41F203030990099A9A4216
S3150800108001D0099B34E70DF1500C06F108030DF168
S31508001090680E624603CA724518605960944603F1A1
S315080010A00803F6D110681860337843F001033370EB
S315080010B0CFE7337843F004033370179BB362737832
S315080010C05F071CD50020236DCDF850A0C4F88430E6
S315080010D094F84530606643F0020384F84530EF68BB
S315080010E06FB104222B6814A9B847606E2B685A465C
S315080010F0EF6816A90830B847636E103363660B238A
S3150800110084F846307FE6337843F002033370149B45
S315080011107360236D083B7362159BB3F1006F05D0AE
S31508001120132384F8463041F20103E1E6042384F8E8
S31508001130463094F8453043F0010384F845300023DF
S315080011406366AAE6042314AA009320464023CDE941
S31508001150017711A909F0DAFC41F203030C900C9A05
S315080011609A4201D00C9BC3E6226D149B042A01D92E
S3150800117023660127636D032BE4D9092384F84630D7
S315080011806DE700236366072359E79F4252D89F42BB
S3150800119028BF1F46402314AA2046CDE90188009798
S315080011A011A909F0B3FC41F203030D900D9A9A4276
S315080011B011D00D9B9CE600BFEB17A603F90707F9AC
S315080011C0EB17A65E402F28BF40279F4228BF1F4621
S315080011D027F00307DEE794F846B0BBF1070F2FD0D8
S315080011E0042FC7F1040A88BF4FF0000A14AB524611
S315080011F0FF21D8190AF043FDBBF1090FBA442DD1D6
S315080012002B465246204614A9FFF74CFD0D900D9B20
S31508001210002BCED1D4E914739F427FF6A9AEFF1AEC
S31508001220DDE912329B1A94F84020032F1344ACD9F7
S31508001230032BC7D8204611A909F047FC002357E617
S31508001240D5F808A0BAF1000FCAD02B683A46606EE6
S3150800125014A9D047636E3B446366DBE7BBF1040F12
S315080012601DD173789807D5D5EB68002BD2D0626E5E
S31508001270042A0BD80AEB0203062B07D915AB9B1ACF
S315080012801A68C4F884204FF0FF321A60EF682B689A
S315080012905246606E14A9B847636E5344DCE7BBF147
S315080012A00B0FB7D173785907B4D5EF68002FEED175
S315080012B0B0E74FF000618A6A496B1269503A914269
S315080012C03FF631AF112B0FD194F81831002B7FF46C
S315080012D04FAE41F206030E930E9A9A4202D1132399
S315080012E084F846300E9B03E694F84430002B7FF4CE
S315080012F03FAECDE90133402314AA0093204611A935
S3150800130009F004FC41F203030E900E9A9A42E9D1C1
S31508001310E06C09F08FFC94F81831A3B104F1B4031A
S315080013200093E06C04F194031CAA14A900F0DCF8FD
S315080013300E900E9BA3B10023F370132384F8463056
S3150800134041F20603D4E5D4F84CA000F05DF907464F
S3150800135000F078F93B4600901CAA504614A9E5E728
S315080013600123F37084F8443002E600234FF00408A2
S31508001370CDE9013314AA40232046CDF8008011A9EF
S3150800138009F0C4FB41F203030F900F9A9A4202D068
S315080013900F9B049305E6D4F888202F4B9A4205D074
S315080013A0132384F8463041F20503F2E70123F3706C
S315080013B094F84530DA0707D5EF682FB1424640461C
S315080013C02B6804F18401B84794F845309B0707D584
S315080013D0EF682FB104222B68104604F18401B84740
S315080013E0236E6BB36F685FB34FF0FF3304F1800869
S315080013F00422414610A810930AF017FC20B10422D3
S3150800140041462B681548B84704F16809042249463D
S3150800141010A80AF00AFC98B14FF000639B6A1422E0
S31508001420D3F8108004F16C0108F10800D5E90037FB
S31508001430B847D5E900370422494608EB0200B84701
S315080014400123B3700E2384F846300023A1E7002356
S31508001450F37041F20700A5E5E320BBDE048001082E
S3150800146030B50824094B00255C66012403F5FE23E4
S315080014705C6001449D601A61DC60884201D1586A4B
S3150800148030BD10F8012B1A62F7E700BF0090005034
S315080014902DE9F04116464FF480621D46114B00F1C6
S315080014A0200804469A6640460F4609F01EFCDDE908
S315080014B00612404609F01DFC002384F85870636440
S315080014C03368C4F859307368C4F85D30B368C4F833
S315080014D061302B0C6DBA84F86530A4F86650BDE807
S315080014E0F08100BF009000502DE9F04315464FF4F7
S315080014F080621C46364B99B0DDF880900E4607464A
S315080015009A66002861D000295FD0002D5DD0002C96
S3150800151058D0304B304AB9F1000F14BF9846904660
S315080015201C22002111A80AF0AAFB2C4B414610A840
S3150800153010930AF0C2FC202110A80AF0BEFC012272
S31508001540274B019402920393CDF8109005920693C7
S3150800155054B1B9F1000F07D001A910A809F0B1FBE1
S3150800156004A910A809F0ADFB079701271C4C07A989
S3150800157010A80897099409F0A4FB0AA910A80A96C6
S315080015800B970C940D950E970F9409F09AFB0DA9DD
S3150800159010A809F096FB10A80AF098FC114B0093C6
S315080015A04FF098435A6CD202FCD55B6D40F204604A
S315080015B003F470230093009B002B08BF002019B08A
S315080015C0BDE8F083DFF81080AAE740F20160F6E78D
S315080015D0009000501F2400801F24FC840000010690
S315080015E020000020785634124FF4806210B5044665
S315080015F0044B9A6609F021FB2046BDE810400021FD
S3150800160009F01FBB009000504FF4806200B50B4BE9
S315080016109BB09A660021242201A80AF030FB4023D9
S3150800162000210AAA01A801F00BFB20F010000128EE
S31508001630034818BF00201BB05DF804FB009000505B
S315080016404CE317084FF4806200B50B4B9BB09A66C3
S315080016500021242201A80AF012FB402300210AAA2D
S3150800166001A801F0EDFA20F010000128034818BF80
S3150800167000201BB05DF804FB009000506CE31708CF
S315080016800048704786E217082DE9F3471446DDE956
S315080016900A920D461F4600284DD14CB313683F2BBE
S315080016A02AD8516851B32549002F14BFB846884631
S315080016B003F03F061B19136022BF536801335360BA
S315080016C0FEB93F2C0ED9A3092A46009341463B464C
S315080016D0002000F083F824F03F031D4404F03F0483
S315080016E034B100262246294609EB06000AF090FA8C
S315080016F0002002B0BDE8F087B846D9E7DFF83C809D
S31508001700D6E7C6F1400A5445ECD32946524609EBBA
S3150800171006000AF07DFA0123264400934A463B4612
S3150800172041460020A6F1400400F058F83F2C5544E5
S31508001730D6D9B846C7E70248DBE700BFCCC00008E1
S3150800174080AFFFFF2DE9F0411746146886B01E46A4
S31508001750E3008DF80F3063098DF80E30630B8DF8B2
S315080017600D30630D8DF80C3053680546DA0002EB30
S3150800177054728DF80B2004F03F045A09372C8DF863
S315080017800A204FEA53324FEA53538DF80920884608
S3150800179094BFC4F13802C4F17802CDE900178DF878
S315080017A008300D4903460020FFF76EFF08222B4636
S315080017B00020CDE900870DEB0201FFF765FF2846FB
S315080017C005F1200350F8042B984246F8042BF9D16A
S315080017D0002006B0BDE8F0818CC00008F0B51746B9
S315080017E04FF480621D46254B93B00E469A66044612
S315080017F0202200210AA80AF042FA01204FF00052DE
S315080018000197029003920496059006920795089010
S315080018100992002C2FD1189C194BA40121460AA81D
S315080018200A930AF04AFB039B04A91C430394069BEC
S315080018300AA843F020030693099B43F02003099363
S3150800184009F03FFA01A90AA809F03BFA07A90AA86C
S3150800185009F041FA0AA80AF039FB4FF098435A6C86
S31508001860D202FCD55B6D13F4702F14BF6FF06F00B6
S31508001870002013B0F0BD6FF07100FAE70090005039
S3150800188000040103BFF34F8F0549064BCA6802F4EB
S31508001890E0621343CB60BFF34F8F00BFFDE700BF85
S315080018A000ED00E00400FA052DE9F04104460C2598
S315080018B04FF00108124E0CB314F001000BD00020B3
S315080018C024F0010405FB00625768002FF3D09168E5
S315080018D0C0B2B847EFE72246013020284FEA520245
S315080018E001D0D307F8D508FA00F20F2824EA020433
S315080018F0E8D9103805FB0062B432E5E7BDE8F081A7
S315080019007412002010B50446E8B10378C3B1012B60
S3150800191003D0022B14D0032B17D13F236278D34070
S31508001920DB0712D50AF095FA0122637821789A40E6
S3150800193030235943064B5A500AF086FA002010BD48
S3150800194040F2FF33EAE72220F9E72120F7E700BF54
S3150800195040D0035010B50446E8B10378C3B1012B53
S3150800196003D0022B14D0032B17D13F236278D34020
S31508001970DB0712D50AF06DFA0122637821789A40BE
S3150800198030235943064B5A500AF05EFA002010BD20
S3150800199040F2FF33EAE72220F9E72120F7E700BF04
S315080019A040E0035008B501F0A1F8054B00F05530AA
S315080019B020F05020C3F82004BDE80840FFF774BFA4
S315080019C000E0035008B501F091F8054B00F0AA3085
S315080019D020F0A020C3F82004BDE80840FFF764BF44
S315080019E000E00350044BD3F88420D206FBD4D3F886
S315080019F08400C0F3811070470040005038B5174B7B
S31508001A000546D3F828310C4603F00703013B052B9E
S31508001A1020D8DFE803F003131B0F0B170AF038F979
S31508001A20052305B1286004B1236038BD0AF030F9F2
S31508001A300623F6E70AF06CF90723F2E70AF062F9DB
S31508001A400323EEE70AF05EF90423EAE70AF056F9FB
S31508001A500223E6E700231846E3E700BF00800050AC
S31508001A60002337B50193164B0546D3F820320C46AA
S31508001A7003F00703042B21D8DFE803F0030B111644
S31508001A801B0001230DB1019A2A6004B1236003B03B
S31508001A9030BD002101A8FFF7B1FF1223F2E70AF0D3
S31508001AA037F907230190EDE70AF0B6F90A23019002
S31508001AB0E8E70AF075F909230190E3E70023E1E76F
S31508001AC00080005038B5104B0546D3F880300C46D8
S31508001AD003F00303022B0BD0032B0DD0012B0FD1E0
S31508001AE00AF0DCF80E2305B1286004B1236038BD7E
S31508001AF00AF00EF90723F6E70AF0CAF80623F2E712
S31508001B0000231846EFE700BF0080005038B5104B99
S31508001B100546D3F800310C4603F00303022B0BD01D
S31508001B20032B0DD0012B0FD10AF0ECF8032305B1D6
S31508001B30286004B1236038BD0AF032F90923F6E7B4
S31508001B400AF068F90823F2E701230020EFE700BF4F
S31508001B500080005038B5184B0546D3F820010C46CE
S31508001B6000F00700062823D8DFE800F0040A0E165E
S31508001B70121A1E00012305B1286004B1236038BD7E
S31508001B800AF086F80523F6E70AF0BCF80323F2E71D
S31508001B900AF0BEF80723EEE70AF0B0F80223EAE7F0
S31508001BA00AF076F80623E6E70AF0ACF80423E2E73B
S31508001BB000231846DFE700BF0080005038B5104BF9
S31508001BC00546D3F840310C4603F00303022B0BD02D
S31508001BD0032B0DD0012B0FD10AF01EF90A2305B1EC
S31508001BE0286004B1236038BD0AF0DAF80923F6E75D
S31508001BF00AF015F90C23F2E701230020EFE700BFEE
S31508001C0000800050002337B50193164B0546D3F8DC
S31508001C1060320C4603F00703013B032B1FD8DFE8AD
S31508001C2003F0020E1914002101A8FFF793FF1023F1
S31508001C300DB1019A2A6004B1236003B030BD0021BA
S31508001C4001A8FFF7BBFF1123F2E70AF061F80723A3
S31508001C500190EDE70AF052F802230190E8E7002325
S31508001C60E6E700BF00800050002337B50193164B06
S31508001C700546D3F894320C4603F00703013B032BC1
S31508001C801FD8DFE803F0020E1914002101A8FFF798
S31508001C9061FF10230DB1019A2A6004B1236003B0D5
S31508001CA030BD002101A8FFF789FF1123F2E70AF0EA
S31508001CB02FF807230190EDE70AF020F80223019098
S31508001CC0E8E70023E6E700BF0080005038B5104B70
S31508001CD00546D3F860310C4603F00303022B0BD0FC
S31508001CE0032B0DD0012B0FD10AF096F80A2305B164
S31508001CF0286004B1236038BD0AF052F80923F6E7D4
S31508001D000AF08DF80C23F2E701230020EFE700BF65
S31508001D100080005073B50D460021114B0191D3F890
S31508001D208041064604F00304022C13D0032C0CD081
S31508001D30012C13D101A8FFF70DFF10240EB1019B4A
S31508001D40336005B12C6002B070BD09F0E1FF0724CD
S31508001D500190F3E709F0D2FF0190EFE70C46EDE7B3
S31508001D600080005038B5104B0546D3F840320C4673
S31508001D7003F00303022B0BD0032B0DD0012B0FD13D
S31508001D800AF04AF80A2305B1286004B1236038BD71
S31508001D900AF006F80923F6E70AF041F80C23F2E7F9
S31508001DA001230020EFE700BF0080005038B5144B30
S31508001DB00546D3F800020C4600F0070004281BD895
S31508001DC0DFE800F003090D111500012305B12860AD
S31508001DD004B1236038BD0AF01FF80A23F6E709F0B4
S31508001DE0DFFF0923F2E70AF01AF80C23EEE709F0F9
S31508001DF06FFF0F23800AE9E700231846E6E700BFCE
S31508001E000080005038B5144B0546D3F808020C4636
S31508001E1000F0070004281BD8DFE800F003090D11BD
S31508001E201500012305B1286004B1236038BD09F007
S31508001E30F3FF0A23F6E709F0B3FF0923F2E709F0EF
S31508001E40EEFF0C23EEE709F043FF0F23800AE9E7CC
S31508001E5000231846E6E700BF00800050B0F5207F53
S31508001E601FD009D8B0F5007F15D003D868B1B0F5F2
S31508001E70C07F0AD000200CE0B0F5607FFAD10B4B8A
S31508001E80D3F88000C0F3011003E0084B186FC0F3C5
S31508001E90033001307047054BD3F89000C0F3046057
S31508001EA0F7E7024B186FC0F38020F2E70080005076
S31508001EB002464FF48030104B10B598660020FFF7A5
S31508001EC0CDFF504341F671320C4BDC69DA635A6830
S31508001ED004F4803422F4401259B90949884294BF5F
S31508001EE000200120000502435A600CB10022DA6383
S31508001EF010BD0449F2E700BF0090005000000350EF
S31508001F00005A6202002D3101430905D0012B0CD07D
S31508001F10022B084B18BF002300F01F0039B103F548
S31508001F208053012282401A607047034BF4E703F599
S31508001F300053F6E768800050648000501FB5002102
S31508001F40B0F5807F0446CDE9001100F0D2803AD87A
S31508001F505E2833D85E2833D8DFE800F045323232BF
S31508001F603232323232323232323232323232323243
S31508001F7032323232323232323232323245AC45AC19
S31508001F80BCBCBCBCBCACC64E6BDC4EACACAC3232DA
S31508001F90323232323232ACACAC7EE6AC323232322B
S31508001FA0323232323232323232BC454545E14E4E59
S31508001FB0EB8D63C132323232329E4500802870D0B2
S31508001FC0009804B010BDB0F5D06F00F0A38035D8E6
S31508001FD0B0F5607F79D01AD8B0F5007F65D005D8FE
S31508001FE0B0F5C07FECD109F073FE5CE0B0F5207F58
S31508001FF060D0B0F5407FE3D109F06AFE02464FF49F
S315080020002070FFF72BFFB2FBF0F252085BE0B0F549
S31508002010B06F69D00AD8B0F5806F5BD0B0F5A06F05
S31508002020CED100216846FFF71BFDC9E7B0F5C06FA2
S31508002030C6D100216846FFF7C1FDC1E7B0F5106FAC
S315080020406DD00ED8B0F5086F78D0B9D8B0F5E06F76
S315080020506AD0B0F5F06FB3D100216846FFF736FEB7
S31508002060AEE7B0F5406F3AD013D8B0F5206F60D020
S31508002070B0F5286FA4D10021324B0391D3F8703202
S3150800208003F00303012B02D103A8FFF797FD039B77
S3150800209039E0B0F5486F93D100216846FFF7E4FDB3
S315080020A08EE709F0FBFD00908AE709F0F7FD024686
S315080020B0204604E009F00CFE02464FF42070FFF7B4
S315080020C0CDFEB2FBF0F200927AE701A8FFF7FAFC20
S315080020D0019AEDE700216846FFF73CFD70E700210D
S315080020E06846FFF78BFC6BE700216846FFF712FE90
S315080020F066E74FF0E02302911B695B0705D509F0F7
S31508002100E7FD0290029B00935AE703A902A8FFF78E
S3150800211055FDF7E700216846FFF748FE50E700211E
S315080021206846FFF76FFE4BE700216846FFF71AFE81
S3150800213046E700216846FFF765FD41E76846FFF771
S31508002140E5FC3DE70080005008B58020FFF7F6FE65
S31508002150034B98429EBF4FF48032024B1A6708BD64
S31508002160005A620200A000501FB503460020B3F5CE
S31508002170807F019000F0C58065D85D2B56D84C2B22
S3150800218007D82D2B48D8232B2CD8019805B05DF8F5
S3150800219004FB4D3B102BF8D801A252F823F000BFE0
S315080021A0F92200088B2100088B2100088B210008E2
S315080021B0A72200088B2100088B210008532300085A
S315080021C0C52200086B220008492300088B21000855
S315080021D08B2100088B2100088B2100088B21000821
S315080021E05D230008243B092BCFD801A252F823F01F
S315080021F0F9220008F9220008F9220008F922000845
S31508002200F92200088B210008EF2200088B2100081C
S31508002210872200082F2300083D2B00F083803E2BE1
S31508002220B3D1002001A9FFF79DFDAEE7802BACD105
S31508002230504B1B6F03F00703013B032BA5D8DFE8C0
S3150800224003F0544D5052B3F5F06F6BD020D8B3F568
S31508002250B06F4CD00ED8B3F5607F71D095D3B3F577
S31508002260806F49D0B3F5A06F8FD1002001A9FFF781
S31508002270F7FB8AE7B3F5D06F59D0B3F5E06FD0D046
S31508002280B3F5C06F81D1002001A9FFF797FC7CE761
S31508002290B3F5206F5DD00BD8B3F5086F4CD0B3F506
S315080022A0106F7FF472AF002001A9FFF7ABFD6CE752
S315080022B0B3F5406F48D0B3F5486F4FD0B3F5286FE4
S315080022C07FF463AF2B4BD3F8703203F00303012B73
S315080022D049D0022B0CBF1523002300E005230193E8
S315080022E053E70323FBE70823F9E70223F7E7002070
S315080022F001A9FFF70FFD48E7002001A9FFF72AFC0F
S3150800230043E74FF0E02302901B695B0705D509F008
S31508002310DFFC0D230393039BE1E703A902A8FFF75C
S315080023204DFCF8E7002001A9FFF7D0FC2DE70020B7
S3150800233001A9FFF73BFD28E701A9FFF7E7FB24E71B
S3150800234001A9FFF7BFFB20E7002001A9FFF756FB0D
S315080023501BE7002001A9FFF755FC16E7002001A995
S31508002360FFF782FC11E7002103A8FFF727FC1123DA
S31508002370B5E700BF008000504FF48012034B5A6641
S315080023804FF48032024B9A62704700BF00900050AB
S315080023900050005A38B504468020FFF7E5FE0328AA
S315080023A000F083804FF48012524B4FF0A0615A66BA
S315080023B045F60E02504BC3F88020504A91624FF4FE
S315080023C0803102F5805291629A6DD203FCD4996DE0
S315080023D011F08041FBD1D4E90002120542EA0062FD
S315080023E0E07B0243207B42EA0042607B42EA0032FD
S315080023F0A07B42EA80121A619869D4E9045212064F
S3150800240042EA856200F000400243A07EE57E024370
S31508002410207E42EA0042607E42EA00229A611A6AF7
S31508002420E06922F00F0242EA8502354D00283DD1C7
S315080024301A6294F82420996A94F82000D200294058
S3150800244042EA40120A4394F8211042EA011242F481
S3150800245080329A622B49284A936D31EA0303FBD1ED
S315080024604FF08071254881621369A56823F47003CB
S3150800247043EA055313614FF00043836194F8223011
S315080024800BB9214B996294F823303BB94FF480324B
S315080024901D4B9A62184A936D5B00FCD494F825305C
S315080024A01BB1154B194AC3F8802038BD024342F0C8
S315080024B0080202281A6208D119614FF40852996174
S315080024C013484FF47F4108F0D5FB0B4994F82230A6
S315080024D08A6A94F820001B062A4043EA40131343ED
S315080024E094F8242043EAC20394F8232043EA0243DB
S315080024F08B62D3E7009000500040005A0050005A03
S31508002500C7FFFEFE030001000060005AF1A7FFFFA7
S315080025103440005A014B93F900007047802500208B
S31508002520014B1880704700BF70250020B0F5207F4A
S3150800253010B50C465DD008D8B0F5007F4ED003D84C
S31508002540C0B1B0F5C07F15D010BDB0F5607FFBD126
S315080025502C4B4C1ED3F8FC202B4912F0807F4FEAF7
S31508002560041427D1D1F8803023F030032343C1F86F
S315080025708030E9E708F08DFB08F099FB4FF48031CD
S31508002580224B214A1967136F013C23F4704343EA2F
S315080025900433136709F09CFB0446FFF723FAC0F1DE
S315080025A00201204608F07DFB00F04AF8BDE810401D
S315080025B0FFF7CABDD3F8FC2022F08072C3F8FC20CE
S315080025C0D1F8802022F030022243C1F88020D3F8C7
S315080025D0FC2042F08072C3F8FC20B5E70A4A4C1E7C
S315080025E0D2F8903023F0F85343EA0463C2F89030E7
S315080025F0AAE7054A4C1E136F23F4806343EA842333
S315080026001367A1E700ED00E000800050009000503D
S3150800261008B50121022000F04DF84FF42070FFF7AD
S315080026201DFC054B187008F034FB08F040FB4FF40E
S315080026308032024B1A6708BDC4240020009000505F
S3150800264008B54FF4C070FFF779FCBDE808400449A7
S31508002650884294BF012102214FF42070FFF766BF1C
S3150800266080F0FA0238B5044609F032FB0546FFF752
S31508002670B9F9C0F10201284608F013FB0121002030
S3150800268000F058F82CB1FFF7DBFFBDE83840FFF73C
S315080026905BBD034B4FF420701978FFF747FFF4E74B
S315080026A0C4240020024A536B0342FCD1704700BF82
S315080026B000400950F8B504461C4BD3F88420D106CF
S315080026C0FBD4D3F88430C3F381139C422CD009F091
S315080026D0E5FA012C064602D1214608F0E2FA09F08D
S315080026E0AFFB4FF00072124B07465A66204608F0B9
S315080026F0E3FA4FF480630D4D621E93402B676B6EB1
S315080027009A0103D4D5F884309B060AD5384609F0D1
S3150800271092FB022C08D13046BDE8F840002108F0AB
S31508002720C0BAD5F88430EAE7F8BD00BF00400050CB
S315080027300060005010B50C4608B909F0AFFA074B0F
S3150800274021461B783BB1064B984204D80120BDE8C8
S315080027501040FFF7AFBF0220F9E700BFC5240020ED
S31508002760005A62024FF0004238B5244B244C5A6690
S315080027704AF6CD33656C014605F00105236428BB8E
S315080027800120FFF78FFF6368DB0715D51D4B5860DF
S3150800279008461D4B226BD2070CD4984208D1072451
S315080027A015B1174B194A1A6408F0C3FE204638BDFE
S315080027B00130EFE79842F2D00024F1E70132236BAB
S315080027C013F0080305D08A42F8D1E8E700220E493B
S315080027D0F5E78A42E3D020210A4A91620121A2F54F
S315080027E0805251600649084A886A800603D4934293
S315080027F0D5D00133F8E79342DDE700BF00900050DB
S31508002800004009500060095040420F003254FFFF53
S315080028104FF0004238B5164B01465A664AF6CD3394
S31508002820144C154A656C236443780B205B0043F00F
S315080028300103D363FFF736FF63688A7823F4F873D6
S3150800284043EA02136360CA784B7943EA0223A3601A
S315080028500A798B7943EA022323610878FFF782FF16
S31508002860EB0744BF054B236408F063FE012038BD1F
S315080028700090005000400950004000503254FFFFBD
S315080028804FF00042124B70B55D6E03F580535A66E1
S315080028904AF6CD3304460F4980204E6C0B64FFF789
S315080028A001FF0B6A23F00F030F2C94BF234343F059
S315080028B00F030B62F30744BF074B0B64002DA2BF3F
S315080028C04FF00042054B5A6608F033FE70BD00BF54
S315080028D000800050004009503254FFFF00A000500D
S315080028E04FF00042104B70B55D6E03F580535A6683
S315080028F04AF6CD3304460D4980204E6C0B64FFF72B
S31508002900D1FE0B6A23F4F85343EA04230B62F30758
S3150800291044BF074B0B64002DA2BF4FF00042054B86
S315080029205A6608F006FE70BD008000500040095047
S315080029303254FFFF00A00050F0B5114A114C124E58
S3150800294000F00105E3695F0713D40DB9334213D1CB
S3150800295003EA00078F4207D10B4A1A40002A0CBF28
S3150800296000206FF00100F0BD013AEBD16FF00200D4
S31508002970F9E74FF0FF30F6E76FF00100F3E700BF25
S315080029808096980000000350020001004FF4803240
S3150800299038B50E4B0E4C9A66E56941F6713315400B
S315080029A00122E3630B4B0021DA60022360612120D8
S315080029B02361FFF7C1FF10B92120FFF7BDFF0122F0
S315080029C0054BDA600DB10023E36338BD0090005073
S315080029D00000035000100350002003502DE9F04F6B
S315080029E001274FF4302530268400DFF8C0C004F1F3
S315080029F0A04404F58824CCF80470656000244FF4DC
S31508002A008035DFF8ACE0DFF8AC9006FB00E6F4654D
S31508002A1034663467234CDFF8A0A0A56641F6713505
S31508002A2004F51C34D4F81C80E563E56807FA00F061
S31508002A303D43E5604BB9E26818F4803F22F0010295
S31508002A40E26029D10020BDE8F08F01F5005505EABE
S31508002A5009056D1A9D4228BF1D466161D4F81CB050
S31508002A60AF081BF0040F19D1013F3F0147F060572B
S31508002A707766B266C6F86CA0CCF82400DEF8347027
S31508002A803842FBD0084F294478630427CCF828003D
S31508002A902A4427615B1BCDE7E363D3E74FF0FF309A
S31508002AA0D1E700BF009000500020045000100450E9
S31508002AB00000045000E0FFFF180003504FF4803276
S31508002AC0064B5A6603F5E6239B69C3F385128270A3
S31508002AD003F03F021B0B42700370704700900050D2
S31508002AE0014B986CD96C70470080E00F034BD3F804
S31508002AF02424D3F820041040704700BF00C00350B8
S31508002B0070B5044608F048FD064630B90FCC044DAA
S31508002B100FC594E8030085E80300304670BD00BF82
S31508002B20DC13002047F6FF739A42F0B56FD00229EE
S31508002B306FD8394B5B5C012B6BD8384DDF0005EB42
S31508002B40C30415F83330A178012B13D10025E0789A
S31508002B50401AA84202D80844C0B2F0BD431B6668B2
S31508002B60A0EB530336F913609642D4BF1D4603F112
S31508002B70FF30EEE760680028EFD0B0F900409442D5
S31508002B8004DBB0F902409442B8BF144683883D443A
S31508002B90FF2B19BFC8224FF0280CB0F90620B0F950
S31508002BA008C0A2EB04030CBF0126002693FBFCF326
S31508002BB033446E781BB29E4201DD002B01DA731E88
S31508002BC01BB24FF47A7C01339BB2071D5D1E2DB2F2
S31508002BD04FEAC50E00EBC505EA88AD689E4214FBB0
S31508002BE0025222EAE27202F15C02B2FBFCF204DD56
S31508002BF037F8335001339542E8D200EB0E03988834
S31508002C00904228BF1046884238BF0846A4E7FF20EE
S31508002C10A3E70020A1E700BFECC00008DC130020F2
S31508002C2008B50448FFF76CFFBDE80840012008F026
S31508002C30B7BC00BFF0C000080048704772250020E6
S31508002C401FB5044660B35AB3402B29D1930727D141
S31508002C50042925D8DFE801F0031A24221E004FF4C0
S31508002C60807310490B4323600023C4E90133E361F1
S31508002C700123019202930C4B204601A9039308F005
S31508002C802AF8204609F0A4F804B010BD4FF40073E2
S31508002C900449E7E705494FF48063E3E70149FAE7A2
S31508002CA02120F1E7010008FF40000020000008FF8E
S31508002CB02DE9F041012905460E4690461F4692B079
S31508002CC04AD8046824F04003802B02D0B4F5807FEC
S31508002CD045D11C2200210BA808F0D1FF234A244B1A
S31508002CE00121012E08BF13460A932B1D0193E40800
S31508002CF0204B44F0005402910AA80394CDF81080A2
S31508002D00059106930797089101A9099307F0D9FF3A
S31508002D1004A90AA807F0D5FF07A90AA807F0DBFF48
S31508002D2029680AA8C90809F0C8F810210AA809F0EC
S31508002D30C4F809F03BF8A8B90AA809F0C7F84FF093
S31508002D4098435A6CD202FCD55C6D09F039F804F444
S31508002D50702012B0BDE8F0816FF02000F9E76FF03F
S31508002D607100F6E74FF0FF30F3E700BF00010004FB
S31508002D7000010104100000202DE9F04F074689469E
S31508002D809846164699B082B115683B6823F040020A
S31508002D90802A03D0B3F5807F40F0A68000244C45F6
S31508002DA005D306B1356000207BE01546EDE75DB139
S31508002DB0239B229A1B5D525D01355340249A05F0E8
S31508002DC00F0513550134EAE7A9EB040ABAF10F0F08
S31508002DD00BD8239B03EB040A249B1C44239B03EB7D
S31508002DE0090BDA4560D14C46D9E71C22294611A8B9
S31508002DF008F045FF3E4B3A6810933B1D01930123AB
S31508002E00D20842F00052029303923A4ACDF8108053
S31508002E1005930692CDF81C8008930992239A249963
S31508002E2022442AF00F0A0A9221444AF000520B93D0
S31508002E3010A80C920D9101A90E930F9207F041FF6D
S31508002E4004A910A807F03DFF0AA910A807F039FF42
S31508002E500DA910A807F03FFF07A910A807F03BFF28
S31508002E60396810A8C90809F028F8514610A809F0C9
S31508002E7024F808F09BFF90B910A809F027F84FF03E
S31508002E8098435A6CD202FCD5586D544400F4702B02
S31508002E9008F096FFBBF1000F9BD0584601E04FF0B3
S31508002EA0FF3019B0BDE8F08F55B1229A1AF8013BE8
S31508002EB0525D0135534004F8013B05F00F0590E7D4
S31508002EC0424601213846229BFFF7F2FE0028E8D148
S31508002ED008F1100212F8013D0133DBB21370002B22
S31508002EE0E3D19045F6D1E0E76FF01F00D9E700BFC0
S31508002EF0030300041000002007B5094B18689A88D8
S31508002F009B7900906846ADF804208DF80630FFF7E7
S31508002F107FFC0C20FFF7B4FC002003B05DF804FB2F
S31508002F2004D0000830B58BB06C46174D0FCD0FC4D2
S31508002F300FCD0FC495E8030084E80300134BD3F8BC
S31508002F404C2112031CD5A3F5FE431C884FF6FF73CC
S31508002F509C4208BF64248DF81940FFF7DBFA204429
S31508002F6080F308008DF818000948FDF763FA6846EB
S31508002F70FFF710FA3220FFF7D3FA00200BB030BD66
S31508002F80D3F85041E4B2E6E70CD000080080E00F21
S31508002F90C01753020028ACBF00F16040064B4FEA49
S31508002FA00111C9B2ABBF00F5614000F00F0080F80F
S31508002FB000131954704700BF14ED00E000280CDB1D
S31508002FC001220649430900F01F008240203341F8D8
S31508002FD02320BFF34F8FBFF36F8F704700E100E0E8
S31508002FE0002807DB01234109034A00F01F0083403C
S31508002FF042F82130704700BF00E100E0002808DBF6
S3150800300001224309034900F01F008240603341F85A
S315080030102320704700E100E0014807F00CBF00BF1D
S31508003020F4130020014807F0DBBE00BFF4130020AC
S31508003030014800F053B800BFF41300200A460146C1
S31508003040014800F07BB800BFF4130020014800F0E7
S31508003050B5B800BFF41300201FB50A79064B0292D3
S315080030600A6808310192022200920CCB07F0C1FFD0
S3150800307005B05DF804FB00BF40D0000830B50B79F9
S3150800308085B00333029301F14403019302230C46EE
S315080030900546114A009314310CCA07F0AAFF238A81
S315080030A004F12C010293E36828460193237A0093DE
S315080030B094E80C0007F09DFF0546237AA4F845001E
S315080030C02279216884F8443004F1470008F0A0FD0D
S315080030D0284605B030BD00BF38D0000838B50546CB
S315080030E0124B134C94E8030083E80300194628465C
S315080030F0FFF7B2FFD4E9020110220E4B83E8030062
S31508003100194628461A72FFF7B9FFD4E904010222C4
S31508003110094B18341A7283E80300DC6019462846FE
S315080031201A82BDE8384007F064BE00BFF8140020D4
S3150800313054D00008A014002074140020F8B50446E2
S315080031400D4B0E4D0F46D5E9070183E803001946D6
S3150800315020461646FFF780FFD5E909010222084BEB
S315080031601A7283E80300DF60194620461E82BDE80E
S31508003170F840FFF783BF00BF5414002054D000085E
S31508003180FC13002010B50C4630B907F09CFB034B26
S31508003190186023600423A380002010BD4817002070
S315080031A010B50C4630B907F08CFB034B186023604A
S315080031B00423A380002010BD4C1700202DE9F743F7
S315080031C006466D464FF00809404C414B414F94E87E
S315080031D0030083E8030019463046FFF73DFFD4E9AC
S315080031E0020187E8030028463B4987F8089007F05C
S315080031F0FBFD95E8030007F10C0383E80300394655
S315080032003046FFF73BFFD4E904010C234FF00208D0
S31508003210324F87E80300284631493B7207F0E4FD40
S3150800322095E8030007F10C0383E8030039463046A6
S31508003230FFF724FFD4E906012A4B2B4A83E803004B
S315080032401946304683F80880DA60A3F81090FFF72D
S3150800325015FFD4E90801254B254A264FDA600122D5
S3150800326083E80300194630461A8283F80880FFF778
S3150800327005FFD4E90A0187E8030028461E4987F8AE
S31508003280088007F0B1FD95E8030007F10C0383E811
S3150800329003003946194F3046FFF7F0FED4E90C0112
S315080032A087E803002846164987F8088007F09CFD3A
S315080032B095E8030007F10C0383E803003946304616
S315080032C003B0BDE8F043FFF7D9BE00BF08D1000838
S315080032D028170020D016002077AE000878160020A0
S315080032E05FAE000820160020FED00008C815002092
S315080032F0FDD0000870150020A1310008181500201F
S31508003300853100087FB500230130CDE9043380B24A
S31508003310054BCDE90101694604200093039207F0A5
S3150800332089FE07B05DF804FBC62400201B22014B6A
S315080033301A807047A4240020064B10B401241A7181
S3150800334000221C7058705980042011465DF8044B01
S31508003350FFF7D8BFC62400200322044B1A700022A8
S31508003360A3F8010011460220FFF7CCBFC6240020AF
S3150800337082B00DF1080C0CE90C00064B05225870BA
S3150800338003201A7059809DF80420009902B0FFF7AF
S31508003390B9BF00BFC62400200722054B1A700022B9
S315080033A0A3F80100A3F8031004201146FFF7AABFEB
S315080033B0C62400200A460B21024B1970014600203C
S315080033C0FFF7A0BFC62400201322034B1A70002261
S315080033D011461046FFF796BFC624002010B40924EC
S315080033E0044B1C70941C5C7058805DF8044B0320D9
S315080033F0FFF788BFC624002030B40C4611251146B5
S315080034001A46054B1D70151D5D7058809C80052059
S3150800341030BCFFF777BF00BFC624002038B50023AD
S31508003420074D013989B204466B8000F03BF8024625
S3150800343028B169882078BDE83840FFF77DBF38BDD8
S31508003440A4240020024610B5F8B1114B19688888E3
S3150800345090421AD398880024904281BF01200968B7
S31508003460988099609868998820B904B198604FF651
S31508003470FF7203E08A4203D10CB198609A8010BDAE
S3150800348001310124006889B2EEE70020F7E700BFA2
S31508003490501700204FF6FF72014B18609A8070474C
S315080034A0501700202DE9F04704780546122C0E46E1
S315080034B088B017D8012C18D9A31E102B15D8DFE809
S315080034C013F0160014002700140047001400D1005A
S315080034D014008000140014001400140014000901DC
S315080034E01400A400522C00F0AC8006242CE002291B
S315080034F040F04681B0F80140B4F5007F28BF4FF48C
S3150800350000742046FFF728FF9E4B1C8000241BE012
S31508003510042919D1B0F8017006ADBEB22946304665
S3150800352007F0E5FC044618B1964B5F800A240BE0C9
S315080035309DF81C303146022B18BF022095E80C0076
S3150800354008BF0120FFF714FF204608B0BDE8F08742
S3150800355002278E1F00F10508C31DB6B20196009317
S315080035608DF81470CDF81080B0F803104246059B0C
S31508003570B0F8010007F0C8FC4FF6FF76B0420446E3
S3150800358006D1AA786B7843EA02237E4A5380CDE7B0
S315080035900023CDE90033CDF818808DF81C7008ABF0
S315080035A00130314613E90C0080B207F0ADFC014644
S315080035B0B0421CBF00F1FF3189B22046FFF7ECFE8E
S315080035C0A4E7022940F0DC80B0F8010007F0EEFC21
S315080035D06C4E044628B16B78AA7843EA02237380B6
S315080035E0B2E733880146013BADF81030B5F8010063
S315080035F004AB06AA07F0ECFC04460028EBD1BDF89C
S3150800360010100698FFF7D6FE9EE70821B0F80100CD
S3150800361007F0CCFC044630B1AA786B7843EA02235B
S31508003620584A538090E7B31E01469BB2B5F801008D
S31508003630EA1C07F0A2FC04460028EDD1FFF7C4FEF9
S3150800364064E70421B0F8010007F0B0FC0146002841
S315080036507FF45CAFB31EB5F801009BB2EA1C07F015
S315080036608CFC53E70E1FB6B2022E02D0102E40F085
S3150800367087800024CDE900446B1D06938DF81C60F5
S3150800368008AB13E90C00B5F80310B5F8010007F00C
S315080036903BFC4FF6FF73984206463A4F05D16B78C6
S315080036A0AA7843EA02237B8040E73B882146043B0D
S315080036B0ADF80E3004AA0DF10E0307F089FC044696
S315080036C008B17E8040E73046BDF80E200499FFF722
S315080036D085FE39E70E1FB6B2022E01D0102E4FD145
S315080036E00024CDE9004405F1050AF6B28DF8146008
S315080036F0CDF810A05246059BB5F80310B5F80100A1
S3150800370007F002FC4FF6FF7948450746DFF8748054
S3150800371006D16B78AA7843EA0223A8F8023005E7AF
S31508003720CDE90044CDF818A006AC8DF81C60013030
S3150800373094E80C00494680B207F0E6FB0546B8F85F
S3150800374000304845A3F1060318BF00F1FF352246AD
S31508003750ADF80E304FF0000138460DF10E0318BFD4
S31508003760ADB207F035FC044610B1A8F80270EBE6D6
S3150800377029463846BDF80E30069AFFF73DFEE3E6C1
S315080037800424E1E6A42400200022014B1A607047B5
S315080037905C17002003291FB503460A461CD9018871
S315080037A0081D824218D304D85888042805D006284C
S315080037B007D0012005B05DF804FB181DFFF72EFEA3
S315080037C0F7E70023CDE90233044B69460093022349
S315080037D0019307F02FFCECE70020EBE7812500209A
S315080037E037B500220DF10700114600F05FF89DF885
S315080037F007300C4C0BB10023236021680A4DC1F534
S31508003800017292B229440DF1070000F04FF82368BF
S31508003810C11828462160FFF7BDFF08B100232360C1
S3150800382003B030BD5C1700206017002010B50446B1
S315080038304FF4807300210E4A0E4807F087FC4FF4B8
S31508003840807300210C4A0D4807F080FC2046FCF7DF
S315080038508FFC07F043FC00F007FC07F029FB830701
S3150800386005D500F0CBFABDE8104000F07BB910BDD5
S31508003870941A00207C19002094190020641900204D
S3150800388008B513460A460146024807F01DFDC0B2B0
S3150800389008BD00BF7C19002008B5034807F05FFC87
S315080038A0003818BF012008BD7C190020F8B50E465F
S315080038B01746044608F0C4FA214605463B463246F2
S315080038C0044807F001FD0446284608F0B4FA2046E5
S315080038D0F8BD00BF6419002008B5034807F03FFC8F
S315080038E0003818BF012008BD64190020F8B50E4637
S315080038F01746044608F0A4FA214605463B463246D2
S31508003900044807F0ACFC0446284608F094FA20461A
S31508003910F8BD00BF7C19002010B50C4601460448C6
S3150800392007F0FCFCA04234BF0020012010BD00BFF8
S3150800393064190020F8B50F46114606461546FFF7E6
S31508003940EBFF044628B12B463A463146024807F0B3
S3150800395086FC2046F8BD00BF6419002010B5034C4C
S31508003960A07900F0C5FC0023236010BD941B00203D
S3150800397010B5044C204600F051FC002344F8063CE0
S3150800398010BD00BF9A1B002010B5074CB4F80710ED
S31508003990A07900F075FCB4F80D10B4F8090000F031
S315080039A083FC0023236010BD941B0020014B9980E3
S315080039B018607047941B00200022014B1A6070475C
S315080039C0941B0020034A13681BB19288824200D1D7
S315080039D018477047941B0020014B1870184670470B
S315080039E0CD240020162808BF1320022110B5084C44
S315080039F060702046217000F06FFC00F0BBFD054B9F
S31508003A00054A05301A60627898809A7110BD00BF21
S31508003A10CD240020941B00205D390008037810B5DA
S31508003A200C2B04460AD80C2B0AD8DFE803F03B27F0
S31508003A305209090909095B0909091500142B62D0FD
S31508003A40204600F095F8002842D1072223783A4804
S31508003A500221027043700DE00C2337484FF0FF3205
S31508003A60037001238270437002220371002306212A
S31508003A70C2704371BDE8104000F02EBCC17983794D
S31508003A802E4A43EA0123938013462D4943F8061B21
S31508003A90D0F80110C2F80610B0F805209A80C2794D
S31508003AA09A7115E0C27A837A244943EA02238B8005
S31508003AB00B46244A43F8062BD0F80120C1F8062005
S31508003AC0D0F805205A60B0F809201A81C27A9A728D
S31508003AD010BD00F04FFD194B1B4A05301A6098803F
S31508003AE06278DDE700F05EF9D4F80130092163F069
S31508003AF0FF03034010480246C0F80130002302F8CD
S31508003B00011B5360B6E7B0F80310B0F8010000F0E7
S31508003B10D9FB1523084800216FF004046FF027022B
S31508003B20037007238170817144700921C270037183
S31508003B304471C27103729DE7CD240020941B0020B6
S31508003B4071390008893900085D39000808B5044B41
S31508003B50987900F0B1FBBDE80840FFF72DBF00BF1C
S31508003B60941B00200122014B1A707047D9240020AB
S31508003B70144B70B51E7805462EB10378162B04D063
S31508003B80182B13D00026304670BD8378447817204A
S31508003B901C4004F00304022C18BF0124FFF71CFF85
S31508003BA002214470847007F096FAECE7B0F8031027
S31508003BB00548FFF7FBFED5F80120044BC3F806209D
S31508003BC0E1E700BFD92400204D3B0008941B0020E4
S31508003BD013B50D4B01281B880C4CADF80030ADF819
S31508003BE0043002BF02238DF800300423694620689A
S31508003BF008BF8DF8043007F069FC206801A907F0B2
S31508003C007BFC02B010BD00BF68D10008C81B0020AD
S31508003C1010B51E4C1946236986B023B3A2F10800D5
S31508003C20084322D1032101AA206807F0E2FC636851
S31508003C3060615B7A022023769DF8043004F118014E
S31508003C40DA1F53425341627E63F30002039B627696
S31508003C50E361BDF806306383236998470122002192
S31508003C60206807F0CAFC06B010BD02F17F40084381
S31508003C7005D10021012006B0BDE81040184712F40E
S31508003C80A0411ABF00210320FF20F4E7C81B00202B
S31508003C900A46014602484FF40073006807F097BCCD
S31508003CA0C81B0020F0B50446154D164A6B68807A85
S31508003CB05B7A85B0D75C0E46FFF78AFF237A022B1C
S31508003CC00ED1002339461A46286807F04EFBC0B2C3
S31508003CD098B10021FF20334605B0BDE8F0401847EB
S31508003CE0002221680092039202918DF80C30394621
S31508003CF0286802AB07F03BFBE9E72E6105B0F0BD8B
S31508003D00C81B002040D100082DE9F04304461C4D8D
S31508003D101C4A6B6885B05B7A807A12F803900E4667
S31508003D20FFF756FF237A0027022B04BF0123002240
S31508003D304FF001088DF80430636818BF22686433B1
S31508003D400293637A494600928DF80C306A463B46E0
S31508003D5028688DF80D808DF80E7007F00AFB04466A
S31508003D60424639462868E4B207F047FC2CB1394682
S31508003D70FF20B04705B0BDE8F0832E61FAE700BF23
S31508003D80C81B002040D100080022034B03211A61FA
S31508003D901868012207F0E4BAC81B002000487047DB
S31508003DA0D01B0020014B188C704700BFC81B002091
S31508003DB07FB502238DF80630064B5A8B59690332B4
S31508003DC0ADF8042018686A4607F015FC009807B095
S31508003DD05DF804FBC81B0020002313B5064C606081
S31508003DE00093437AD0E90021206807F058FC00F0D8
S31508003DF00DF802B010BD00BFC81B0020024A138C84
S31508003E0043F4807313847047C81B002038B50D4CE3
S31508003E10238CDB050CD563680B4D1B7A2A789A42EE
S31508003E2006D0012B05D0022B07D063681B7A2B70AE
S31508003E3038BD206800F07CFEF7E7206800F07EFEBB
S31508003E40F3E700BFC81B0020DA24002010B50024C1
S31508003E50064B1C60064B1C7007F064F9B0FA80F339
S31508003E60044A5B091370044B1C7010BDEC1B002040
S31508003E70DD240020DC240020DB24002010B5074BBD
S31508003E801C782CB9064B1B7833B107F053F9044656
S31508003E9000F066F8204610BD8124F9E7DD240020ED
S31508003EA0DC24002038B50A460F4903460978C1B113
S31508003EB00E49087850B90E4C24783CB90D4C206848
S31508003EC01518B5F5806F02D98220087038BD1946D5
S31508003ED0094B184407F09CFE2560BDE8384000F001
S31508003EE00DB88120F2E700BFDC240020DD24002085
S31508003EF0DB240020EC1B0020F01B002038B5134BF8
S31508003F00134D1A782968022A0ED0032901D80020F1
S31508003F1038BD104A1068104A904203D084200F4BCF
S31508003F201870F5E702221A700A48FCF701FB0446E6
S31508003F302A680749074807F0D2F8002CE7D041F26B
S31508003F4007039C42E3D08520E9E700BFDC24002074
S31508003F50EC1B0020F01B0020EB17A603DD24002035
S31508003F600022014B1A707047DC2400201FB5124C42
S31508003F70637A20460133DBB2282B28BF25236372D8
S31508003F80FFF72AFF0023CDE90233E368627C019339
S31508003F900123617DD207094801F102018DF80C3031
S31508003FA048BF8DF80E30FFF773FE054901A8FFF7E5
S31508003FB079FE04B010BD00BFF01F002004200020C9
S31508003FC0C53F0008022810B51BD002D8012805D025
S31508003FD0FEE7032843D0FF2841D0F9E7214C637C4C
S31508003FE0990707D5FFF7D0FEFFF7C0FF637C6FF38D
S31508003FF041036374637CDA0730D4BDE81040FFF7E9
S31508004000B5BF4B78DB072AD54C68217801F00F033A
S31508004010032B11D0052B22D1C90904F1080007F09A
S3150800402088F9D8B1FFF7B0FEFFF7C2FE0146204671
S31508004030BDE8104000F0A4BAC90904F1080007F069
S3150800404078F958B1074C94F83D1004F13C00023158
S31508004050FFF71EFE637C43F00203637410BDFFF78F
S3150800406093FECAE7F01F002010B50A4C5A22002119
S31508004070204607F004FE42F21072C4F80220064AEF
S3150800408044F80A2C054A44F8062C42F2015224F850
S31508004090022C10BDFA1F0020D6BE898E5555550034
S315080040A038B50446FFF770FE002C3FD0204C257C1F
S315080040B0627CB5FA85F35B0963F300026274FFF765
S315080040C06DFE837905F00F05C3F3000345EA8315F2
S315080040D0237D23F04F031D43637D25750BB9062306
S315080040E063750368C4F816308288124B9A80FFF706
S315080040F055FE837994F83C20C3F300039B0143F0F3
S31508004100040322F04F02134384F83C3094F83D3000
S3150800411013B9062384F83D300368C4F83E30828814
S31508004120054B9A80BDE83840FFF720BF38BD00BF71
S31508004130F01F0020062000202E20002020290A46F5
S3150800414008B509D8054B06315975014603F11C0017
S3150800415007F05EFD002008BD1220FCE7F01F0020D6
S3150800416020290A4608B50AD8064B063183F83D10B9
S31508004170014603F1440007F04BFD002008BD12205C
S31508004180FCE700BFF01F00200A20D0B50B4CE38CDB
S31508004190584305F059FF0646A08C0F4605F054FF14
S315080041A00022074B05F0BAFF02460B463046394651
S315080041B006F0DEF806F0C4F92083D0BD54210020AD
S315080041C00000F43F1FB5134CA37E5A061FD423F0F4
S315080041D0070343F001032089A376FFF7F3FBA37ACD
S315080041E004F10C00234493F82A306375FFF7F4FDB5
S315080041F0D4E90032A3EB520103EB520302934FF4C6
S315080042008033019101A804490393FFF77DFD04B0AB
S3150800421010BD00BF542100205D430008002213464C
S3150800422030B58BB0D910415C03F007042141CC07A7
S3150800423042BF02F12801694401F8283C03F1010351
S3150800424048BF0132252BEDD100230C4CD910415C17
S3150800425003F007052941C9075FBFB3FBF2F102FB6B
S315080042601131283169444CBFD9B211F8281C0133E1
S31508004270252B04F8011FE9D10BB030BD7D210020A4
S3150800428010B540F2E244074A6043136800F58070AF
S3150800429004FB013303EB5003136053680344536074
S315080042A010BD00BF54210020024B9884D984FFF723
S315080042B06BBF00BF54210020014B1875704700BF23
S315080042C054210020C908814228BF0146014B19859F
S315080042D0704700BF54210020044B5A6D22B9586517
S315080042E0A3F8581001207047002070475421002079
S315080042F0034A937E43F04003937606F0EABE00BF76
S315080043005421002010B5144CA37E5B0623D4FFF776
S315080043103BFD40F2E241A28C236801FB023394F88C
S315080043204F102360A37A0B442521B3FBF1F001FB60
S3150800433010330A21A372238901332381636801FBA1
S3150800434002336360238B5A1E228323B9BDE81040CB
S315080043500820FFF7CDBF10BD542100200228F7B56D
S315080043600E460BD003D8012800F0F180FEE703289B
S3150800437000F0F380FF2800F0F080F7E74D784F68EB
S3150800438015F00105794C59D10025A37E784F13F015
S31508004390200F12D0616D6FF34513A376002900F044
S315080043A0BB803B7894F8582043F00303B81C3B7055
S315080043B07A7007F02DFC00236365FFF76DFAA37E7C
S315080043C0797860F34103C3F3C002A376C3F30013FD
S315080043D09B0043EAC2033A7843EA001322F01C0220
S315080043E003F01C0302311343C9B261483B70FFF75F
S315080043F04FFCA37E7668D90709D56FF30003A37629
S3150800440000236360FFF7D4FC2060FFF7BDFE002D94
S3150800441000F0AA80337803F00303022B06D0032B9F
S3150800442000F08E80012B40F09F8000252846727888
S31508004430B11C03B0BDE8F040FFF77CBA3B78A27E1A
S31508004440C3F3001363F382023B78A276D1B2C3F3B7
S31508004450C000C2F30012904210D0A17EC3F38003BD
S31508004460C1F3C00293428FD082F00102D20042F01B
S31508004470200221F028010A43A27685E703F0030209
S31508004480022A1DD0032A03D0012AE6D1002018E00B
S31508004490C1F3C002C3F38003934208D082F001023D
S315080044A0D20042F0200221F028010A43A276A37E18
S315080044B0C3F3001282F0010262F30413A37664E7E1
S315080044C02846797891B9A17EC3F38003C1F3C00267
S315080044D0934201D10025EAE782F00102D20042F0B8
S315080044E0200221F028010A43A276F3E7FFF714FA1F
S315080044F0A27E3978C2F3C003C1F38001994208D07D
S3150800450083F00103DB0043F0200322F02802134363
S31508004510A3760028CBD137E794F82820B91C0DF1EB
S315080045200700FFF7ADF948B19DF807300133DBB254
S315080045303A78787063F301023A703EE70123F7E7A9
S315080045407178B01C03B0BDE8F040FFF767BA074BB7
S315080045509B7E9A0708D45B0706D4FFF7D3FE03B001
S31508004560BDE8F040FFF72EBE03B0F0BD5421002091
S3150800457054200020014B1889704700BF54210020A1
S31508004580F8B5224D04460E465C220021284607F05F
S3150800459076FB2023AB7605232B83627E237E0127B9
S315080045A043EA0223AB84627F237F04F11E0043EAB9
S315080045B00223EB8494F82330C3F3040385F84F30C1
S315080045C094F82330C3F3421385F850301B232B8508
S315080045D0FFF724FED4F80E30E27CEB60A37C2E6055
S315080045E043EA0223227D2F7543EA02432B6195F89D
S315080045F04F30607DAB72E18A3944FFF741FEFFF721
S31508004600E1FD204606F063FD3846F8BD542100203A
S31508004610F0B50D4604468BB018B9002420460BB0F9
S31508004620F0BD1A4E3768002FF7D12022394602A866
S3150800463007F025FB236801A80193154B1B88ADF8E5
S315080046401430144B1B68079300F076F804460028CC
S31508004650E3D0306000F096F82046394606F067FF4A
S31508004660204606F0ABFE38B10020306000F08AF82C
S31508004670204606F09EFED0E7204600F00FFA0028F6
S31508004680F2D1002DCAD02046A847C7E7B02100209E
S3150800469078D100087CD10008024B1868003818BF8A
S315080046A001207047B0210020431E033306D8044B6F
S315080046B0984228BF1846642838BF6420704700BF50
S315080046C040420F0038B5194B05461B680C4603B126
S315080046D0984744B1236833B11B68013303D0E368B4
S315080046E00BB1A3684BB907F0B7F900204FF4B672BF
S315080046F0412100F007FA212038BD204602F0AAF928
S3150800470000230B4A85F83C31C5E93743C2E9003333
S3150800471063694BB1074A422110684FF4C572C31A40
S315080047205842584100F0EEF90020E5E7D42300206E
S315080047300025002008240020F8B5044607F080FB71
S31508004740002607460E4B1B6893B19E68AEB196F8D5
S315080047502420D20711D435460FCC0FC50FCC0FC570
S3150800476023682B6096F8243043F0010386F824303A
S31508004770384607F060FB3046F8BD1B68E4E700BF23
S315080047803025002010B5044618B9054B054A1360B4
S3150800479010BD00F0B1FAD4F8E830002BF6D1F4E7F2
S315080047A09BB300082C25002008B502460868FFF7C9
S315080047B07BFF08604868FFF777FF48608868FFF75F
S315080047C073FF8860C868FFF76FFF0B69C860581CDD
S315080047D003D00B48834228BF03460B614B69581C1C
S315080047E003D00748834228BF034688694B61FFF711
S315080047F05BFFBDE808408861104601F091B900BF2B
S3150800480040420F00D0F8E0302DE9F04105460C464D
S3150800481013B1C38D8B424CD0D5F8DC30002B4BD06E
S315080048209E68002E48D0D868002845D0013800B2C6
S3150800483000281ADB002106E0128A591CA24217D268
S3150800484009B2884211DB0B1803EBD3735B1003EB39
S31508004850C30206EB8202B2F80EC003F1FF3EA4457E
S31508004860EAD90FFA8EF08842EDDA2120BDE8F08108
S315080048704FF6FF7299B29142F7D09BB203EBC3038E
S3150800488006EB83062846B6F9122095F83011D5F8B6
S31508004890F080FEF747F90746B8F1000F04D0002369
S315080048A0324628461946C047EC85C5F8E06085F8C3
S315080048B039710020BDE8F0810E20BDE8F08100BF07
S315080048C02DE9F04782B004460F46164601F0EEFA87
S315080048D0002863D14F4D2B68D4F8DCA0D4F8E080CB
S315080048E00BB1534576D04FF00009AF6001F012FBCB
S315080048F00128074665D1204607F044F8002851D11B
S315080049002B68DAF80010D8F8002013B11868884226
S315080049106BD0204607F012F8C5E900A8D4F8F05085
S315080049208DF80760002D67D00022204611460DF14C
S315080049300703A847204600F041FD0546B9F1000FD8
S315080049400FD076B9D4F88C300BBB012F05D025B122
S31508004950314B002103205B689847284602B0BDE822
S31508004960F087B5FA85F04FF485623321400900F0E7
S31508004970C9F83146204600F02DFF284B05461B682E
S31508004980414620469847D4F88C30002BDDD00022CB
S315080049904FF40073204600F0BFF9D6E700231D4DFB
S315080049A06B6098E794F82530DA07A9D5D4F89430DF
S315080049B05B05A5D51A4B0122002120461B6898479E
S315080049C09EE70021012000F0E7F901F0A3FA01288B
S315080049D0FBD190E76B68002B85D0434583D1AB6844
S315080049E09F4215D04FF001097FE7696811B1096840
S315080049F0914291D059688CE794F82A1094F8393185
S31508004A003246994228BF1946204600F057FC91E7DE
S31508004A100025A2E700250020382500202C250020A7
S31508004A20D8230020F8B50F46054607F009FA394697
S31508004A3006462846FFF7E6FE044620B1304607F04C
S31508004A40FAF92046F8BD01F013FA224639462846F7
S31508004A50FFF736FF04460028F0D1284606F092FFF5
S31508004A600028EBD095F8253013F001030DD0D5F8C2
S31508004A70942052050DD5B5F82A21BA4205D0B5F8C5
S31508004A802C31DB1BB3FA83F35B09034A82F8DC306B
S31508004A90D4E72346F9E700BF003E00B04FF40073A1
S31508004AA007B50A490DF10602ADF8063006F09FFD76
S31508004AB0BDF80630B3F5007F05D1022808BF0020EF
S31508004AC003B05DF804FB2120FAE700BFB4210020FB
S31508004AD0024B1860024B1960FEE700BFB4230020A2
S31508004AE03425002038B5044D044C054B2860216058
S31508004AF01A60FFF7EDFF38BDB423002034250020E7
S31508004B00B823002010B550B90548064B0160064881
S31508004B1002601868054B18601868FFF7E3FF10BDB8
S31508004B2034250020B0210020B8230020B42300201B
S31508004B30014906F076BD00BF45610008014906F047
S31508004B4070BD00BF1961000837B50C46264D69B916
S31508004B500A46012105F0CEF8244BEC645C6005F0AA
S31508004B60E7F82022224B5A6603B030BD01221146CF
S31508004B7005F0C0F807221E4B0121DA60237901A847
S31508004B8085F84C306379019307F02EF8019BC2B281
S31508004B90D34000F00F0040EA031085F84D00A279D3
S31508004BA085F84E20E27985F84F202068286501931C
S31508004BB0BBB1012102888B420CD821794B1E1344C4
S31508004BC00C4A1362C2F8CC1020220B4B5A6605F029
S31508004BD0AFF8C9E730F811500131AA4228BF2A4672
S31508004BE0E9E71A46E9E700BF003F00B04C3F00B0CE
S31508004BF0006000B8004000B8005000B8D0F8E430B3
S31508004C0013B11A68032A10D8094BDB6BC3F3C20227
S31508004C1013F0380F03F0070018BF504313F4E07F72
S31508004C20C3F3821203D050437047986A400E704708
S31508004C30008001B8431C07D06FF0FF02034B1040F9
S31508004C405A62A3F580535862704700BF00E000B867
S31508004C5010B504234FF03A4101240A4AD1F8180145
S31508004C60C2F81831C2F814314C634FF4005111637D
S31508004C70410742BFC2F81431A2F58052C2F8183172
S31508004C8010BD00BF002000BAF8B504460F46164608
S31508004C9007F0D6F80546A047044620B1284607F08F
S31508004CA0CAF82046F8BD04F0BBF904220549D1F834
S31508004CB0F03E23EA07033343C1F8F03E024B5A6439
S31508004CC0ECE700BF003000B0002002B800F018037F
S31508004CD0182B0AD003070AD440F2011310F010006B
S31508004CE018BF1846034BD86770470020FAE701201B
S31508004CF0F8E700BF003F00B038B10368044A002B4C
S31508004D0008BF1346034A13607047014BFAE700BF12
S31508004D10D7B600084825002010B4D0E954412240EF
S31508004D200B4052EA030104D003495DF8044B0968B5
S31508004D3008475DF8044B704748250020024B986EDB
S31508004D4000F00F00704700BF003F00B00F2938B5CC
S31508004D5005460C460ED801F0DDF801280CD1074AA5
S31508004D602846936E23F00F032343936606F00DFE41
S31508004D70002038BD2120FCE70220FAE7003F00B0FA
S31508004D80014BD86E704700BF003F00B0014B0020B2
S31508004D90D9667047003F00B003282DE9F3478846D7
S31508004DA065D8344B13F80090334B1E5C334B13F81D
S31508004DB000A007F045F8074603F052FF054640B144
S31508004DC000230022CDE9003301200023002103F04F
S31508004DD075FD03F04DFF48B100230022CDE90033ED
S31508004DE0002000234FF4004103F068FD002E3CD05C
S31508004DF0234BDC6C04F00804224B31464846DC643D
S31508004E0004F06CF9012352463146484604F0F4F999
S31508004E101D4BDC64DDB11D4B1868D0F89410F830D2
S31508004E2002F058FF1A490868FFF704FF4FF0FF33EE
S31508004E300B60184B1A68511C06D06FF07E40164955
S31508004E40C863A1F58051CA634FF0FF321A60B8F102
S31508004E50000F04D0114B002103205B6898473846A1
S31508004E6002B0BDE8F04706F0E6BF3446C4E702B034
S31508004E70BDE8F08788D1000884D1000880D10008F1
S31508004E80004000B8006000B8005000B8B02100200B
S31508004E90442500204025002000E000B838250020E1
S31508004EA00F4A536C13F0A00F15D1906C10F0040044
S31508004EB013D10C4BD3F8F03E23F07F4323F0FF03C6
S31508004EC05BB1D368C3F30362092A07D0B2F10C00B9
S31508004ED018BF01207047002070470120704700BFA7
S31508004EE0000002B8003000B0074A084B30B1022172
S31508004EF0C2F864120422C3F8642270470421C2F877
S31508004F0064120222F7E700BF006001B8005001B83A
S31508004F1070B50D46064620B91C4B1B68D3B10E204A
S31508004F2017E000F0F7FF01282DD1194B93F900403F
S31508004F30D6F8E430C4F11C040BB193F92630E41A10
S31508004F40641BC4F12B03002BB8BF5B42232B0CDD7B
S31508004F50212070BD01F10F03002BB8BF5B42232B44
S31508004F60F6DC0B4B19700020F3E786F8275006F09D
S31508004F7067FF084A136A23F4FF2343EAC42313622C
S31508004F8006F059FFEFE70220E3E700BFB021002053
S31508004F90DE24002000C000B8094B08461A6D9102AD
S31508004FA00BD4D3F84021D20708D4D3F8803013F4B1
S31508004FB0706F14BF0120002070470120704700BFA2
S31508004FC0004001B8F8B50D46D0F8943002EA01045D
S31508004FD023EA01032343C0F894304D4A01F00B033A
S31508004FE023EA0401D1642340A2F580526F070646DE
S31508004FF0D36410D50121FFF7CFFF60B104F010F894
S315080050004FF4007314F0040F14BF424A424A136562
S315080050100422424B5A64E90606D514F0100F14BF51
S3150800502000221B223E4B5A652A0618D5230611D59F
S315080050304FF40012374BDA6406F002FF0E210746DA
S31508005040032002F0CFFD40F20122354B3846DA62E2
S3150800505006F0F1FE214606F1F80002F03BFEEF05E8
S3150800506003D5E0053DD502F0ABFDA90503D5A2059C
S315080050703AD502F0B1FD15F48C6F1DD014F4806298
S3150800508037D096F82530DB070CD5F28DB6F82A31DD
S3150800509093422CD0B6F82C319F1A7B427B41214A89
S315080050A082F8DC30D6F8E410304606F015FB80228C
S315080050B01D4B98671D4B1A612B0510D503F0B0FFE1
S315080050C01B4A14F4006FD2F8F03E14BF43F0006395
S315080050D023F00063C2F8F03E0422104B5A64002005
S315080050E0F8BD02F067FDC0E702F070FDC3E70123D3
S315080050F0D5E76805D6D596F82530D907D2D5094B10
S31508005100114683F8DC200B4B30461B689847C9E7E5
S31508005110006000B8005001B8006001B8002002B86D
S31508005120004000B8003E00B0003F00B0000002B8E2
S31508005130003000B0D823002090F826305A1F012AE4
S3150800514001D9082B05D14B7C2BB1012B05D0022B9D
S3150800515005D006F017BB0348704703487047034855
S31508005160704700BF20A1070048E8010040420F0031
S315080051700A78022A11D0101F4242424152004B7847
S315080051801201022B0BD0191F4B424B415B000549FC
S31508005190054842EA8312FFF777BD0122EFE70123AC
S315080051A0F5E700BFF0FFFF005D5F00080B78022BF4
S315080051B010D0181F434243415B004A78022A0BD09D
S315080051C0111F4A424A4152000F21044843EA82020B
S315080051D0FFF75ABD0123F0E70122F5E7895F0008CA
S315080051E02DE9F8430E780446042E0D4690F83081D2
S315080051F00BD100275FFA87F9484601F0CDFC08B1C4
S315080052004E4602E00137042FF4D1304601F0C4FCC3
S31508005210002849D094F83031B34209D1AA88D4F885
S31508005220A4309A4204D16A88B4F832319A4238D006
S3150800523084F83061AB883046A4F834316B88A4F81A
S315080052403231AB8804F59875C4F8A430FF2384F886
S315080052502B3006F00AFC84F82A00284601F02CFCBC
S3150800526018BB284601F08EFCF8B9D4F8E03053B1E3
S3150800527094F83011414506D02046B3F91220FDF7BF
S3150800528051FC84F83901204601F004FD0949A4F8C7
S3150800529034010123084AD1F8FC1004F1F80003F0A0
S315080052A0E1F80020BDE8F88321200C2384F830318A
S315080052B0F8E700BF004F00B0A43F00B070B5054640
S315080052C090F830010C460C281FD0FF2901D1212067
S315080052D070BD1AB14FF0FF320D4B1A6006F0C5FBD0
S315080052E0064695F8300101F0C7FC844228BF0446FB
S315080052F0E4B2B44238BF3446E0B285F82B0001F078
S31508005300E7FDFF28E3D00020E2E70220E0E700BF40
S315080053105425002010B590F8303104460C2B44D0A3
S31508005320D0F8E03080F82A10DBB3D0F8F020D2B9F4
S3150800533090F839318B421CD300222046FFF7BEFF76
S3150800534048BB1B4B1B7813F0FD0F23D1204601F0F9
S31508005350A1FC18490123184AD1F8FC1004F1F800F9
S3150800536003F080F816E0B0F94220B3F912309A42F9
S31508005370E2DD0022204694F83911FFF79FFF50B965
S31508005380C4F8E000204606F089F84FF6FF73984205
S31508005390014601D1002010BD2046BDE81040FFF7A8
S315080053A041BBFF2380F82B30F4E70220F3E700BF68
S315080053B07A250020004F00B0A43F00B0F0B504469F
S315080053C08FB000F075FFD4F89C300546012B00D04D
S315080053D010B128460FB0F0BD6C49204606F094FB84
S315080053E0D4F8E0600146E58DC4F8E4003EB13368C0
S315080053F02BB15B681BB11A68032A00F2A48006F079
S315080054001FFD01462046FFF7F9FB0746084606F04A
S3150800541012FDD4F8E410B3898DF80E70EB1A9BB21E
S31508005420D6E9012000FB03225948ADF80C30036881
S315080054300292994207D0204606F04EF98022554935
S31508005440554B88671A61554D534E00F063FD012888
S31508005450FBD12B6CDB07F8D4736CDF01F5D4D4F8D9
S31508005460E41020460D919DF80E20029908AB02F033
S31508005470EDFC002847D100F04DFD0128FBD1464A36
S315080054804649536CD801FCD40B6CDB07F9D408A940
S3150800549001A802F061FE0546002834D1E28D404B92
S315080054A05A6494F8243060F3410384F8243000F0F9
S315080054B085FFD4F8E0305969431E0E68DBB2FD2B30
S315080054C0049624D84B680128059330D10126DF1CA1
S315080054D006D90133334B5B6846D0DA1C41D80593AD
S315080054E0024604A9204600F02BFF002E7FF471AF78
S315080054F0D4F85431990529D494F8243043F002039A
